:1000000026C1000052C1000050C100004EC10000D6
:100010004CC100004AC1000048C1000046C10000B8
:1000200044C1000042C1000040C100003EC10000C8
:100030003CC100003AC1000038C1000036C10000D8
:1000400034C1000032C1000030C100002EC10000E8
:100050002CC100002AC1000028C1000084C3000098
:1000600024C1000022C1000020C100001EC1000008
:100070001CC100001AC1000018C1000016C1000018
:1000800014C1000012C1000010C100000EC1000028
:100090000CC100000AC1000008C1000006C1000038
:1000A00004C1000002C1000000C10000FEC0000049
:1000B000FCC00000FAC00000F8C00000F6C000005C
:1000C000F4C00000F2C00000F0C00000EEC000006C
:1000D000ECC00000EAC00000E8C00000E6C000007C
:1000E000E4C000000C051105160520052A05A3052E
:1000F00034053C0544054E055805620571057B0530
:10010000A30585058F059905C405C705B605BA057C
:10011000C005FE05CB05CF05D505D905DD05E305F1
:10012000E705EB05FE05F105F505F90500000A0BED
:1001300002090C0D0E080703040100000000000076
:1001400000000000000000000000000000000000AF
:10015000000000000000000012111000000000006C
:10016000000000000000000000000000000000008F
:1001700000000102102020080810204010204080BC
:10018000020102010804020101020408102040805B
:1001900080402010080402018004020180402010E9
:1001A0000804020108040201010204081020408032
:1001B0000102040810204080050505050705080810
:1001C0000808020202020A0A0808040404040101E1
:1001D00001010101010103030303030303030407F6
:1001E00007070C0C0C0C0C0C0C0C0202020206068D
:1001F0000606060606060B0B0B0B0B0B0B0B000083
:1002000020002300260029002C002F0032000001CE
:10021000000003010601090100002200250028005A
:100220002B002E00310034000201000005010801FE
:100230000B0100002100240027002A002D003000BF
:10024000330001010000040107010A0166021124C4
:100250001FBECFEFD1E2DEBFCDBF00E00CBF12E08A
:10026000A0E0B2E0E2E6FFE000E00BBF02C00790D2
:100270000D92A832B107D9F722E0A8E2B2E001C09E
:100280001D92AB34B207E1F712E0CEE4D2E000E019
:1002900005C022970109FE010BBF5DD6CC34D10702
:1002A00080E00807B1F723D65AC6AACE20E042E084
:1002B00060E18AE292E0ADD16FE072E08AE292E022
:1002C00072D560E086E29BD460E087E298D460E07B
:1002D00088E295D460E089E292D461E080910202E4
:1002E0008ED461E0809100028AC420E042E060E1A7
:1002F0008AE292E08ED16AE172E08AE292E053D51E
:1003000080910C0241D390932902809328024AE005
:1003100050E0BC018AE292E0E2D586E2DED4892B8D
:1003200091F1609128027091290277FF02C06D5F00
:100330007F4F75956795759567958091020249D3B2
:1003400062E070E080E090E07BD260E070E080915D
:1003500000023FD362E070E080E090E071D26091F3
:1003600028027091290277FF02C06D5F7F4F75955B
:1003700067957595679580910A022BD362E070E0CE
:1003800080E090E05DD287E2A8D4892B91F1609162
:1003900028027091290277FF02C06D5F7F4F75952B
:1003A0006795759567958091000213D362E070E0C0
:1003B00080E090E045D260E070E08091020209D3D5
:1003C00062E070E080E090E03BD2609128027091A2
:1003D000290277FF02C06D5F7F4F75956795759510
:1003E000679580910802F5D262E070E080E090E0CD
:1003F00027D288E272D4892B91F160E070E080917D
:100400000202E7D262E070E080E090E019D260E0A2
:1004100070E080910002DDD262E070E080E090E068
:100420000FD2609128027091290277FF02C06D5FA0
:100430007F4F759567957595679580910602C9D22E
:1004400062E070E080E090E0FBD160E070E08091DD
:100450000402BFD262E070E080E090E0F1D189E276
:100460003CD4892B91F160E070E080910A02B1D216
:1004700062E070E080E090E0E3D160E070E08091C5
:100480000802A7D262E070E080E090E0D9D160E09D
:1004900070E0809106029DD262E070E080E090E022
:1004A000CFD1609128027091290277FF02C06D5F61
:1004B0007F4F75956795759567958091040289D2F0
:1004C00062E070E080E090E0BBC10895CF92EF92CF
:1004D0000F936DE1C62E7CE1E72E0BE12AE145E2A8
:1004E00064E28AE292E01BD10F91EF90CF900895E1
:1004F000CF93DF93EC0160E08E81BAD381E090E08E
:10050000D6D161E08E81B4D381E090E0D0D160E0BB
:100510008E81AED384E690E0DF91CF91C8C1EF9297
:10052000FF920F931F93CF93DF938C01C0E0D0E035
:10053000E62EF12CB7010C2E02C0759567950A9432
:10054000E2F76170F801EC0FFD1F878191D32196CE
:10055000C430D10579F7C801DF91CF911F910F9178
:10056000FF90EF90C5CFEF92FF920F931F93CF9321
:10057000DF938C01C0E0D0E0E62EF12CB7010C2E09
:1005800002C0759567950A94E2F76170F801EC0F67
:10059000FD1F87816DD32196C830D10579F7C80139
:1005A000DF91CF911F910F91FF90EF90A1CF1F93FB
:1005B000CF93DF93EC01162F642F8C8159D38D815B
:1005C0008F3F11F060E054D38F85612F84FF05C009
:1005D000CE01DF91CF911F91C6CF70E084E0759579
:1005E00067958A95E1F7CE019ADF612FCE01DF9101
:1005F000CF911F9194CF40E0DACF61E0FCDF80ED36
:1006000097E055C1FC016089262F2460208B6C6027
:10061000F2CF0F931F93CF93DF93EC01423018F08A
:100620008F8588608F874B8B1C8A80E48D8B6E8BC7
:1006300070E0605C7F4F6F8B222329F0413019F40A
:100640008F8584608F8761E08C81D9D28D818F3FC7
:1006500011F061E0D4D261E08E81D1D200E010E0EF
:100660008F8584FF03C088E090E002C084E090E0C2
:10067000081719074CF4FE01E00FF11F61E08781B4
:10068000BED20F5F1F4FECCF80E593EC10D160E03E
:100690008C81EED260E08E81EBD28D818F3F11F0A4
:1006A00060E0E6D26F8564FD16C063E0CE0137DFFF
:1006B00084E991E1FCD063E0CE0131DF84E991E18E
:1006C000F6D063E0CE012BDF86E990E0F0D062E067
:1006D000CE0125DF11C06062CE018DDF84E991E19A
:1006E000E6D06F856062CE0186DF86E990E0DFD0DC
:1006F0006F856062CE017FDF6F856062CE017BDF38
:1007000084E0888BCE017EDFCE0177DF82E0898BAB
:1007100066E0CE01DF91CF911F910F916CCFCF9208
:10072000EF920F93FC011382128284E292E0918394
:10073000808364838FEF8583468327830087E186E8
:10074000C2861386148615861686178620E041E039
:1007500060E1CF010F91EF90CF905BCF41E027DFB9
:1007600081E090E008951F920F920FB60F9211242E
:100770002F933F938F939F93AF93BF9380914302A7
:1007800090914402A0914502B091460230914202FC
:1007900023E0230F2D3720F40196A11DB11D05C0C4
:1007A00026E8230F0296A11DB11D209342028093DB
:1007B000430290934402A0934502B0934602809175
:1007C000470290914802A0914902B0914A020196D5
:1007D000A11DB11D8093470290934802A093490246
:1007E000B0934A02BF91AF919F918F913F912F910A
:1007F0000F900FBE0F901F9018953FB7F8948091FF
:10080000470290914802A0914902B0914A0226B550
:10081000A89B05C02F3F19F00196A11DB11D3FBF38
:100820006627782F892F9A2F620F711D811D911DC8
:1008300042E0660F771F881F991F4A95D1F70895E8
:100840008F929F92AF92BF92CF92DF92EF92FF92E0
:100850006B017C01D2DF4B015C01C114D104E104C6
:10086000F104E1F04FD3C9DF681979098A099B09BE
:10087000683E73408105910580F321E0C21AD108DA
:10088000E108F10888EE880E83E0981EA11CB11CD7
:10089000C114D104E104F10431F7DFCFFF90EF90F0
:1008A000DF90CF90BF90AF909F908F90089582304F
:1008B000910538F0880F991F880F991F05970197A8
:1008C000F1F70895789484B5826084BD84B5816021
:1008D00084BD85B5826085BD85B5816085BDEEE648
:1008E000F0E0808181608083E1E8F0E01082808127
:1008F00082608083808181608083E0E8F0E0808195
:1009000081608083E1EBF0E0808184608083E0EBB4
:10091000F0E0808181608083E1E9F0E080818260A5
:100920008083808181608083E0E9F0E08081816064
:100930008083E1EAF0E08081826080838081816051
:100940008083E0EAF0E0808181608083E1E2F1E091
:10095000808182608083808181608083E0E2F1E039
:10096000808181608083EAE7F0E080818460808319
:1009700080818260808380818160808380818068C3
:1009800080831092C1000895863308F08653209129
:100990007B00982F9870277F922B90937B00877015
:1009A00020910E0290E4299F90011124822B8093C4
:1009B0007C0080917A00806480937A0080917A0034
:1009C00086FDFCCF809178002091790090E0922BF9
:1009D00008951F93CF93DF93182FEB0161E00FD1A0
:1009E000209711F460E004C0CF3FD10531F461E0FD
:1009F000812FDF91CF911F913BC1E12FF0E0E45DAA
:100A0000FE4F449150E0FA013197E231F10508F0D0
:100A10009AC0EE58FF4F99C284B5806884BDC7BDA7
:100A200097C084B5806284BDC8BD92C080918000AB
:100A3000806880938000D0938900C093880088C02C
:100A400080918000806280938000D0938B00C0935F
:100A50008A007EC080918000886080938000D0935F
:100A60008D00C0938C0074C08091B000806880932A
:100A7000B000C093B3006CC08091B00080628093DE
:100A8000B000C093B40064C08091900080688093EF
:100A90009000D0939900C09398005AC08091900024
:100AA000806280939000D0939B00C0939A0050C0C6
:100AB00080919000886080939000D0939D00C093B7
:100AC0009C0046C08091A00080688093A000809127
:100AD000A0008F7B8093A000D093A900C093A800B2
:100AE00037C08091A00080628093A000D093AB00BB
:100AF000C093AA002DC08091A00088608093A000C0
:100B0000D093AD00C093AC0023C0809120018068D9
:100B100080932001D0932901C093280119C08091AE
:100B20002001806280932001D0932B01C0932A0181
:100B30000FC080912001886080932001D0932D0107
:100B4000C0932C0105C0C038D1050CF050CF4ACF5E
:100B5000DF91CF911F91089590E0FC013197E23130
:100B6000F10508F04BC0EC57FF4FEFC180918000BA
:100B70008F7703C0809180008F7D809380000895DF
:100B800080918000877FF9CF84B58F7702C084B5CC
:100B90008F7D84BD08958091B0008F7703C08091D0
:100BA000B0008F7D8093B0000895809190008F7782
:100BB00007C0809190008F7D03C080919000877F57
:100BC0008093900008958091A0008F7707C0809156
:100BD000A0008F7D03C08091A000877F8093A0003C
:100BE0000895809120018F7707C0809120018F7D2B
:100BF00003C080912001877F809320010895CF93C7
:100C0000DF9390E0FC01EE58FE4F2491FC01E85484
:100C1000FE4F8491882349F190E0880F991FFC01D1
:100C2000EE5CFD4FA591B491885E9D4FFC01C5918E
:100C3000D4919FB7611108C0F8948C9120958223BC
:100C40008C93888182230AC0623051F4F8948C918D
:100C5000322F309583238C938881822B888304C024
:100C6000F8948C91822B8C939FBFDF91CF91089544
:100C70000F931F93CF93DF931F92CDB7DEB7282F2B
:100C800030E0F901E45DFE4F8491F901EE58FE4F2A
:100C90001491F901E854FE4F04910023C1F0882318
:100CA00019F0698359DF6981E02FF0E0EE0FFF1F33
:100CB000E85EFD4FA591B4919FB7F8948C916111B6
:100CC00003C01095812301C0812B8C939FBF0F908F
:100CD000DF91CF911F910F910895CF93DF93282F2C
:100CE00030E0F901E45DFE4F8491F901EE58FE4FCA
:100CF000D491F901E854FE4FC491CC2389F08111BD
:100D00002BDFEC2FF0E0EE0FFF1FE250FE4FA5911E
:100D1000B4912C912D2381E090E021F480E002C079
:100D200080E090E0DF91CF910895CF92DF92EF9233
:100D3000FF920F931F93CF93DF937C016A01EB0126
:100D400000E010E00C151D0571F06991D701ED91DF
:100D5000FC910190F081E02DC7011995892B19F0C4
:100D60000F5F1F4FEFCFC801DF91CF911F910F9100
:100D7000FF90EF90DF90CF9008956115710581F09D
:100D8000DB010D900020E9F7AD0141505109461BF0
:100D9000570BDC01ED91FC910280F381E02D199459
:100DA00080E090E00895E9CFDC01ED91FC910190A5
:100DB000F081E02D19948F929F92AF92BF92DF92B3
:100DC000EF92FF920F931F93CF93DF93CDB7DEB7D0
:100DD000A1970FB6F894DEBF0FBECDBF7C01F42FF4
:100DE000D52ECB0119A2223008F42AE08E010F5D26
:100DF0001F4F822E912CA12CB12C6F2F7D2DA50180
:100E0000940181D0F22FD32ECA01015011096A300A
:100E100014F4E0E301C0E7E3E60FD801EC93232BE1
:100E2000242B252B51F7B801C701A7DFA1960FB6D8
:100E3000F894DEBF0FBECDBFDF91CF911F910F9110
:100E4000FF90EF90DF90BF90AF909F908F900895AC
:100E5000CF92DF92EF92FF920F931F93CF93DF9386
:100E6000EC016A017B012115310579F4E881F981F2
:100E70000190F081E02D642FDF91CF911F910F91B0
:100E8000FF90EF90DF90CF9019942A303105D9F47C
:100E900077FF18C06DE288DF8C0144275527BA011F
:100EA0004C195D096E097F092AE0CE0184DF800FAD
:100EB000911FDF91CF911F910F91FF90EF90DF90E5
:100EC000CF9008952AE0B701A601CE01DF91CF911E
:100ED0001F910F91FF90EF90DF90CF906CCF9A0110
:100EE000AB01662757FD6095762FB2CF0895EADCF7
:100EF000FDDFDCD9C0E0D0E0F8D92097E9F30E940B
:100F00000000FACF0895A1E21A2EAA1BBB1BFD0117
:100F10000DC0AA1FBB1FEE1FFF1FA217B307E407D8
:100F2000F50720F0A21BB30BE40BF50B661F771F30
:100F3000881F991F1A9469F7609570958095909510
:100F40009B01AC01BD01CF010895EE0FFF1F05907D
:100F5000F491E02D19940790F691E02D1994F894EE
:020F6000FFCFC1
:100F62000800070005000200040003003E00012003
:100F72002020474E444B4954530050574D3D2000CA
:080F820000000000AE0395061B
:00000001FF
