:100000001FC200004EC200004CC200004AC20000E5
:1000100048C2000046C2000044C2000042C20000C4
:1000200040C200003EC200003CC200003AC20000D4
:1000300038C2000036C2000034C2000032C20000E4
:1000400030C200002EC200002CC200002AC20000F4
:1000500028C2000026C2000024C200000C94BB127B
:1000600020C200000C94B2150C94E8151AC20000CE
:1000700018C2000016C2000014C2000012C2000024
:1000800010C200000EC200000CC200000AC2000034
:1000900008C2000006C2000004C200000C94E20E78
:1000A00000C20000FEC10000FCC10000FAC1000057
:1000B000F8C10000F6C10000F4C10000F2C1000068
:1000C000F0C10000EEC10000ECC10000EAC1000078
:1000D000E8C10000E6C10000E4C10000E2C1000088
:1000E000E0C10000C909CB09CE09D009D209E10954
:1000F000F609170A1A0A240AE510FC10FC10F91078
:10010000FC10E310FC10FC10FC10D710FC10FC10CD
:10011000EC10F710F510FC10FC10FC10F310D313CA
:10012000D613C513C913CF130D14DA13DE13E4135A
:10013000E813EC13F213F613FA130D14001404145D
:10014000081441707220323320323031360030389A
:100150003A35303A343000000005072061000000D5
:10016000000000005F00000007000700147F147FFC
:1001700014242A7F2A122313086462364955225018
:100180000005030000001C2241000041221C000861
:100190002A1C2A0808083E080800503000000808F9
:1001A000080808006060000020100804023E514961
:1001B000453E00427F400042615149462141454B46
:1001C000311814127F1027454545393C4A494930BA
:1001D00001710905033649494936064949291E0076
:1001E0003636000000563600000008142241141470
:1001F00014141441221408000201510906324979ED
:10020000413E7E1111117E7F494949363E414141AF
:10021000227F4141221C7F494949417F090901014F
:100220003E414151327F0808087F00417F41002054
:1002300040413F017F081422417F404040407F02FF
:1002400004027F7F0408107F3E4141413E7F09093F
:1002500009063E4151215E7F09192946464949490F
:100260003101017F01013F4040403F1F2040201FDE
:100270007F2018207F63140814630304780403614B
:100280005149454300007F4141020408102041418B
:100290007F0000040201020440404040400001028F
:1002A000040020545454787F48444438384444442B
:1002B00020384444487F3854545418087E090102B9
:1002C000081454543C7F0804047800447D40002006
:1002D00040443D00007F10284400417F40007C04E2
:1002E0001804787C0804047838444444387C141496
:1002F0001408081414187C7C080404084854545446
:1003000020043F4440203C4040207C1C2040201CD6
:100310003C4030403C44281028440C5050503C4451
:1003200064544C44000836410000007F0000004146
:1003300036080008082A1C08081C2A0808000609B4
:1003400009061F1C1F1E1F1E1F1F1E1F1E1F000031
:100350000A0B02090C0D0E0807030401000000003F
:10036000000000000000000000000000000000008D
:10037000000000000000000000001211100000004A
:10038000000000000000000000000000000000006D
:10039000000000000102102020080810204010205A
:1003A0004080020102010804020101020408102039
:1003B0004080804020100804020180040201804037
:1003C00020100804020108040201010204081020A0
:1003D000408001020408102040800505050507053E
:1003E00008080808020202020A0A080804040404B1
:1003F00001010101010101010303030303030303DD
:10040000040707070C0C0C0C0C0C0C0C020202026B
:1004100006060606060606060B0B0B0B0B0B0B0B54
:1004200000002200250028002B002E00310034009F
:1004300002010000050108010B01980AFB0D1A16C4
:1004400011241FBECFEFD1E2DEBFCDBF00E00CBF55
:1004500013E0A0E0B2E0E2E8FFE200E00BBF02C080
:1004600007900D92A631B107D9F724E0A6E1B3E0D9
:1004700001C01D92A339B207E1F714E0C0E4D4E053
:1004800000E006C022970109FE010BBF0E94B217CF
:10049000CA33D10780E00807A9F70E9425170C94FA
:1004A000BF17AECDCF93DF9300D000D0CDB7DEB76E
:1004B00026E040E855E260E070E086EF93E00E94BD
:1004C000521560E070E089E193E00E94940A25E90A
:1004D0003AE04FEF67E571E089E193E018D76EE508
:1004E00072E089E193E00E949B1686E193E00E940E
:1004F000B211811107C064E772E086EF93E00E94B9
:10050000A616FFCF86E193E00E941712811112C058
:1005100066E872E086EF93E00E94A6164EE451E092
:1005200062E471E0CE0101960E94AC10CE0101960A
:100530000E94B71126960FB6F894DEBF0FBECDBF4E
:10054000DF91CF9108950F93CF93DF93CDB7DEB7AF
:1005500060970FB6F894DEBF0FBECDBF41E060E0FC
:1005600089E193E097D70E94051328EE33E040E03D
:1005700050E00E946517BA01A9012AE030E089E144
:1005800093E00E940D17CE0107960E943B126F81E7
:1005900070E06053784F4AE050E086EF93E00E94AD
:1005A0001F176FE286EF93E00E949C164AE050E02E
:1005B000688586EF93E00E9419176FE286EF93E05B
:1005C0000E949C164AE050E0698586EF93E00E9405
:1005D00019176AE972E086EF93E00E949B16CE013C
:1005E00007960E9425119CE0899FB0011124665F47
:1005F0007D4F86EF93E00E949B166DE972E086EFD7
:1006000093E00E949B164AE050E06A8586EF93E0F3
:100610000E9419176AE386EF93E00E949C164AE055
:1006200050E06B8586EF93E00E9419176AE386EF2E
:1006300093E00E949C164AE050E06C8586EF93E0C0
:100640000E94191786EF93E00E94A31660EA72E0F9
:1006500086EF93E00E949B16CE0107960E94301110
:10066000AB01BC012AE030E086EF93E00E940D1759
:100670006CEB72E086EF93E00E949B16CE0107962A
:100680000E94301120E831E541E050E00E946517FA
:10069000BA01A9012AE030E086EF93E00E940D172D
:1006A00061EC72E086EF93E00E94A61606E02EE170
:1006B0004CE067E070E0CE010D960E947511AE012E
:1006C000435F5F4FBE01695F7F4FCE0101960E947D
:1006D0005A1163EC72E086EF93E00E949B166981E9
:1006E00070E06053784F4AE050E086EF93E00E945C
:1006F0001F176FE286EF93E00E949C164AE050E0DD
:100700006A8186EF93E00E9419176FE286EF93E00B
:100710000E949C164AE050E06B8186EF93E00E94B5
:10072000191760E286EF93E00E949C164AE050E0C1
:100730006C8186EF93E00E9419176AE386EF93E0DD
:100740000E949C164AE050E06D8186EF93E00E9483
:1007500019176AE386EF93E00E949C164AE050E086
:100760006E8186EF93E00E94191786EF93E00E9456
:10077000A31686EF93E00E94A31668EB7BE080E06F
:1007800090E00E94341360960FB6F894DEBF0FBE5F
:10079000CDBFDF91CF910F910895CF93DF93EC01FF
:1007A000CAD61B821A8289ED92E0998388831F82C0
:1007B00018868FE789878FE38A871B861C861D86AC
:1007C0001E86DF91CF9108952F923F924F925F92B4
:1007D0006F927F928F929F92AF92BF92CF92DF9251
:1007E000EF92FF920F931F93CF93DF931F921F926D
:1007F000CDB7DEB71C01162FD22EFE2CEC2C8F2D80
:1008000090E0840F911D202F30E028173907C4F0A5
:10081000242F277081E090E0022E01C0880F0A94F7
:10082000EAF799249A94980E842F887F882EC42EF4
:10083000CF0CEC2DE87F7E2EAA24A394B12C49C0C6
:100840002D2DC101D2D786C0E42DF0E0852D877013
:1008500002C0F595E7958A95E2F7752F7770E0FF6E
:1008600007C09501072E01C0220F0A94EAF7622AF9
:100870005394852D877009F440C0773049F4452F93
:10088000487F612FC10198D6662DC101F7D6612C32
:10089000552D5F190515C0F6552E5F0C752F777015
:1008A00055113CC0A9F04FEF450F487F612FC101A2
:1008B0007A8382D6C101BAD67A81F50101C0EE0FE2
:1008C0007A95EAF76E2F619568236629C101D6D61D
:1008D0001F5FD11608F43EC0482D612FC1016CD6B0
:1008E000C101A4D6682E69205C2C472D612FC1015F
:1008F00063D6C1019BD6482ECBCFFFE3F51508F494
:10090000BCCF452D487F612FC10159837A8354D6CE
:10091000C1018CD6482E7A815981AFCF8FEF9501D6
:10092000072E01C0220F0A94EAF7E81202C0622AD9
:1009300002C020956222773059F4452F487F612FFD
:10094000C101598339D6662DC10198D6612C5981D0
:100950005F5FA4CF0F900F90DF91CF911F910F9108
:10096000FF90EF90DF90CF90BF90AF909F908F90CF
:100970007F906F905F904F903F902F9008952F92AF
:100980003F924F925F926F927F928F929F92AF921F
:10099000BF92CF92DF92EF92FF920F931F93CF936C
:1009A000DF9300D0CDB7DEB79B838A83162FD42E7A
:1009B000922EFE2CEC2C8F2D90E0840F911D202F79
:1009C00030E028173907DCF0202F27702F5F81E0F7
:1009D00090E0022E01C0880F0A94EAF7782E7194F5
:1009E000802F887F8983C02ECF18EC2DE87F5E2E64
:1009F000AA24A394B12C882483948F185DC0292D38
:100A00008A819B81F2D694C02A94822D8770873088
:100A100051F4422D487F612F8A819B81CDD58A81F7
:100A20009B8104D6682E2D1420F1E62DF0E0822D56
:100A3000877002C0F595E7958A95E2F7332D3770F8
:100A4000E0FF07C0C501032E01C0880F0A94EAF732
:100A5000482A31110BC0432D487F612F8A819B8129
:100A6000ABD5642D8A819B8109D6412C3A94211003
:100A7000CBCF2F2C632C6F18462D420D211035C083
:100A8000482D430D842F8770282EA9F0487F612FB1
:100A90008A819B8191D58A819B81C8D59501022C41
:100AA00001C0220F0A94EAF76FEF620F68236429EE
:100AB0008A819B81E3D51F5F911608F439C0498173
:100AC000612F8A819B8178D58A819B81AFD5482E01
:100AD00047202C2C452D612F8A819B816DD58A81E1
:100AE0009B81A4D5682E302E9ECF642F6770FFEFB8
:100AF000EF1208C0C501062E01C0880F0A94EAF75C
:100B0000482A08C09501062E01C0220F0A94EAF770
:100B10002095422261110AC0487F612F8A819B8102
:100B20004BD5642D8A819B81A9D5412C2A94A4CFD1
:100B30000F900F900F90DF91CF911F910F91FF9029
:100B4000EF90DF90CF90BF90AF909F908F907F906D
:100B50006F905F904F903F902F900895CF92EF92BB
:100B60000F931F93CF93DF93EC016A3009F084C099
:100B70008D819E81E0911703F091180303961995DA
:100B8000182FE0911703F09118038D819E8119951C
:100B900081110BC08D819E81E0911703F0911803A4
:100BA00001961995813009F469C06C852985621711
:100BB00060F44D8581E09C819F3F09F480E0E82E40
:100BC000E194012F040FCE0110D68B85ED84212FE7
:100BD00030E080FD2BC00A85220F331F2E0D311D02
:100BE000802F90E028173907E4F08E85811103C02B
:100BF00081E08E8745C081E09C819F3F09F480E0C1
:100C0000C82EC194E394E01A812F880FE80E29853D
:100C100048856F81CE01D8DD8F818C878A85811BC5
:100C200028C08F818C87E394E10E0CC048856E2D1F
:100C300070E0240F311D2617370734F48F818C871D
:100C4000EA94E11AED8616C08E85882389F281E048
:100C50009C819F3F09F480E0C82EC194E394E41A7C
:100C6000E10E0A8529856F81CE0189DE8F818C870F
:100C700088858D8781E004C080E002C0115095CF47
:100C8000DF91CF911F910F91EF90CF9008952F9208
:100C90003F924F925F926F927F928F929F92AF920C
:100CA000BF92CF92DF92EF92FF920F931F93CF9359
:100CB000DF93CDB7DEB766970FB6F894DEBF0FBEF1
:100CC000CDBF9E8B8D8B162FDC0115968D919C913F
:100CD0001697892B19F480E090E0FAC2603228F16F
:100CE000ED89FE8985819681E0911703F0911803C3
:100CF00003961995D82EAD89BE8915968D919C9134
:100D00001697E0911703F091180304961995C82ED1
:100D1000ED89FE8985819681E0911703F091180392
:100D2000059619951C1538F4D6CF8D899E8916DF46
:100D30008823B1F2CBC2412F50E0E82EF12C97016D
:100D40002C0D311D4217530734F62D2D30E03E8314
:100D50002D83590137E0A30EB11CF3E0B594A7949D
:100D6000FA95E1F71C19C12EE0911703F0911803D1
:100D7000AD89BE8915968D919C9116971995811113
:100D800056C2ED89FE8985819681E0911703F09125
:100D9000180301961995823008F049C2AD89BE89C1
:100DA00015968D919C911697E0911703F091180379
:100DB00002961995E82E1A9DC0011B9D900D1124D5
:100DC000E89E8001E99E100D11240A5F1F4F912CAF
:100DD000EE2009F480CFED89FE898685882339F0DD
:100DE0006AE0CF0154DFAD89BE891E961C92ED8961
:100DF000FE8983856E2C712C81FF15C0F48485815A
:100E00009681E0911703F09118030296199590E0EE
:100E10008619970997FD0196959587958F0DAD8950
:100E2000BE891C968C93ED89FE8984855301A80E9A
:100E3000B11CE0911703F0911803AD89BE89159696
:100E40008D919C911697199581110DC0ED89FE89A0
:100E500085819681E0911703F09118030196199509
:100E600091E0813009F090E0A91AB108AD89BE89FE
:100E700019968C91199790E08A159B054CF56AE0BC
:100E8000CD0105DFED89FE898685882339F06AE08A
:100E9000CF01FDDEAD89BE891E961C92ED89FE89CB
:100EA000838581FF15C0F48485819681E0911703C5
:100EB000F09118030296199590E08619970997FD0D
:100EC0000196959587958F0DAD89BE891C968C935B
:100ED000E0911703F0911803AD89BE8915968D91A5
:100EE0009C91169719958111D3C1ED89FE89858151
:100EF0009681E0911703F0911803019619958130BE
:100F000009F0C6C1AD2CF12C28E030E08D2D8770A2
:100F1000281B31093A8329839301200F311F388B15
:100F20002F872A2D30E03C832B8322242394312CDD
:100F3000FA1408F040C1AD89BE891D96BC901D977A
:100F4000BF0C4B2D487F1C966C911C97CD0134D360
:100F50008F2D8695869586958E9D900111243887D4
:100F60002F83412C512C8F2D90E09C01287F4D81A7
:100F70005E81421B530B5A8749872F8538894F81E1
:100F80005885240F351F3C872B872B813C81281BDC
:100F9000390B3E872D872B2D2770C22E4E1408F05B
:100FA000B3C0FD1420F58F819885800F911F840DAB
:100FB000951DAD89BE8915964D915C911697E0916E
:100FC0001703F0911803840F951F1995882E992007
:100FD00079F029853A852830310554F490E009806C
:100FE00002C0959587950A94E2F7882E01C0812C5E
:100FF000AD89BE8914968C91811101C080943C2DDD
:101000008B2D8F29877089F44D855E854830510579
:1010100064F0AD89BE891B968C911B9782FF03C03B
:10102000CD0104D3882A682D68C08D899E893B8BA9
:10103000FDD2C82E2F2D6B857C85640D751D3B89D7
:10104000422F4770882D90E0042E02C09595879519
:101050000A94E2F780FF08C0C101032E01C0880F87
:101060000A94EAF7C82A08C0C101032E01C0880FFC
:101070000A94EAF78095C822473061F5ED89FE8928
:1010800085819681E0911703F0911803860F971FD1
:10109000298B3B8B6C8B7A8B1995882E29893B8900
:1010A0006C897A89992079F08D819E81821B9109C2
:1010B00009974CF4882D90E0098002C0959587959A
:1010C0000A94E2F7882EAD89BE8914968C9181111D
:1010D00001C080942F5F3F5F383051F4ED89FE8965
:1010E000838582FF09C08D899E89A0D2C82A04C049
:1010F0002A1508F4A5CFF2CF6C2D8D899E89BED21A
:10110000FFEF4F1A5F0A47CFE0911703F0911803E2
:10111000AD89BE8915968D919C911697199581116F
:101120000CC0ED89FE8985819681E0911703F091CD
:101130001803019619958130D1F14F2C512CC11013
:1011400007C08B819C818419950908970CF0A8C071
:101150008D899E896BD2CC2009F49EC0B1010C2CE4
:1011600001C0660F0A94EAF761502B813C81241973
:101170003509283031054CF4A10102C0440F551F38
:101180002A95E2F79A012195622BAD89BE891496C2
:101190009C91911183C06095682BAD89BE891B9687
:1011A0008C911B9782FD84C08D899E8967D2FC1823
:1011B000B8E0FB0EBDCEED89FE8984858E0D848757
:1011C000838581FF19C085819681E0911703F09195
:1011D000180302961995AD89BE891C962C912E197B
:1011E000280F90E08619970997FD019695958795A8
:1011F000281BED89FE892487E0911703F0911803DD
:10120000AD89BE8915968D919C911697199581117E
:1012100058C0ED89FE8985819681E0911703F09190
:10122000180301961995813009F04BC04FC006E0B4
:1012300010E0812C912CAD89BE8915968D919C91E1
:101240001697E0911703F09118032AEF200F2C1541
:1012500040F4800F911F1995880E911C0F5F1F4F4E
:10126000EACF8A9C90018B9C300D9A9C300D112402
:1012700087010A5F1F4F020F131F2C2D30E02A5FDA
:101280003F4F820F931F1995E82E99249394A0CD78
:10129000AA24A394AD0C37CE60E067CF68237DCF3E
:1012A00061E0ED89FE898481811160E0619575CFEF
:1012B0006F3F09F479CFCD016C8BB8D16C89682B65
:1012C00073CFED89FE8984858F5F848781E090E00C
:1012D00066960FB6F894DEBF0FBECDBFDF91CF91FB
:1012E0001F910F91FF90EF90DF90CF90BF90AF9044
:1012F0009F908F907F906F905F904F903F902F9036
:1013000008956D3009F0C3CC81E090E00895FC01B0
:1013100076836583309318032093170344830895DD
:101320001F93CF93DF93EC018D819E810097D9F0BD
:10133000E0911703F091180303961995182FE09187
:101340001703F09118038D819E81199581110DC0AD
:101350008D819E81E0911703F091180301961995F4
:10136000813019F403C010E001C01F5F812FDF91AD
:10137000CF911F9108950F931F93CF93DF93EC01AB
:101380006A30710508F078C0FB01EE58FF4F0C94ED
:1013900087176F8101C0688570E076C06985FCCFD2
:1013A0006A85FACF8D819E81892B09F465C00985F4
:1013B00010E08F81081B11090F5F1F4F66E070E07E
:1013C0000EC08D819E81892B09F456C00A8510E0DC
:1013D0008885081B11090F5F1F4F67E070E0CE0181
:1013E000CADFBC01C8010E9452174EC08D819E8188
:1013F000009709F441C0E0911703F0911803029699
:101400001995082F10E0E0911703F09118038D81D2
:101410009E811995811133C08D819E81E0911703C2
:10142000F091180301961995882359F128C060E0BE
:1014300077DF08C08D819E81E0911703F09118033A
:1014400004961995682FA8CF8D819E81E09117038E
:10145000F091180304961995182F8D819E81E091C3
:101460001703F091180305961995682F70E0610F26
:10147000711D6150710908C060E070E005C0B801DD
:1014800003C0B8016F5F7F4FCB01DF91CF911F91F8
:101490000F910895EF92FF920F931F93CF93DF93D5
:1014A0001F92CDB7DEB77C01162FFC018581968196
:1014B000892B29F166E070E0C70149835CDF082FC2
:1014C00067E070E0C70157DFF7012781322F109FD7
:1014D000300D1124348790854981F92F489FF00DF4
:1014E00011248F2FF70185874185341718F4328531
:1014F000831718F0F70124879587F70116860F9058
:10150000DF91CF911F910F91FF90EF900895CF93AE
:10151000DF93EC0142D981EE92E0998388831092A7
:101520002C03DF91CF910895F8C1FC0184910895B7
:1015300089E193E0ECCF0895613019F44498439A1F
:101540000895449A43980895F7DF11B88FEF82B950
:10155000429A4198409AC89500C080B14098089539
:10156000EBDF11B8429A4198409AC89500C007999C
:10157000FECF409808956091280362956695669520
:101580006370EEDF429A419A00C0409AC89500C04D
:1015900080B140980895CF93C62F642FE1DF429821
:1015A00041988FEF81B9C2B900C0409AC895C895DB
:1015B00000004098CF9108950F931F93CF93DF932E
:1015C000EC01162F80912803681304C08091290331
:1015D000481739F117FD25C0403418F5109328033A
:1015E00040932903012F0295069506950370642FF9
:1015F000669566956695E02FF0E0E65DFC4F80818C
:10160000681729F06083686B402FCE01C4DF612F1B
:101610006F736064402FCE01DF91CF911F910F91C6
:10162000BACFDF91CF911F910F910895EF92FF9262
:101630001F93CF93DF931F92CDB7DEB77C016091EC
:10164000280367FD13C0698396DFC70194DF182F55
:1016500080912C036981811110958FEF809328036D
:1016600040912903C701A8DF812F01C080E00F90BE
:10167000DF91CF911F91FF90EF9008958F929F92ED
:10168000BF92CF92DF92EF92FF920F931F93CF936F
:10169000DF931F92CDB7DEB74C01062FD090280301
:1016A000D7FC96C0D294D694D69483E0D8223091B9
:1016B0002903377009F459C0C4013983B7DFC82E34
:1016C0006D2DC4014DDF4298419A8FEF81B900C062
:1016D000409A10E03981E32EF12CC80102C0880F36
:1016E000991F3A95E2F79C012C2980912C038111D6
:1016F000209522B9C895C89500004098C09029034C
:101700002C2D30E0285F3F4F287F2034310544F5F1
:1017100048E04C0D487F60912803C4014DDFC401AF
:1017200085DFB82E6D2DC4011BDF4298419A8FEFE3
:1017300081B900C0409A28E030E02E193F09F80135
:1017400002C0F595E7952A95E2F79F012B29809134
:101750002C038111209522B9C895C89500004098A6
:10176000609128036F5F4C2D25C06D2DC401F8DEFC
:101770004298419A8FEF81B980912C038111009595
:1017800000C0409A02B9C895C89500004098609181
:1017900028036F5F60932803962F929596959695F0
:1017A00093709D15A9F067FD13C09FEF90932803D8
:1017B00040912903C4010F90DF91CF911F910F91A8
:1017C000FF90EF90DF90CF90BF909F908F90F4CEDE
:1017D0000F90DF91CF911F910F91FF90EF90DF90CD
:1017E000CF90BF909F908F9008957F928F929F92FD
:1017F000AF92BF92CF92DF92EF92FF920F931F931F
:10180000CF93DF93EC01F62E122F041B0F5F161BF4
:101810001F5F542F5770942E951AC02ED12C88E03C
:1018200090E09C01251B3109C216D30664F49C018B
:101830002C193D098FEF90E002C0959587952A9568
:10184000E2F7802E04C098E0892E851A8FEFA82E2B
:1018500001C0AA0C5A95EAF77A2C492D6F2DCE01BA
:10186000ABDEB12CA094B11668F4CE01DFDE9FEFA1
:10187000682FE91202C0672901C06A21CE01FEDE8D
:10188000B394F1CF8918482D490D842F90E09C0125
:10189000295F3F4F2C153D0574F488E0980E492DC3
:1018A0006F2DCE0189DEB12CB11668F76E2DCE01F9
:1018B000E5DEB394F9CF401710F5C81AD90A8FEFB7
:1018C00090E00C2C01C0880F0A94EAF7D82ED0942F
:1018D00048E0490D6F2DCE016FDE00E0FD2CF09445
:1018E000011768F4CE01A2DE9FEF682FE91202C053
:1018F0006D2901C06F21CE01C1DE0F5FF1CFDF91F5
:10190000CF911F910F91FF90EF90DF90CF90BF90FC
:10191000AF909F908F907F900895EF92FF920F93DA
:101920001F93CF93DF93EC01399A3A9A389A4098F3
:101930003C9A44983B9A4398429841988FEF809301
:1019400028038093290360932C0362E370E080E016
:1019500090E08AD60AE213E0F12CEE24EA946F2D8F
:10196000CE01F2DD84FD1FC087FD20C0F801E192A9
:101970008F014F2D6FE3CE010EDE4F2D60ECCE01B7
:101980000ADEF394F2E0FF12EACFE12C0FE32FE737
:1019900040E060E0CE0129DF40E060E0CE010CDEF7
:1019A00080E090E005C082E090E002C081E090E03D
:1019B000DF91CF911F910F91FF90EF90089580914B
:1019C0005D0390E020915E03821B910908952091B0
:1019D0005E0380915D03281750F4E22FF0E0E15A96
:1019E000FC4F808190E02F5F20935E0308958FEF7E
:1019F0009FEF0895E0915E0380915D03E81730F456
:101A0000F0E0E15AFC4F808190E008958FEF9FEF66
:101A100008950895CF92DF92EF92FF920F931F9354
:101A2000CF93DF937C01CB018A01209139032223DC
:101A300089F0EB016B01C40ED51ECC15DD0561F0FC
:101A40006991D701ED91FC910190F081E02DC701E2
:101A50001995F3CF642F8DD1C801DF91CF911F91DC
:101A60000F91FF90EF90DF90CF900895CF93DF9389
:101A70001F92CDB7DEB76983209139032223D1F0BD
:101A800020913A03203240F021E030E0FC01338322
:101A9000228380E090E014C080913B03E82FF0E0C7
:101AA000E45CFC4F998190838F5F80933B0380932C
:101AB0003A0304C061E0CE0101965BD181E090E081
:101AC0000F90DF91CF910895FC011382128248EEAE
:101AD00053E060E070E0448355836683778389EE4A
:101AE00092E091838083089510925E0310925D03CB
:101AF00010923B0310923A0381C081E08093390336
:101B000060935C0310923B0310923A030895F5CF63
:101B10000F93062F21E040913A036CE373E080912C
:101B20005C03D0D010923B0310923A031092390319
:101B30000F9108958F929F92AF92BF92CF92DF92B2
:101B4000EF92FF920F931F93CF93DF93EC01F62E4A
:101B5000D42E48015901EE2009F1CFDF1E2D14309B
:101B600008F013E01150B8F0E881F98128E0129FE5
:101B7000B0011124A501940104C0569547953795ED
:101B800027956A95D2F7CA01B9010190F081E02D3D
:101B9000CE011995E7CF60E0CE01BADF4D2D41327D
:101BA00008F040E22C2D6FE573E08F2D43D01092AA
:101BB0005E0380935D03DF91CF911F910F91FF90A2
:101BC000EF90DF90CF90BF90AF909F908F9008954F
:101BD000CF92EF920F931F93C22EE12C00E010E002
:101BE0009801A8DF1F910F91EF90CF90089521E009
:101BF000EFCF61E08DCF8DE293E066CF1092EC03E2
:101C000081E08093EA031092E90361E084E106D663
:101C100061E085E103D6E9EBF0E080818E7F80838F
:101C200080818D7F808388E48093B80085E48093F1
:101C3000BC000895413208F043C09091EC0391112B
:101C4000FCCF91E09093EC032093EA032FEF2093D5
:101C50007F031092C403240F2093C3039093EB03DC
:101C60009091EB03880F892B8093EB038091E9031C
:101C7000813061F41092E9038091EB038093BB0003
:101C80008091BC0083FDF8CF85EC01C085EE809388
:101C9000BC008091EC038130E1F38091C403841790
:101CA00010F44091C40325EC33E0FB01D9018A2FE5
:101CB000821B841718F48D918193F9CF842F089596
:101CC00080E008950F93413208F04AC09091EC03F0
:101CD0009111FCCF92E09093EC030093EA039FEF05
:101CE00090937F031092C4034093C303FB0165EC00
:101CF00073E0DB019A2F961B941718F491919D9332
:101D0000F9CF1092EB039091EB03880F892B80930E
:101D1000EB038091E903813061F41092E903809133
:101D2000EB038093BB008091BC0083FDF8CF85EC72
:101D300001C085EE8093BC00222321F08091EC034A
:101D40008230E1F380917F038F3F61F080917F03C8
:101D5000803251F080917F03803341F483E007C0EB
:101D600081E005C080E003C082E001C084E00F9103
:101D70000895613298F42091EC03243089F4609343
:101D8000A103FC0183EA93E0DC012A2F281B26171C
:101D900018F421912D93F9CF80E0089581E0089502
:101DA00082E0089585ED8093BC008091BC0084FDA5
:101DB000FCCF1092EC03089585EC8093BC00109248
:101DC000EC0308951F920F920FB60F9211240BB6D9
:101DD0000F922F933F934F935F936F937F938F93C4
:101DE0009F93AF93BF93EF93FF938091B900887F48
:101DF000803609F49DC070F5883209F45CC090F417
:101E0000803109F455C038F4882309F4F3C08830D0
:101E100009F44EC0F2C0883109F44DC0803209F493
:101E20005EC0EBC0803409F469C050F4803309F41B
:101E300056C0883309F0E1C080937F03BDDFDDC069
:101E4000803509F44FC0883509F45DC0883409F045
:101E5000D4C0D2C0883909F4C3C0A8F4883709F4C3
:101E600067C038F4883609F463C0803709F460C06D
:101E7000C4C0883809F4B4C0803909F45FC0803820
:101E800009F0BBC05BC0803B09F482C038F4803AE3
:101E900009F466C0883A09F47BC0AFC0803C09F4FD
:101EA000A3C0883C09F4A0C0883B09F486C0A5C043
:101EB0008091EB0310C09091C4038091C3039817E5
:101EC00070F5E091C40381E08E0F8093C403F0E0CD
:101ED000EB53FC4F80818093BB0085EC82C08093E4
:101EE0007F038AC0E091C40381E08E0F8093C40316
:101EF0008091BB00F0E0EB53FC4F80839091C403D2
:101F00008091C3036AC0E091C40381E08E0F809387
:101F1000C4038091BB00F0E0EB53FC4F80838091C1
:101F2000EA03811169C081E08093E90384EA5DC01E
:101F300083E08093EC0310928003CFCF80918003E5
:101F4000803208F04DC0E091800381E08E0F8093D5
:101F500080038091BB00F0E0EF57FC4F8083BDCF42
:101F60002BDF80918003803230F4E0918003F0E039
:101F7000EF57FC4F10826091800370E0E091E50321
:101F8000F091E60381E893E019951092800335C043
:101F900084E08093EC031092A2031092A103E091DD
:101FA000E703F091E80319958091A103811105C021
:101FB00081E08093A1031092A303E091A20381E04A
:101FC0008E0F8093A203F0E0ED55FC4F808180934B
:101FD000BB009091A2038091A103981708F47DCFD4
:101FE00085E88093BC0009C085EC8093BC0010920A
:101FF000EC0303C010927F03D5DEFF91EF91BF91F8
:10200000AF919F918F917F916F915F914F913F9190
:102010002F910F900BBE0F900FBE0F901F90189531
:10202000803D27E0920710F0805D974050E0E2E4A9
:10203000F3E021E02E1B322F3E0F361728F43491A7
:10204000430F511D3196F7CF633038F09C01237058
:102050003327232B11F44F5F5F4F6DE671E0869FAE
:102060009001879F300D969F300D1124215031092A
:1020700003969695879596958795280F391FC901E0
:10208000840F951F0895FC01208120532A3008F009
:1020900020E0FC0181818053FAE02F9F800D112404
:1020A0000895CF92DF92EF92FF92CF93DF93EC01EE
:1020B000405853446D467843ECE3CE2ED12CE12CAE
:1020C000F12CCB01BA01A7019601FFD66D83CA019D
:1020D000B901A7019601F9D66C83CA01B90128E1BB
:1020E00030E040E050E0F1D66B83188243E95EEFC8
:1020F000E8818E2F8370A1E009F0A0E08A2F90E0A4
:10210000BC0163597E4F2617370740F0BA01681BA0
:10211000790B260F371FEF5FE883EACF81E08983D1
:102120008981E82FF0E0EF5BFC4FE491AA2319F0DE
:10213000823009F4EF5FF0E02E173F0720F02E1BEE
:102140003F0B8F5FECCF2F5F2A83DF91CF91FF9002
:10215000EF90DF90CF900895CF92DF92EF92FF92B1
:102160000F931F93CF93DF93CDB7DEB72B970FB6A7
:10217000F894DEBF0FBECDBF7C016A014BE050E09A
:10218000CE010196F3D6CE010A967DDFF70180835A
:102190000981112707FD1095212F312FF801E154F6
:1021A000F109E331F10540F5E458FF4FB0C68A81EB
:1021B000813639F08B818E3611F486E01BC087E0C2
:1021C00019C081E017C082E015C08B81823711F4FD
:1021D00084E010C088E00EC08B81823711F483E068
:1021E00009C085E007C089E005C08AE003C08BE034
:1021F00001C08CE0F7018183CE01059644DFF70131
:10220000828348E050E0B601CE010196AFD6CE0100
:10221000019639DFF7018383CE01049634DFF7019D
:102220008483CE0107962FDFF70185832B960FB6A7
:10223000F894DEBF0FBECDBFDF91CF911F910F91FC
:10224000FF90EF90DF90CF900895FC018081428154
:10225000618190E0E5DE069667E070E00FC60895C4
:10226000CF93DF93EC0188814A81698190E0D8DEC9
:102270009C01A8E1B0E051D69B01AC018B81280FF5
:10228000311D411D511DACE3B0E05CD69B01AC019A
:102290008C81280F311D411D511D54D62D81620F97
:1022A000711D811D911D60587C4B8249974CDF91B7
:1022B000CF9108950F931F93CF93DF93EC01CB0140
:1022C0008A01CEDFAB01BC01F80180819181A2813E
:1022D000B381480F591F6A1F7B1FCE01E2DECE017A
:1022E000DF91CF911F910F910895CF92DF92EF92DE
:1022F000FF920F931F93CF93FC01C42F122FDB018A
:1023000020E831E541E050E027D66B017C01AC2F9D
:10231000BB27A7FDB09520E13EE00ED6C60ED71E26
:10232000E81EF91EA12FBB27A7FDB0952CE330E0D6
:1023300003D6C60ED71EE81EF91E112707FD1095FD
:10234000212F312FC00ED11EE21EF31EC082D1827A
:10235000E282F382CF911F910F91FF90EF90DF9077
:10236000CF9008958DE293E0BFDB81E008951F9345
:10237000CF93DF93EC0168E670E08DE293E0C7DB7A
:1023800060E08DE293E072DB2D811AE0822F612FF5
:1023900069D5682F660F680F660F620F8DE293E0B4
:1023A00065DB2C81822F612F5DD5682F660F680F4A
:1023B000660F620F8DE293E059DB2B81822F612F34
:1023C00051D5682F660F680F660F620F8DE293E09C
:1023D0004DDB60E08DE293E049DB2A81822F612FA3
:1023E00041D5682F660F680F660F620F8DE293E08C
:1023F0003DDB2981822F612F35D5682F660F680F4D
:10240000660F620F8DE293E031DB2881822F612F0E
:1024100029D5682F660F680F660F620F8DE293E073
:1024200025DB8DE293E0DF91CF911F91E2CBCF933B
:10243000DF9368E670E08DE293E069DB60E08DE2B7
:1024400093E014DB8DE293E0D4DB41E050E068E6FA
:1024500070E08DE293E0CBDB8DE293E0B8DA87FBAE
:10246000882780F9C82F80E0D82F81E0C8278C2FDB
:10247000DF91CF910895CF92DF92EF92FF920F9369
:102480001F93CF93DF93EC0168E670E08DE293E059
:102490003EDB60E08DE293E0E9DA8DE293E0A9DBD8
:1024A00047E050E068E670E08DE293E0A0DB8DE26B
:1024B00093E08DDA8F77982F92959F701AEF082FFF
:1024C000919F000D11248DE293E081DA9C01332766
:1024D000A4E035952795AA95E1F7F82E129FF00C08
:1024E00011248DE293E073DA9C013327B4E0359533
:1024F0002795BA95E1F7E82E129FE00C11248DE2A2
:1025000093E065DA8DE293E062DA9C01332794E090
:10251000359527959A95E1F7D82E129FD00C112466
:102520008DE293E054DA9C01332744E035952795FA
:102530004A95E1F7C82E129FC00C11248DE293E05A
:1025400046DA9C01332754E0359527955A95E1F7F3
:10255000129F800D11248883C982DA82EB82FC826B
:102560000D83CE01DF91CF911F910F91FF90EF90DE
:10257000DF90CF9008951F920F920FB60F92112403
:102580002F933F938F939F93AF93BF938091EE03CD
:102590009091EF03A091F003B091F1033091ED031E
:1025A00023E0230F2D3720F40196A11DB11D05C096
:1025B00026E8230F0296A11DB11D2093ED03809301
:1025C000EE039093EF03A093F003B093F103809197
:1025D000F2039091F303A091F403B091F5030196F7
:1025E000A11DB11D8093F2039093F303A093F40314
:1025F000B093F503BF91AF919F918F913F912F9130
:102600000F900FBE0F901F9018952FB7F894609100
:10261000EE037091EF038091F0039091F1032FBFCF
:1026200008953FB7F8948091F2039091F303A0913D
:10263000F403B091F50326B5A89B05C02F3F19F010
:102640000196A11DB11D3FBF6627782F892F9A2FB4
:10265000620F711D811D911D42E0660F771F881F5B
:10266000991F4A95D1F70895CF92DF92EF92FF928A
:10267000CF93DF936B017C01D4DFEB01C114D10454
:10268000E104F10479F0EDD3CCDF6C1B7D0B683EE7
:102690007340A0F381E0C81AD108E108F108C851DD
:1026A000DC4FECCFDF91CF91FF90EF90DF90CF9098
:1026B0000895789484B5826084BD84B5816084BDBA
:1026C00085B5826085BD85B5816085BDEEE6F0E0AB
:1026D000808181608083E1E8F0E010828081826007
:1026E0008083808181608083E0E8F0E08081816088
:1026F0008083E1EBF0E0808184608083E0EBF0E0B8
:10270000808181608083E1E9F0E080818260808364
:10271000808181608083E0E9F0E080818160808356
:10272000E1EAF0E080818260808380818160808343
:10273000E0EAF0E0808181608083E1E2F1E0808185
:1027400082608083808181608083E0E2F1E080812B
:1027500081608083EAE7F0E080818460808380810B
:1027600082608083808181608083808180688083B3
:102770001092C100089590E0FC013197E231F1051B
:1027800008F04BC0E157FF4FC2C3809180008F77A4
:1027900003C0809180008F7D809380000895809198
:1027A0008000877FF9CF84B58F7702C084B58F7D95
:1027B00084BD08958091B0008F7703C08091B000F0
:1027C0008F7D8093B0000895809190008F7707C02F
:1027D000809190008F7D03C080919000877F8093CF
:1027E000900008958091A0008F7707C08091A0008D
:1027F0008F7D03C08091A000877F8093A000089503
:10280000809120018F7707C0809120018F7D03C0C8
:1028100080912001877F8093200108950F931F935B
:10282000CF93DF931F92CDB7DEB7282F30E0F901A9
:10283000E25BFC4F8491F901EC56FC4F1491F901D5
:10284000E652FC4F04910023C1F0882319F06983FC
:1028500092DF6981E02FF0E0EE0FFF1FE05EFB4F9B
:10286000A591B4919FB7F8948C91611103C0109514
:10287000812301C0812B8C939FBF0F90DF91CF915B
:102880001F910F910895FC01818D228D90E0805C55
:102890009F4F821B91098F7399270895FC01918D99
:1028A000828D981731F0828DE80FF11D858D90E0B3
:1028B00008958FEF9FEF0895FC01918D828D9817F9
:1028C00061F0828DDF01A80FB11D5D968C91928D14
:1028D0009F5F9F73928F90E008958FEF9FEF089511
:1028E00081E196E1892B39F080E090E0892B19F0A5
:1028F00098D1811125C080E090E0892B41F080E0E3
:1029000090E0892B21F00E94000081111CC080E022
:1029100090E0892B41F080E090E0892B21F00E942B
:102920000000811113C080E090E0892BA1F080E0CD
:1029300090E0892B81F00E94000081110AC0089567
:102940000E940000D8CF0E940000E1CF0E9400004A
:10295000EACF0C9400000895FC01848DDF01A80FDC
:10296000B11DA35ABF4F2C91848D90E001968F73B7
:102970009927848FA689B7892C93A089B1898C91D6
:1029800080648C93938D848D981306C00288F3899C
:10299000E02D80818F7D80830895CF93DF93EC01BC
:1029A000888D8823C1F0EA89FB89808185FD05C077
:1029B000A889B9898C9186FD0EC00FB607FCF5CFAA
:1029C000808185FFF2CFA889B9898C9185FFEDCFF1
:1029D000CE01C2DFE8CFDF91CF910895CF92DF9291
:1029E000FF920F931F93CF93DF931F92CDB7DEB764
:1029F0006C0181E0D60158968C9358975B969C9118
:102A00005B975C968C915C97981307C05096ED91FC
:102A1000FC915197808185FD2DC0F601038D10E05A
:102A20000F5F1F4F0F731127F02EF601848DF812E0
:102A300010C00FB607FCF9CFD6015096ED91FC916E
:102A40005197808185FFF1CFC601698385DF698158
:102A5000ECCF838DE80FF11DE35AFF4F6083D60161
:102A60005B960C935B975296ED91FC915397808106
:102A700080620CC0D6015696ED91FC915797608309
:102A80005096ED91FC91519780818064808381E024
:102A900090E00F90DF91CF911F910F91FF90DF9009
:102AA000CF900895BF92CF92DF92EF92FF92CF9393
:102AB000DF93EC016A017B01B22EE889F98982E09B
:102AC0008083411581EE58076105710599F060E03A
:102AD00079E08DE390E0A7019601F7D1215031090B
:102AE000410951095695479537952795211580E15C
:102AF000380790F0E889F989108260E874E88EE17F
:102B000090E0A7019601E1D1215031094109510915
:102B10005695479537952795EC85FD853083EE854D
:102B2000FF852083188EEC89FD89B082EA89FB89B4
:102B3000808180618083EA89FB89808188608083CD
:102B4000EA89FB89808180688083EA89FB898081AA
:102B50008F7D8083DF91CF91FF90EF90DF90CF90BA
:102B6000BF9008951F920F920FB60F9211240BB6CB
:102B70000F922F938F939F93EF93FF93E09106040F
:102B8000F09107048081E0910C04F0910D0482FD26
:102B900012C0908180910F048F5F8F732091100479
:102BA000821751F0E0910F04F0E0EA50FC4F958F4E
:102BB00080930F0401C08081FF91EF919F918F91CD
:102BC0002F910F900BBE0F900FBE0F901F90189576
:102BD0001F920F920FB60F9211240BB60F922F93E4
:102BE0003F934F935F936F937F938F939F93AF9395
:102BF000BF93EF93FF9386EF93E0AEDEFF91EF91EB
:102C0000BF91AF919F918F917F916F915F914F9104
:102C10003F912F910F900BBE0F900FBE0F901F9002
:102C2000189586EF93E02FDE21E0892B09F420E050
:102C3000822F08951092F9031092F80388EE93E022
:102C4000A0E0B0E08093FA039093FB03A093FC0311
:102C5000B093FD0389EF92E09093F7038093F6031E
:102C600085EC90E0909303048093020484EC90E060
:102C7000909305048093040480EC90E09093070403
:102C80008093060481EC90E09093090480930804FB
:102C900082EC90E090930B0480930A0486EC90E021
:102CA00090930D0480930C0410920F041092100462
:102CB00010921104109212040895CF92DF92EF92B5
:102CC000FF920F931F93CF93DF937C016A01EB0177
:102CD00000E010E00C151D0571F06991D701ED9130
:102CE000FC910190F081E02DC7011995892B19F015
:102CF0000F5F1F4FEFCFC801DF91CF911F910F9151
:102D0000FF90EF90DF90CF9008956115710581F0ED
:102D1000DB010D900020E9F7AD0141505109461B40
:102D2000570BDC01ED91FC910280F381E02D1994A9
:102D300080E090E00895E9CFDC01ED91FC910190F5
:102D4000F081E02D199465E073E0DFCF0F931F93BE
:102D5000CF93DF93EC01D9DF8C01CE01F4DF800F3C
:102D6000911FDF91CF911F910F9108958F929F92A4
:102D7000AF92BF92CF92DF92EF92FF920F931F9389
:102D8000CF93DF93CDB7DEB7A1970FB6F894DEBF30
:102D90000FBECDBF7C01C42EE52FCB01D22E19A2D0
:102DA00021E02D1510F02AE0D22E8E010F5D1F4F6D
:102DB0008D2C912CA12CB12C6C2D7E2FA501940172
:102DC00084D08C2DD29E80191124015011098A3093
:102DD00014F4805D01C0895CF80180832115310500
:102DE0004105510521F0C22EE32FCA01E5CFB801FC
:102DF000C7018BDFA1960FB6F894DEBF0FBECDBF23
:102E0000DF91CF911F910F91FF90EF90DF90CF90C6
:102E1000BF90AF909F908F9008952115310541F498
:102E2000DC01ED91FC910190F081E02D642F19946B
:102E30009DCF9A01462F50E060E070E0EECF9A01FE
:102E4000AB0160E070E0E9CF089533DCFDDF0E9464
:102E50005202C0E7D4E10E94A3022097E1F340DDD3
:102E6000FACF0895991B79E004C0991F961708F0CE
:102E7000961B881F7A95C9F780950895AA1BBB1BDE
:102E800051E107C0AA1FBB1FA617B70710F0A61B6A
:102E9000B70B881F991F5A95A9F780959095BC018B
:102EA000CD01089597FB072E16F4009406D077FD08
:102EB00008D0E4DF07FC05D03EF4909581959F4F44
:102EC0000895709561957F4F0895A1E21A2EAA1B6F
:102ED000BB1BFD010DC0AA1FBB1FEE1FFF1FA217CA
:102EE000B307E407F50720F0A21BB30BE40BF50BC7
:102EF000661F771F881F991F1A9469F76095709550
:102F0000809590959B01AC01BD01CF010895EE0F16
:102F1000FF1F0590F491E02D1994A29FB001B39F7B
:102F2000C001A39F700D811D1124911DB29F700DD2
:102F3000811D1124911D0895F0DFB7FF0895821BB4
:102F4000930B0895EADFA59F900DB49F900DA49F69
:102F5000800D911D11240895B7FFF4CFF3DF821B7C
:102F6000930B08950790F691E02D1994FB01DC0175
:102F700002C005900D9241505040D8F70895F89442
:022F8000FFCF81
:102F82000000930480000100000053756E646179B3
:102F92000000000000004D6F6E64617900000000C7
:102FA2000000547565736461790000000000576584
:102FB200646E6573646179000000546875727364AD
:102FC20061790000000046726964617900000000C6
:102FD2000000536174757264617900000000474E0D
:102FE200444B4954532044454E4559205345544C73
:102FF20045524900436F756C646E27742066696E92
:10300200642052544300525443206973204E4F545B
:103012002072756E6E696E672100202800292000DB
:103022002073696E6365206D69646E6967687420D8
:10303200312F312F31393730203D200073203D2090
:10304200006400206E6F77202B203764202B203302
:1030520030733A20000000000081095D1600000074
:103062000081095D1600000000360D0A0DDF0CE735
:103072000CFA0C090D00000000EE145D1643145CFE
:10308200144E14CD140D0A006E616E00696E660056
:063092006F7666002E00BF
:00000001FF
