:100000001CC1000039C1000037C1000035C100002B
:1000100033C1000031C100002FC100002DC100001C
:100020002BC1000029C1000027C1000025C100002C
:1000300023C1000021C100001FC100001DC100003C
:100040001BC1000019C1000017C1000015C100004C
:1000500013C1000011C100000FC10000C9C200009F
:100060000BC1000009C1000007C1000005C100006C
:1000700003C1000001C10000FFC00000FDC000007E
:10008000FBC00000F9C00000F7C00000F5C0000090
:10009000F3C00000F1C00000EFC00000EDC00000A0
:1000A000EBC00000E9C00000E7C00000E5C00000B0
:1000B000E3C00000E1C00000DFC00000DDC00000C0
:1000C000DBC00000D9C00000D7C00000D5C00000D0
:1000D000D3C00000D1C00000CFC00000CDC00000E0
:1000E000CBC0000091029202930294029502960204
:1000F00097029802990204040704F603FA03000425
:100100003E040B040F04150419041D0423042704E2
:100110002B043E0431043504390400000A0B0209A3
:100120000C0D0E0807030401000000000000000091
:1001300000000000000000000000000000000000BF
:10014000000000000000121110000000000000007C
:10015000000000000000000000000000000000009F
:1001600001021020200808102040102040800201C9
:1001700002010804020101020408102040808040AE
:1001800020100804020180040201804020100804AD
:10019000020108040201010204081020408001024B
:1001A0000408102040800505050507050808080813
:1001B000020202020A0A08080404040401010101FF
:1001C00001010101030303030303030304070707FA
:1001D0000C0C0C0C0C0C0C0C02020202060606069F
:1001E000060606060B0B0B0B0B0B0B0B000020007F
:1001F0002300260029002C002F00320000010000FF
:1002000003010601090100002200250028002B003F
:100210002E003100340002010000050108010B012D
:1002200000002100240027002A002D0030003300A8
:1002300001010000040107010A0111241FBECFEFD4
:10024000D1E2DEBFCDBF00E00CBF12E0A0E0B2E023
:10025000E4EDF9E000E00BBF02C007900D92AA3177
:10026000B107D9F722E0AAE1B2E001C01D92A532A0
:10027000B207E1F79BD3ACC3C3CE61E08091180213
:10028000FED261E080911602FAD261E08091140200
:10029000F6D261E080911202F2D261E08091100208
:1002A000EED261E080910E02EAD261E080910C0210
:1002B000E6D261E080910A02E2D261E08091080218
:1002C000DED261E080910602DAD261E08091040220
:1002D000D6D260E080910202D2D260E0809100022A
:1002E000CEC260E08091180203D361E080911602D3
:1002F000FFD261E080911402FBD260E08091120293
:10030000F7D260E080911002F3D260E080910E029B
:10031000EFD260E080910C02EBC261E080911802A4
:10032000E7D261E080911602E3D260E0809114028E
:10033000DFD261E080911202DBD261E08091100295
:10034000D7D260E080910E02D3D261E080910C029E
:10035000CFC261E080911802CBD261E08091160299
:10036000C7D261E080911402C3D261E08091120291
:10037000BFD260E080911002BBD260E080910E029B
:10038000B7D261E080910C02B3C260E080911802A4
:10039000AFD261E080911602ABD261E0809114028D
:1003A000A7D260E080911202A3D260E08091100297
:1003B0009FD261E080910E029BD261E080910C029D
:1003C00097C261E08091180293D260E0809116029A
:1003D0008FD261E0809114028BD261E08091120291
:1003E00087D260E08091100283D261E080910E029A
:1003F0007FD261E080910C027BC261E080911802A3
:1004000077D260E08091160273D261E0809114028D
:100410006FD261E0809112026BD261E08091100294
:1004200067D261E080910E0263D261E080910C029C
:100430005FC261E0809118025BD261E08091160298
:1004400057D261E08091140253D260E08091120291
:100450004FD260E0809110024BD260E080910E029A
:1004600047D260E080910C0243C261E080911802A3
:100470003FD261E0809116023BD261E0809114028C
:1004800037D261E08091120233D261E08091100294
:100490002FD261E080910E022BD261E080910C029C
:1004A00027C261E08091180223D261E08091160298
:1004B0001FD261E0809114021BD261E08091120290
:1004C00017D260E08091100213D261E080910E0299
:1004D0000FD261E080910C020BC261E080911802A2
:1004E00007D261E08091160203D261E0809114028C
:1004F000FFD161E080911202FBD161E08091100296
:10050000F7D161E080910E02F3D160E080910C029E
:10051000EFC101978930910568F48E589F4FFC0117
:1005200051C2DFCEFACE15CF30CF4BCF66CF81CFC1
:100530009CCFB7CFD2CF61E080910A02D9D160E0E1
:1005400080910802D5D160E080910602D1D160E0AF
:1005500080910402CDD180910202FFD1019739F040
:1005600080910002FAD1019709F03DC021C064E1F9
:1005700070E080E090E0A9D080911A0290911B0277
:1005800001968A3091052CF490931B0280931A02F5
:1005900004C010921B0210921A0280911A029091CC
:1005A0001B02B7DF80910202D8D10197D9F3D8CFCF
:1005B00064E170E080E090E088D080911A02909130
:1005C0001B02019710F489E090E090931B02809346
:1005D0001A0280911A0290911B029BDF8091000207
:1005E000BCD10197D9F380911A0290911B0291CF4F
:1005F0001F920F920FB60F9211242F933F938F9358
:100600009F93AF93BF9380911D0290911E02A09182
:100610001F02B091200230911C0223E0230F2D37DE
:1006200020F40196A11DB11D05C026E8230F0296F6
:10063000A11DB11D20931C0280931D0290931E02E8
:10064000A0931F02B0932002809121029091220278
:10065000A0912302B09124020196A11DB11D8093A7
:10066000210290932202A0932302B0932402BF910F
:10067000AF919F918F913F912F910F900FBE0F904F
:100680001F9018953FB7F894809121029091220213
:10069000A0912302B091240226B5A89B05C02F3F4C
:1006A00019F00196A11DB11D3FBF6627782F892F34
:1006B0009A2F620F711D811D911D42E0660F771FF9
:1006C000881F991F4A95D1F70895CF92DF92EF9234
:1006D000FF92CF93DF936B017C01D4DFEB01C11458
:1006E000D104E104F10479F06CD1CCDF6C1B7D0BFB
:1006F000683E7340A0F381E0C81AD108E108F10810
:10070000C851DC4FECCFDF91CF91FF90EF90DF909D
:10071000CF900895789484B5826084BD84B581605B
:1007200084BD85B5826085BD85B5816085BDEEE6F9
:10073000F0E0808181608083E1E8F0E010828081D8
:1007400082608083808181608083E0E8F0E0808146
:1007500081608083E1EBF0E0808184608083E0EB66
:10076000F0E0808181608083E1E9F0E08081826057
:100770008083808181608083E0E9F0E08081816016
:100780008083E1EAF0E08081826080838081816003
:100790008083E0EAF0E0808181608083E1E2F1E043
:1007A000808182608083808181608083E0E2F1E0EB
:1007B000808181608083EAE7F0E0808184608083CB
:1007C0008081826080838081816080838081806875
:1007D00080831092C100089590E0FC013197E231CE
:1007E000F10508F04BC0E558FF4FECC08091800048
:1007F0008F7703C0809180008F7D80938000089563
:1008000080918000877FF9CF84B58F7702C084B54F
:100810008F7D84BD08958091B0008F7703C0809153
:10082000B0008F7D8093B0000895809190008F7705
:1008300007C0809190008F7D03C080919000877FDA
:100840008093900008958091A0008F7707C08091D9
:10085000A0008F7D03C08091A000877F8093A000BF
:100860000895809120018F7707C0809120018F7DAE
:1008700003C080912001877F809320010895CF934A
:10088000DF9390E0FC01E05AFE4F2491FC01EA5511
:10089000FE4F8491882349F190E0880F991FFC0155
:1008A000E05EFD4FA591B4918A5F9D4FFC01C5911B
:1008B000D4919FB7611108C0F8948C912095822340
:1008C0008C93888182230AC0623051F4F8948C9111
:1008D000322F309583238C938881822B888304C0A8
:1008E000F8948C91822B8C939FBFDF91CF910895C8
:1008F0000F931F93CF93DF931F92CDB7DEB7282FAF
:1009000030E0F901E65EFE4F8491F901E05AFE4FB6
:100910001491F901EA55FE4F04910023C1F0882398
:1009200019F0698359DF6981E02FF0E0EE0FFF1FB6
:10093000EA5FFD4FA591B4919FB7F8948C91611136
:1009400003C01095812301C0812B8C939FBF0F9012
:10095000DF91CF911F910F910895CF93DF93282FAF
:1009600030E0F901E65EFE4F8491F901E05AFE4F56
:10097000D491F901EA55FE4FC491CC2389F081113D
:100980002BDFEC2FF0E0EE0FFF1FE451FE4FA5919F
:10099000B4912C912D2381E090E021F480E002C0FD
:1009A00080E090E0DF91CF9108950895B3DEFDDF00
:1009B00064DCC0E0D0E0BFDD2097E9F30E940000D6
:1009C000FACF0895EE0FFF1F0590F491E02D1994D2
:0409D000F894FFCFC9
:1009D4002700260024002300220021001C001B0005
:0A09E4001A00190018001700160091
:00000001FF
