:1000000007C2000036C2000034C2000032C2000045
:1000100030C200002EC200002CC200002AC2000024
:1000200028C2000026C2000024C2000022C2000034
:1000300020C200001EC200001CC200001AC2000044
:1000400018C2000016C2000014C2000012C2000054
:1000500010C200000EC200000CC200000C94820B03
:1000600008C2000006C2000004C2000002C2000074
:1000700000C20000FEC10000FCC10000FAC1000087
:10008000F8C10000F6C10000F4C10000F2C1000098
:10009000F0C10000EEC10000ECC10000EAC10000A8
:1000A000E8C10000E6C10000E4C10000E2C10000B8
:1000B000E0C10000DEC10000DCC10000DAC10000C8
:1000C000D8C10000D6C10000D4C10000D2C10000D8
:1000D000D0C10000CEC10000CCC10000CAC10000E8
:1000E000C8C100006D086F0872087408760885089A
:1000F0009908BA08BD08C7089A0C9D0C8C0C900C86
:10010000960CD40CA10CA50CAB0CAF0CB30CB90C19
:10011000BD0CC10CD40CC70CCB0CCF0C00000507D8
:100120002061000000000000005F000000070007E1
:1001300000147F147F14242A7F2A12231308646278
:1001400036495522500005030000001C22410000E2
:1001500041221C00082A1C2A0808083E08080050F2
:10016000300000080808080800606000002010083F
:1001700004023E5149453E00427F400042615149E0
:10018000462141454B311814127F1027454545390A
:100190003C4A494930017109050336494949360647
:1001A0004949291E00363600000056360000000876
:1001B0001422411414141414412214080002015191
:1001C0000906324979413E7E1111117E7F49494924
:1001D000363E414141227F4141221C7F49494941EC
:1001E0007F090901013E414151327F0808087F0023
:1001F000417F41002040413F017F081422417F4060
:100200004040407F0204027F7F0408107F3E41414E
:10021000413E7F090909063E4151215E7F091929A6
:1002200046464949493101017F01013F4040403F75
:100230001F2040201F7F2018207F631408146303B1
:1002400004780403615149454300007F41410204A1
:1002500008102041417F0000040201020440404098
:100260004040000102040020545454787F48444424
:10027000383844444420384444487F38545454184F
:10028000087E090102081454543C7F0804047800D5
:10029000447D40002040443D00007F102844004140
:1002A0007F40007C041804787C08040478384444B7
:1002B00044387C14141408081414187C7C080404B2
:1002C000084854545420043F4440203C4040207C83
:1002D0001C2040201C3C4030403C44281028440C4A
:1002E0005050503C4464544C4400083641000000D7
:1002F0007F0000004136080008082A1C08081C2A54
:100300000808000609090600000A0B02090C0D0E78
:1003100008070304010000000000000000000000C6
:1003200000000000000000000000000000000000CD
:10033000000000121110000000000000000000008A
:10034000000000000000000000000000000102109A
:1003500020200808102040102040800201020108DF
:10036000040201010204081020408080402010088F
:1003700004020180040201804020100804020108E8
:100380000402010102040810204080010204081048
:100390002040800505050507050808080802020237
:1003A000020A0A0808040404040101010101010110
:1003B000010303030303030303040707070C0C0CE7
:1003C0000C0C0C0C0C0202020206060606060606BF
:1003D000060B0B0B0B0B0B0B0B0000220025002850
:1003E000002B002E0031003400020100000501083E
:1003F000010B0100002100240027002A002D0030FD
:1004000000330001010000040107010A01003B095B
:1004100011241FBECFEFD1E2DEBFCDBF00E00CBF85
:1004200012E0A0E0B2E0E2E9FCE100E00BBF02C0B4
:1004300007900D92A033B107D9F722E0A0E3B2E014
:1004400001C01D92AF34B207E1F714E0C0E1D4E07F
:1004500000E006C022970109FE010BBF0E942F0E8B
:10046000CE30D10780E00807A9F70E94E60D0C9472
:10047000470EC6CD61E08FE10E94D50C61E08FE1AF
:100480000E940E0D61E080E20E94D50C60E080E2E7
:100490000E940E0D60E070E082E392E0E8D628E36F
:1004A00039E04FEF6CE171E082E392E0D5D56AE08C
:1004B00072E082E392E00C94810D41E060E082E31F
:1004C00092E08BD60E94CC0B28EE33E040E050E067
:1004D0000E94070EBA01A9012AE030E082E392E00F
:1004E0000C94D90DCF93DF93EC01C8D61B821A82EE
:1004F00084E292E0998388831F8218868FE7898738
:100500008FE38A871B861C861D861E86DF91CF910E
:1005100008952F923F924F925F926F927F928F92A7
:100520009F92AF92BF92CF92DF92EF92FF920F9382
:100530001F93CF93DF931F921F92CDB7DEB71C019D
:10054000162FD22EFE2CEC2C8F2D90E0840F911DB7
:10055000202F30E028173907C4F0242F277081E0BE
:1005600090E0022E01C0880F0A94EAF799249A9429
:10057000980E842F887F882EC42ECF0CEC2DE87F18
:100580007E2EAA24A394B12C49C02D2DC101D0D711
:1005900086C0E42DF0E0852D877002C0F595E795C3
:1005A0008A95E2F7752F7770E0FF07C09501072E57
:1005B00001C0220F0A94EAF7622A5394852D8770AE
:1005C00009F440C0773049F4452F487F612FC101BD
:1005D00096D6662DC101F5D6612C552D5F190515EE
:1005E000C0F6552E5F0C752F777055113CC0A9F0E1
:1005F0004FEF450F487F612FC1017A8380D6C1013B
:10060000B8D67A81F50101C0EE0F7A95EAF76E2F20
:10061000619568236629C101D4D61F5FD11608F4FD
:100620003EC0482D612FC1016AD6C101A2D6682EF5
:1006300069205C2C472D612FC10161D6C10199D67B
:10064000482ECBCFFFE3F51508F4BCCF452D487FEE
:10065000612FC10159837A8352D6C1018AD6482EAF
:100660007A815981AFCF8FEF9501072E01C0220FFC
:100670000A94EAF7E81202C0622A02C020956222B8
:10068000773059F4452F487F612FC101598337D600
:10069000662DC10196D6612C59815F5FA4CF0F9062
:1006A0000F90DF91CF911F910F91FF90EF90DF900E
:1006B000CF90BF90AF909F908F907F906F905F9002
:1006C0004F903F902F9008952F923F924F925F92BC
:1006D0006F927F928F929F92AF92BF92CF92DF9252
:1006E000EF92FF920F931F93CF93DF9300D0CDB77C
:1006F000DEB79B838A83162FD42E922EFE2CEC2CF1
:100700008F2D90E0840F911D202F30E0281739079E
:10071000DCF0202F27702F5F81E090E0022E01C0D7
:10072000880F0A94EAF7782E7194802F887F898346
:10073000C02ECF18EC2DE87F5E2EAA24A394B12CF6
:10074000882483948F185DC0292D8A819B81F0D6DF
:1007500094C02A94822D8770873051F4422D487FAF
:10076000612F8A819B81CBD58A819B8102D6682E9D
:100770002D1420F1E62DF0E0822D877002C0F59552
:10078000E7958A95E2F7332D3770E0FF07C0C50182
:10079000032E01C0880F0A94EAF7482A31110BC0D2
:1007A000432D487F612F8A819B81A9D5642D8A8141
:1007B0009B8107D6412C3A942110CBCF2F2C632C50
:1007C0006F18462D420D211035C0482D430D842F42
:1007D0008770282EA9F0487F612F8A819B818FD551
:1007E0008A819B81C6D59501022C01C0220F0A94F3
:1007F000EAF76FEF620F682364298A819B81E1D554
:100800001F5F911608F439C04981612F8A819B814D
:1008100076D58A819B81ADD5482E47202C2C452D3D
:10082000612F8A819B816BD58A819B81A2D5682E9D
:10083000302E9ECF642F6770FFEFEF1208C0C50106
:10084000062E01C0880F0A94EAF7482A08C09501CD
:10085000062E01C0220F0A94EAF720954222611168
:100860000AC0487F612F8A819B8149D5642D8A8186
:100870009B81A7D5412C2A94A4CF0F900F900F9065
:10088000DF91CF911F910F91FF90EF90DF90CF906C
:10089000BF90AF909F908F907F906F905F904F90A0
:1008A0003F902F900895CF92EF920F931F93CF9385
:1008B000DF93EC016A3009F084C08D819E81E09164
:1008C0003002F091310203961995182FE091300211
:1008D000F09131028D819E81199581110BC08D811E
:1008E0009E81E0913002F09131020196199581309C
:1008F00009F469C06C852985621760F44D8581E033
:100900009C819F3F09F480E0E82EE194012F040FC1
:10091000CE010ED68B85ED84212F30E080FD2BC0DB
:100920000A85220F331F2E0D311D802F90E02817CE
:100930003907E4F08E85811103C081E08E8745C0C0
:1009400081E09C819F3F09F480E0C82EC194E3942C
:10095000E01A812F880FE80E298548856F81CE0126
:10096000D8DD8F818C878A85811B28C08F818C87F9
:10097000E394E10E0CC048856E2D70E0240F311D0C
:100980002617370734F48F818C87EA94E11AED86B5
:1009900016C08E85882389F281E09C819F3F09F4EF
:1009A00080E0C82EC194E394E41AE10E0A852985FB
:1009B0006F81CE0189DE8F818C8788858D8781E06C
:1009C00004C080E002C0115095CFDF91CF911F91FC
:1009D0000F91EF90CF9008952F923F924F925F9298
:1009E0006F927F928F929F92AF92BF92CF92DF923F
:1009F000EF92FF920F931F93CF93DF93CDB7DEB7A4
:100A000066970FB6F894DEBF0FBECDBF9E8B8D8B61
:100A1000162FDC0115968D919C911697892B19F450
:100A200080E090E0FAC2603228F1ED89FE8985818C
:100A30009681E0913002F091310203961995D82EFB
:100A4000AD89BE8915968D919C911697E0913002E3
:100A5000F091310204961995C82EED89FE898581A1
:100A60009681E0913002F0913102059619951C159E
:100A700038F4D6CF8D899E8916DF8823B1F2CBC298
:100A8000412F50E0E82EF12C97012C0D311D42171B
:100A9000530734F62D2D30E03E832D83590137E086
:100AA000A30EB11CF3E0B594A794FA95E1F71C19D5
:100AB000C12EE0913002F0913102AD89BE891596C8
:100AC0008D919C9116971995811156C2ED89FE89D9
:100AD00085819681E0913002F0913102019619955D
:100AE000823008F049C2AD89BE8915968D919C91DE
:100AF0001697E0913002F091310202961995E82E96
:100B00001A9DC0011B9D900D1124E89E8001E99E55
:100B1000100D11240A5F1F4F912CEE2009F480CF95
:100B2000ED89FE898685882339F06AE0CF0154DF9C
:100B3000AD89BE891E961C92ED89FE8983856E2C37
:100B4000712C81FF15C0F48485819681E09130027B
:100B5000F09131020296199590E08619970997FD58
:100B60000196959587958F0DAD89BE891C968C93BE
:100B7000ED89FE8984855301A80EB11CE0913002F5
:100B8000F0913102AD89BE8915968D919C91169791
:100B9000199581110DC0ED89FE8985819681E091BD
:100BA0003002F09131020196199591E0813009F0FF
:100BB00090E0A91AB108AD89BE8919968C91199750
:100BC00090E08A159B054CF56AE0CD0105DFED89C3
:100BD000FE898685882339F06AE0CF01FDDEAD8984
:100BE000BE891E961C92ED89FE89838581FF15C002
:100BF000F48485819681E0913002F0913102029671
:100C0000199590E08619970997FD01969595879516
:100C10008F0DAD89BE891C968C93E0913002F091C6
:100C20003102AD89BE8915968D919C9116971995C3
:100C30008111D3C1ED89FE8985819681E0913002D1
:100C4000F091310201961995813009F0C6C1AD2CA1
:100C5000F12C28E030E08D2D8770281B31093A8374
:100C600029839301200F311F388B2F872A2D30E0E5
:100C70003C832B8322242394312CFA1408F040C1A6
:100C8000AD89BE891D96BC901D97BF0C4B2D487F2A
:100C90001C966C911C97CD0132D38F2D869586952D
:100CA00086958E9D9001112438872F83412C512CDD
:100CB0008F2D90E09C01287F4D815E81421B530B5C
:100CC0005A8749872F8538894F815885240F351FCA
:100CD0003C872B872B813C81281B390B3E872D8736
:100CE0002B2D2770C22E4E1408F0B3C0FD1420F532
:100CF0008F819885800F911F840D951DAD89BE89C8
:100D000015964D915C911697E0913002F091310269
:100D1000840F951F1995882E992079F029853A8599
:100D20002830310554F490E0098002C095958795EC
:100D30000A94E2F7882E01C0812CAD89BE891496F1
:100D40008C91811101C080943C2D8B2D8F2987704F
:100D500089F44D855E854830510564F0AD89BE89C2
:100D60001B968C911B9782FF03C0CD0102D3882A6A
:100D7000682D68C08D899E893B8BFBD2C82E2F2D94
:100D80006B857C85640D751D3B89422F4770882DCE
:100D900090E0042E02C0959587950A94E2F780FFB3
:100DA00008C0C101032E01C0880F0A94EAF7C82ABF
:100DB00008C0C101032E01C0880F0A94EAF780958C
:100DC000C822473061F5ED89FE8985819681E091E1
:100DD0003002F0913102860F971F298B3B8B6C8B71
:100DE0007A8B1995882E29893B896C897A89992073
:100DF00079F08D819E81821B910909974CF4882D91
:100E000090E0098002C0959587950A94E2F7882EB4
:100E1000AD89BE8914968C91811101C080942F5F99
:100E20003F5F383051F4ED89FE89838582FF09C028
:100E30008D899E899ED2C82A04C02A1508F4A5CFA0
:100E4000F2CF6C2D8D899E89BCD2FFEF4F1A5F0ABD
:100E500047CFE0913002F0913102AD89BE891596FD
:100E60008D919C911697199581110CC0ED89FE8981
:100E700085819681E0913002F091310201961995B9
:100E80008130D1F14F2C512CC11007C08B819C8136
:100E90008419950908970CF0A8C08D899E8969D29C
:100EA000CC2009F49EC0B1010C2C01C0660F0A943D
:100EB000EAF761502B813C8124193509283031052E
:100EC0004CF4A10102C0440F551F2A95E2F79A0184
:100ED0002195622BAD89BE8914969C91911183C096
:100EE0006095682BAD89BE891B968C911B9782FDFE
:100EF00084C08D899E8965D2FC18B8E0FB0EBDCEFA
:100F0000ED89FE8984858E0D8487838581FF19C0D4
:100F100085819681E0913002F09131020296199517
:100F2000AD89BE891C962C912E19280F90E0861948
:100F3000970997FD019695958795281BED89FE8960
:100F40002487E0913002F0913102AD89BE89159677
:100F50008D919C9116971995811158C0ED89FE8944
:100F600085819681E0913002F091310201961995C8
:100F7000813009F04BC04FC006E010E0812C912C6D
:100F8000AD89BE8915968D919C911697E09130029E
:100F9000F09131022AEF200F2C1540F4800F911FA1
:100FA0001995880E911C0F5F1F4FEACF8A9C900104
:100FB0008B9C300D9A9C300D112487010A5F1F4FC6
:100FC000020F131F2C2D30E02A5F3F4F820F931F1B
:100FD0001995E82E99249394A0CDAA24A394AD0C3E
:100FE00037CE60E067CF68237DCF61E0ED89FE8971
:100FF0008481811160E0619575CF6F3F09F479CFED
:10100000CD016C8BB6D16C89682B73CFED89FE89CD
:1010100084858F5F848781E090E066960FB6F894B0
:10102000DEBF0FBECDBFDF91CF911F910F91FF901B
:10103000EF90DF90CF90BF90AF909F908F907F9078
:101040006F905F904F903F902F9008956D3009F012
:10105000C3CC81E090E00895FC01768365833093F2
:10106000310220933002448308951F93CF93DF937E
:10107000EC018D819E810097D9F0E0913002F091D2
:10108000310203961995182FE0913002F091310248
:101090008D819E81199581110DC08D819E81E09178
:1010A0003002F091310201961995813019F403C094
:1010B00010E001C01F5F812FDF91CF911F91089534
:1010C0000F931F93CF93DF93EC016A30710508F003
:1010D00076C0FB01EE58FF4FBCC56F8101C068852B
:1010E00070E075C06985FCCF6A85FACF8D819E81DD
:1010F000892B09F464C0098510E08F81081B110950
:101100000F5F1F4F66E070E00EC08D819E81892BBE
:1011100009F455C00A8510E08885081B11090F5F86
:101120001F4F67E070E0CE01CBDFBC01C8015CD58A
:101130004EC08D819E81009709F441C0E09130023C
:10114000F091310202961995082F10E0E0913002DB
:10115000F09131028D819E811995811133C08D816D
:101160009E81E0913002F091310201961995882319
:1011700059F128C060E079DF08C08D819E81E0913F
:101180003002F091310204961995682FA9CF8D8114
:101190009E81E0913002F091310204961995182F4A
:1011A0008D819E81E0913002F09131020596199572
:1011B000682F70E0610F711D6150710908C060E017
:1011C00070E005C0B80103C0B8016F5F7F4FCB016D
:1011D000DF91CF911F910F910895EF92FF920F939E
:1011E0001F93CF93DF931F92CDB7DEB77C01162FED
:1011F000FC0185819681892B29F166E070E0C701A9
:1012000049835EDF082F67E070E0C70159DFF7010F
:101210002781322F109F300D11243487908549810A
:10122000F92F489FF00D11248F2FF70185874185F5
:10123000341718F43285831718F0F701248795873F
:10124000F70116860F90DF91CF911F910F91FF90BC
:10125000EF900895CF93DF93EC0144D98CE292E0B4
:101260009983888310924502DF91CF910895F8C148
:10127000FC018491089582E392E0ECCF08956130FF
:1012800019F44498439A0895449A43980895F7DFCF
:1012900011B88FEF82B9429A4198409AC89500C020
:1012A00080B140980895EBDF11B8429A4198409A76
:1012B000C89500C00799FECF4098089560914102FB
:1012C0006295669566956370EEDF429A419A00C01A
:1012D000409AC89500C080B140980895CF93C62F1A
:1012E000642FE1DF429841988FEF81B9C2B900C005
:1012F000409AC895C89500004098CF9108950F93E3
:101300001F93CF93DF93EC01162F80914102681356
:1013100004C080914202481739F117FD25C04034BE
:1013200018F51093410240934202012F0295069551
:1013300006950370642F669566956695E02FF0E03C
:10134000ED5BFD4F8081681729F06083686B402F4B
:10135000CE01C4DF612F6F736064402FCE01DF9137
:10136000CF911F910F91BACFDF91CF911F910F9124
:101370000895EF92FF921F93CF93DF931F92CDB703
:10138000DEB77C016091410267FD13C0698396DF7F
:10139000C70194DF182F8091450269818111109552
:1013A0008FEF8093410240914202C701A8DF812F55
:1013B00001C080E00F90DF91CF911F91FF90EF90DF
:1013C00008958F929F92BF92CF92DF92EF92FF92F9
:1013D0000F931F93CF93DF931F92CDB7DEB74C01CE
:1013E000062FD0904102D7FC96C0D294D694D694C2
:1013F00083E0D82230914202377009F459C0C40109
:101400003983B7DFC82E6D2DC4014DDF4298419A54
:101410008FEF81B900C0409A10E03981E32EF12CA2
:10142000C80102C0880F991F3A95E2F79C012C2948
:10143000809145028111209522B9C895C895000078
:101440004098C09042022C2D30E0285F3F4F287F0B
:101450002034310544F548E04C0D487F609141024D
:10146000C4014DDFC40185DFB82E6D2DC4011BDF23
:101470004298419A8FEF81B900C0409A28E030E04D
:101480002E193F09F80102C0F595E7952A95E2F774
:101490009F012B29809145028111209522B9C89581
:1014A000C89500004098609141026F5F4C2D25C0A7
:1014B0006D2DC401F8DE4298419A8FEF81B9809179
:1014C00045028111009500C0409A02B9C895C8959F
:1014D00000004098609141026F5F60934102962F37
:1014E00092959695969593709D15A9F067FD13C0FA
:1014F0009FEF9093410240914202C4010F90DF910F
:10150000CF911F910F91FF90EF90DF90CF90BF9000
:101510009F908F90F4CE0F90DF91CF911F910F91FC
:10152000FF90EF90DF90CF90BF909F908F900895A5
:101530007F928F929F92AF92BF92CF92DF92EF9263
:10154000FF920F931F93CF93DF93EC01F62E122F90
:10155000041B0F5F161B1F5F542F5770942E951A94
:10156000C02ED12C88E090E09C01251B3109C216C9
:10157000D30664F49C012C193D098FEF90E002C062
:10158000959587952A95E2F7802E04C098E0892EDC
:10159000851A8FEFA82E01C0AA0C5A95EAF77A2C6B
:1015A000492D6F2DCE01ABDEB12CA094B11668F49D
:1015B000CE01DFDE9FEF682FE91202C0672901C06C
:1015C0006A21CE01FEDEB394F1CF8918482D490D72
:1015D000842F90E09C01295F3F4F2C153D0574F44A
:1015E00088E0980E492D6F2DCE0189DEB12CB11601
:1015F00068F76E2DCE01E5DEB394F9CF401710F5F4
:10160000C81AD90A8FEF90E00C2C01C0880F0A94F9
:10161000EAF7D82ED09448E0490D6F2DCE016FDE49
:1016200000E0FD2CF094011768F4CE01A2DE9FEFDC
:10163000682FE91202C06D2901C06F21CE01C1DE01
:101640000F5FF1CFDF91CF911F910F91FF90EF903E
:10165000DF90CF90BF90AF909F908F907F90089534
:10166000EF92FF920F931F93CF93DF93EC01399A80
:101670003A9A389A40983C9A44983B9A43984298B0
:1016800041988FEF8093410280934202609345021C
:1016900062E370E080E090E0AED003E412E0F12C71
:1016A000EE24EA946F2DCE01F2DD84FD1FC087FD8C
:1016B00020C0F801E1928F014F2D6FE3CE010EDEC5
:1016C0004F2D60ECCE010ADEF394F2E0FF12EACF78
:1016D000E12C0FE32FE740E060E0CE0129DF40E09E
:1016E00060E0CE010CDE80E090E005C082E090E09A
:1016F00002C081E090E0DF91CF911F910F91FF90A8
:10170000EF9008951F920F920FB60F9211242F930E
:101710003F938F939F93AF93BF9380914702909194
:101720004802A0914902B0914A023091460223E05A
:10173000230F2D3720F40196A11DB11D05C026E809
:10174000230F0296A11DB11D2093460280934702EC
:1017500090934802A0934902B0934A0280914B02B1
:1017600090914C02A0914D02B0914E020196A11DA4
:10177000B11D80934B0290934C02A0934D02B09305
:101780004E02BF91AF919F918F913F912F910F90FA
:101790000FBE0F901F9018952FB7F89460914702D5
:1017A000709148028091490290914A022FBF08959A
:1017B0003FB7F89480914B0290914C02A0914D025A
:1017C000B0914E0226B5A89B05C02F3F19F0019697
:1017D000A11DB11D3FBF6627782F892F9A2F620F59
:1017E000711D811D911D42E0660F771F881F991F93
:1017F0004A95D1F70895CF92DF92EF92FF92CF935F
:10180000DF936B017C01D4DFEB01C114D104E1044F
:10181000F10479F0E8D1CCDF6C1B7D0B683E73409E
:10182000A0F381E0C81AD108E108F108C851DC4FE3
:10183000ECCFDF91CF91FF90EF90DF90CF900895A4
:10184000789484B5826084BD84B5816084BD85B59B
:10185000826085BD85B5816085BDEEE6F0E0808162
:1018600081608083E1E8F0E0108280818260808383
:10187000808181608083E0E8F0E080818160808306
:10188000E1EBF0E0808184608083E0EBF0E0808138
:1018900081608083E1E9F0E08081826080838081E3
:1018A00081608083E0E9F0E0808181608083E1EA0B
:1018B000F0E0808182608083808181608083E0EAC3
:1018C000F0E0808181608083E1E2F1E080818260EC
:1018D0008083808181608083E0E2F1E080818160AB
:1018E0008083EAE7F0E08081846080838081826089
:1018F0008083808181608083808180688083109272
:10190000C100089590E0FC013197E231F10508F043
:101910004BC0E458FF4F9DC1809180008F7703C07A
:10192000809180008F7D8093800008958091800059
:10193000877FF9CF84B58F7702C084B58F7D84BD52
:1019400008958091B0008F7703C08091B0008F7DA3
:101950008093B0000895809190008F7707C08091A8
:1019600090008F7D03C080919000877F80939000CE
:1019700008958091A0008F7707C08091A0008F7D8F
:1019800003C08091A000877F8093A000089580917C
:1019900020018F7707C0809120018F7D03C0809147
:1019A0002001877F809320010895CF93DF9390E0FB
:1019B000FC01E35BFC4F2491FC01ED56FC4F84914C
:1019C000882349F190E0880F991FFC01ED50FC4FEE
:1019D000A591B49187529C4FFC01C591D4919FB7BA
:1019E000611108C0F8948C91209582238C93888192
:1019F00082230AC0623051F4F8948C91322F3095D2
:101A000083238C938881822B888304C0F8948C91E3
:101A1000822B8C939FBFDF91CF9108950F931F93DB
:101A2000CF93DF931F92CDB7DEB7282F30E0F901B7
:101A3000E95FFC4F8491F901E35BFC4F1491F901DC
:101A4000ED56FC4F04910023C1F0882319F06983FF
:101A500059DF6981E02FF0E0EE0FFF1FE752FC4FE6
:101A6000A591B4919FB7F8948C91611103C0109522
:101A7000812301C0812B8C939FBF0F90DF91CF9169
:101A80001F910F910895CF92DF92EF92FF920F93E3
:101A90001F93CF93DF937C016A01EB0100E010E01C
:101AA0000C151D0571F06991D701ED91FC91019024
:101AB000F081E02DC7011995892B19F00F5F1F4F99
:101AC000EFCFC801DF91CF911F910F91FF90EF9061
:101AD000DF90CF9008956115710581F0DB010D90C5
:101AE0000020E9F7AD0141505109461B570BDC01BD
:101AF000ED91FC910280F381E02D199480E090E05B
:101B00000895E9CF8F929F92AF92BF92CF92DF92CA
:101B1000EF92FF920F931F93CF93DF93CDB7DEB772
:101B2000A1970FB6F894DEBF0FBECDBF7C01C42EC7
:101B3000E52FCB01D22E19A221E02D1510F02AE0BD
:101B4000D22E8E010F5D1F4F8D2C912CA12CB12C0C
:101B50006C2D7E2FA50194015AD08C2DD29E801918
:101B60001124015011098A3014F4805D01C0895C90
:101B7000F8018083211531054105510521F0C22E60
:101B8000E32FCA01E5CFB801C701A5DFA1960FB6C3
:101B9000F894DEBF0FBECDBFDF91CF911F910F91A3
:101BA000FF90EF90DF90CF90BF90AF909F908F907D
:101BB00008952115310541F4DC01ED91FC9101906E
:101BC000F081E02D642F19949DCF089539DEFDDF5B
:101BD0000E943A02C0E0D0E00E945D022097E1F34B
:101BE0000E940000F9CF089597FB072E16F4009489
:101BF00006D077FD08D037D007FC05D03EF490958D
:101C000081959F4F0895709561957F4F0895A1E24A
:101C10001A2EAA1BBB1BFD010DC0AA1FBB1FEE1F66
:101C2000FF1FA217B307E407F50720F0A21BB30BB1
:101C3000E40BF50B661F771F881F991F1A9469F72D
:101C400060957095809590959B01AC01BD01CF0189
:101C50000895EE0FFF1F0590F491E02D1994079061
:101C6000F691E02D1994AA1BBB1B51E107C0AA1FD6
:101C7000BB1FA617B70710F0A61BB70B881F991F2D
:101C80005A95A9F780959095BC01CD010895F894D7
:021C9000FFCF84
:101C920000004F02800001000000474E444B4954AF
:101CA200532044454E4559205345544C4552490012
:101CB200000000002608430D000000002608430D26
:00000001FF
