:1000000007C1000033C1000031C100002FC1000052
:100010002DC100002BC1000029C1000027C1000034
:1000200025C1000023C1000021C100001FC1000044
:100030001DC100001BC1000019C1000017C1000054
:1000400015C1000013C1000011C100000FC1000064
:100050000DC100000BC1000009C100007DC20000FD
:1000600005C1000003C1000001C10000FFC0000085
:10007000FDC00000FBC00000F9C00000F7C0000098
:10008000F5C00000F3C00000F1C00000EFC00000A8
:10009000EDC00000EBC00000E9C00000E7C00000B8
:1000A000E5C00000E3C00000E1C00000DFC00000C8
:1000B000DDC00000DBC00000D9C00000D7C00000D8
:1000C000D5C00000D3C00000D1C00000CFC00000E8
:1000D000CDC00000CBC00000C9C00000C7C00000F8
:1000E000C5C00000E803EB03DA03DE03E4032204E7
:1000F000EF03F303F903FD03010407040B040F04EA
:100100002204150419041D0400000A0B02090C0D39
:100110000E080703040100000000000000000000BA
:1001200000000000000000000000000000000000CF
:10013000000000001211100000000000000000008C
:1001400000000000000000000000000000000102AC
:1001500010202008081020401020408002010201D9
:100160000804020101020408102040808040201091
:1001700008040201800402018040201008040201EA
:100180000804020101020408102040800102040852
:10019000102040800505050507050808080802022B
:1001A00002020A0A08080404040401010101010111
:1001B00001010303030303030303040707070C0CF4
:1001C0000C0C0C0C0C0C02020202060606060606BB
:1001D00006060B0B0B0B0B0B0B0B00002200250074
:1001E00028002B002E003100340002010000050120
:1001F00008010B0100002100240027002A002D0027
:100200003000330001010000040107010A015F0111
:1002100011241FBECFEFD1E2DEBFCDBF00E00CBF87
:1002200012E0A0E0B2E0EEE6FBE000E00BBF02C0AF
:1002300007900D92AE31B107D9F722E0AEE1B2E0FE
:1002400001C01D92A134B207E1F712E0C0E1D2E093
:1002500000E005C022970109FE010BBF82D4CE3019
:10026000D10780E00807B1F748D47FC4C9CE20E0A9
:1002700042E060E180E292E0C5D063E072E080E2BB
:1002800092E08DC320E042E060E180E292E0BAD0EB
:100290006EE072E080E292E082D3809100025BD255
:1002A00090931F0280931E024AE050E0BC0180E25E
:1002B00092E01BD464EF71E080E090E0BAC1CF928D
:1002C000EF920F938DE1C82E9CE1E92E0BE12AE11C
:1002D00045E264E280E292E01BD10F91EF90CF9073
:1002E0000895CF93DF93EC0160E08E81E5D281E049
:1002F00090E0C4D161E08E81DFD281E090E0BED198
:1003000060E08E81D9D284E690E0DF91CF91B6C1D2
:10031000EF92FF920F931F93CF93DF938C01C0E076
:10032000D0E0E62EF12CB7010C2E02C07595679532
:100330000A94E2F76170F801EC0FFD1F8781BCD2CF
:100340002196C430D10579F7C801DF91CF911F9173
:100350000F91FF90EF90C5CFEF92FF920F931F93F5
:10036000CF93DF938C01C0E0D0E0E62EF12CB701F3
:100370000C2E02C0759567950A94E2F76170F8013A
:10038000EC0FFD1F878198D22196C830D10579F7EF
:10039000C801DF91CF911F910F91FF90EF90A1CFF6
:1003A0001F93CF93DF93EC01162F642F8C8184D29F
:1003B0008D818F3F11F060E07FD28F85612F84FFA8
:1003C00005C0CE01DF91CF911F91C6CF70E084E0D0
:1003D000759567958A95E1F7CE019ADF612FCE0179
:1003E000DF91CF911F9194CF40E0DACF61E0FCDF45
:1003F00080ED97E043C1FC016089262F2460208BAB
:100400006C60F2CF0F931F93CF93DF93EC014230D8
:1004100018F08F8588608F874B8B1C8A80E48D8BCA
:100420006E8B70E0605C7F4F6F8B222329F0413030
:1004300019F48F8584608F8761E08C8104D28D816F
:100440008F3F11F061E0FFD161E08E81FCD100E0CF
:1004500010E08F8584FF03C088E090E002C084E054
:1004600090E0081719074CF4FE01E00FF11F61E05E
:100470008781E9D10F5F1F4FECCF80E593ECFED071
:1004800060E08C8119D260E08E8116D28D818F3F21
:1004900011F060E011D26F8564FD16C063E0CE01FB
:1004A00037DF84E991E1EAD063E0CE0131DF84E90E
:1004B00091E1E4D063E0CE012BDF86E990E0DED06D
:1004C00062E0CE0125DF11C06062CE018DDF84E9DC
:1004D00091E1D4D06F856062CE0186DF86E990E03D
:1004E000CDD06F856062CE017FDF6F856062CE0107
:1004F0007BDF84E0888BCE017EDFCE0177DF82E078
:10050000898B66E0CE01DF91CF911F910F916CCF67
:10051000CF92EF920F93FC01138212828AE192E054
:100520009183808364838FEF85834683278300874D
:10053000E186C2861386148615861686178620E005
:1005400041E060E1CF010F91EF90CF905BCF41E0B0
:1005500027DF81E090E008951F920F920FB60F926F
:1005600011242F933F938F939F93AF93BF938091C9
:10057000390290913A02A0913B02B0913C02309135
:10058000380223E0230F2D3720F40196A11DB11D61
:1005900005C026E8230F0296A11DB11D2093380245
:1005A0008093390290933A02A0933B02B0933C02AD
:1005B00080913D0290913E02A0913F02B091400295
:1005C0000196A11DB11D80933D0290933E02A09320
:1005D0003F02B0934002BF91AF919F918F913F91A5
:1005E0002F910F900FBE0F901F9018953FB7F89462
:1005F00080913D0290913E02A0913F02B091400255
:1006000026B5A89B05C02F3F19F00196A11DB11D6D
:100610003FBF6627782F892F9A2F620F711D811D8A
:10062000911D42E0660F771F881F991F4A95D1F7E9
:100630000895CF92DF92EF92FF92CF93DF936B01F9
:100640007C01D4DFEB01C114D104E104F10479F0A1
:100650005FD2CCDF6C1B7D0B683E7340A0F381E062
:10066000C81AD108E108F108C851DC4FECCFDF917E
:10067000CF91FF90EF90DF90CF9008958230910559
:1006800038F0880F991F880F991F05970197F1F788
:100690000895789484B5826084BD84B5816084BDFA
:1006A00085B5826085BD85B5816085BDEEE6F0E0EB
:1006B000808181608083E1E8F0E010828081826047
:1006C0008083808181608083E0E8F0E080818160C8
:1006D0008083E1EBF0E0808184608083E0EBF0E0F8
:1006E000808181608083E1E9F0E0808182608083A5
:1006F000808181608083E0E9F0E080818160808397
:10070000E1EAF0E080818260808380818160808383
:10071000E0EAF0E0808181608083E1E2F1E08081C5
:1007200082608083808181608083E0E2F1E080816B
:1007300081608083EAE7F0E080818460808380814B
:1007400082608083808181608083808180688083F3
:100750001092C1000895863308F0865320917B00E3
:10076000982F9870277F922B90937B008770209111
:10077000020290E4299F90011124822B80937C0037
:1007800080917A00806480937A0080917A0086FD5F
:10079000FCCF809178002091790090E0922B089511
:1007A00090E0FC013197E231F10508F04BC0EE58C2
:1007B000FF4FD1C1809180008F7703C0809180006E
:1007C0008F7D80938000089580918000877FF9CF8E
:1007D00084B58F7702C084B58F7D84BD08958091E4
:1007E000B0008F7703C08091B0008F7D8093B00000
:1007F0000895809190008F7707C0809190008F7D41
:1008000003C080919000877F80939000089580912D
:10081000A0008F7707C08091A0008F7D03C08091DA
:10082000A000877F8093A0000895809120018F779A
:1008300007C0809120018F7D03C080912001877FB8
:10084000809320010895CF93DF9390E0FC01E25B59
:10085000FE4F2491FC01EC56FE4F8491882349F110
:1008600090E0880F991FFC01EC50FE4FA591B491C8
:1008700086529E4FFC01C591D4919FB7611108C06B
:10088000F8948C91209582238C93888182230AC0CE
:10089000623051F4F8948C91322F309583238C93ED
:1008A0008881822B888304C0F8948C91822B8C934E
:1008B0009FBFDF91CF9108950F931F93CF93DF9345
:1008C0001F92CDB7DEB7282F30E0F901E85FFE4F69
:1008D0008491F901E25BFE4F1491F901EC56FE4F51
:1008E00004910023C1F0882319F0698359DF6981DD
:1008F000E02FF0E0EE0FFF1FE652FE4FA591B491FE
:100900009FB7F8948C91611103C01095812301C0A9
:10091000812B8C939FBF0F90DF91CF911F910F91EF
:100920000895CF92DF92EF92FF920F931F93CF9390
:10093000DF937C016A01EB0100E010E00C151D055E
:1009400071F06991D701ED91FC910190F081E02D5A
:10095000C7011995892B19F00F5F1F4FEFCFC80101
:10096000DF91CF911F910F91FF90EF90DF90CF908B
:1009700008956115710581F0DB010D900020E9F704
:10098000AD0141505109461B570BDC01ED91FC9123
:100990000280F381E02D199480E090E00895E9CF82
:1009A000DC01ED91FC910190F081E02D19948F9282
:1009B0009F92AF92BF92CF92DF92EF92FF920F93EE
:1009C0001F93CF93DF93CDB7DEB7A1970FB6F894FF
:1009D000DEBF0FBECDBF7C01C42EE52FCB01D22ED2
:1009E00019A221E02D1510F02AE0D22E8E010F5D04
:1009F0001F4F8D2C912CA12CB12C6C2D7E2FA5017D
:100A0000940187D08C2DD29E801911240150110998
:100A10008A3014F4805D01C0895CF801808321155F
:100A200031054105510521F0C22EE32FCA01E5CF62
:100A3000B801C7019EDFA1960FB6F894DEBF0FBEC6
:100A4000CDBFDF91CF911F910F91FF90EF90DF907D
:100A5000CF90BF90AF909F908F900895CF92DF92EC
:100A6000EF92FF920F931F93CF93DF93EC016A01F4
:100A70007B012115310579F4E881F9810190F0813C
:100A8000E02D642FDF91CF911F910F91FF90EF9098
:100A9000DF90CF9019942A303105D9F477FF18C030
:100AA0006DE27EDF8C0144275527BA014C195D09A0
:100AB0006E097F092AE0CE017ADF800F911FDF9156
:100AC000CF911F910F91FF90EF90DF90CF900895FD
:100AD0002AE0B701A601CE01DF91CF911F910F91BE
:100AE000FF90EF90DF90CF9062CF9A01AB01662725
:100AF00057FD6095762FB2CF0895CBDDFDDFB7DBD4
:100B0000C0E0D0E0BFDB2097E9F30E940000FACFFD
:100B10000895A1E21A2EAA1BBB1BFD010DC0AA1F3E
:100B2000BB1FEE1FFF1FA217B307E407F50720F056
:100B3000A21BB30BE40BF50B661F771F881F991FD1
:100B40001A9469F760957095809590959B01AC011A
:100B5000BD01CF010895EE0FFF1F0590F491E02D28
:0E0B600019940790F691E02D1994F894FFCFA8
:100B6E003E0001202020474E444B4954530044453B
:0E0B7E004745523D200000000000A7029104F0
:00000001FF
