:1000000013C1000030C100002EC100002CC100004F
:100010002AC1000028C1000026C1000024C1000040
:1000200022C1000020C100001EC100001CC1000050
:100030001AC1000018C1000016C1000014C1000060
:1000400012C1000010C100000EC100000CC1000070
:100050000AC1000008C1000006C100005BC1000029
:1000600002C1000000C10000FEC00000FCC0000092
:10007000FAC00000F8C00000F6C00000F4C00000A4
:10008000F2C00000F0C00000EEC00000ECC00000B4
:10009000EAC00000E8C00000E6C00000E4C00000C4
:1000A000E2C00000E0C00000DEC00000DCC00000D4
:1000B000DAC00000D8C00000D6C00000D4C00000E4
:1000C000D2C00000D0C00000CEC00000CCC00000F4
:1000D000CAC00000C8C00000C6C00000C4C0000004
:1000E000C2C000009602990288028C029202D002DD
:1000F0009D02A102A702AB02AF02B502B902BD0286
:10010000D002C302C702CB0200000A0B02090C0D89
:100110000E080703040100000000000000000000BA
:1001200000000000000000000000000000000000CF
:10013000000000001211100000000000000000008C
:1001400000000000000000000000000000000102AC
:1001500010202008081020401020408002010201D9
:100160000804020101020408102040808040201091
:1001700008040201800402018040201008040201EA
:100180000804020101020408102040800102040852
:10019000102040800505050507050808080802022B
:1001A00002020A0A08080404040401010101010111
:1001B00001010303030303030303040707070C0CF4
:1001C0000C0C0C0C0C0C02020202060606060606BB
:1001D00006060B0B0B0B0B0B0B0B00002000230078
:1001E000260029002C002F0032000001000003012E
:1001F0000601090100002200250028002B002E0026
:100200003100340002010000050108010B0100006B
:100210002100240027002A002D00300033000101B6
:100220000000040107010A0111241FBECFEFD1E233
:10023000DEBFCDBF00E00CBF12E0A0E0B2E0E8EF0F
:10024000F6E000E00BBF02C007900D92A031B107AD
:10025000D9F722E0A0E1B2E001C01D92AB31B207B4
:10026000E1F736D247C2CCCE61E08BE29AD161E0B1
:100270008CE297D161E08DE294D161E08EE291D180
:1002800060E086E28ED160E087E28BD160E088E2B8
:1002900088D160E089E285C11092110210921002AB
:1002A000E0911002F0911102E430F10594F5EE0FA7
:1002B000FF1FE050FE4F81E0208131812130310568
:1002C00009F080E0DCD1892B79F064E170E080E016
:1002D00090E08DD0E0911002F0911102EE0FFF1F1F
:1002E000E85FFD4F61E009C0E0911002F09111025A
:1002F000EE0FFF1FE85FFD4F60E080818BD18091A2
:1003000010029091110201969093110280931002B5
:10031000C7CF08951F920F920FB60F9211242F93FB
:100320003F938F939F93AF93BF93809113029091CC
:100330001402A0911502B09116023091120223E02E
:10034000230F2D3720F40196A11DB11D05C026E80D
:10035000230F0296A11DB11D209312028093130258
:1003600090931402A0931502B09316028091170285
:1003700090911802A0911902B0911A020196A11D44
:10038000B11D8093170290931802A0931902B093A5
:100390001A02BF91AF919F918F913F912F910F9032
:1003A0000FBE0F901F9018953FB7F89480911702D9
:1003B00090911802A0911902B0911A0226B5A89B3B
:1003C00005C02F3F19F00196A11DB11D3FBF662743
:1003D000782F892F9A2F620F711D811D911D42E088
:1003E000660F771F881F991F4A95D1F70895CF92FE
:1003F000DF92EF92FF92CF93DF936B017C01D4DF0A
:10040000EB01C114D104E104F10479F06CD1CCDF2B
:100410006C1B7D0B683E7340A0F381E0C81AD108C5
:10042000E108F108C851DC4FECCFDF91CF91FF908C
:10043000EF90DF90CF900895789484B5826084BD6A
:1004400084B5816084BD85B5826085BD85B58160D8
:1004500085BDEEE6F0E0808181608083E1E8F0E038
:100460001082808182608083808181608083E0E867
:10047000F0E0808181608083E1EBF0E08081846046
:100480008083E0EBF0E0808181608083E1E9F0E04F
:10049000808182608083808181608083E0E9F0E0F8
:1004A000808181608083E1EAF0E0808182608083E6
:1004B000808181608083E0EAF0E0808181608083D8
:1004C000E1E2F1E0808182608083808181608083CD
:1004D000E0E2F1E0808181608083EAE7F0E0808102
:1004E000846080838081826080838081816080835A
:1004F0008081806880831092C100089590E0FC01A3
:100500003197E231F10508F04BC0EE58FF4FECC0D7
:10051000809180008F7703C0809180008F7D8093D1
:100520008000089580918000877FF9CF84B58F7710
:1005300002C084B58F7D84BD08958091B0008F770F
:1005400003C08091B0008F7D8093B00008958091AA
:1005500090008F7707C0809190008F7D03C08091BD
:100560009000877F8093900008958091A0008F77FE
:1005700007C08091A0008F7D03C08091A000877F7D
:100580008093A0000895809120018F7707C080910B
:1005900020018F7D03C080912001877F80932001FF
:1005A0000895CF93DF9390E0FC01E25BFE4F24912E
:1005B000FC01EC56FE4F8491882349F190E0880FAE
:1005C000991FFC01E25FFD4FA591B4918C509E4FA5
:1005D000FC01C591D4919FB7611108C0F8948C912A
:1005E000209582238C93888182230AC0623051F443
:1005F000F8948C91322F309583238C938881822BB1
:10060000888304C0F8948C91822B8C939FBFDF91D8
:10061000CF9108950F931F93CF93DF931F92CDB780
:10062000DEB7282F30E0F901E85FFE4F8491F90131
:10063000E25BFE4F1491F901EC56FE4F049100234A
:10064000C1F0882319F0698359DF6981E02FF0E058
:10065000EE0FFF1FEC50FE4FA591B4919FB7F89499
:100660008C91611103C01095812301C0812B8C9363
:100670009FBF0F90DF91CF911F910F910895CF935E
:10068000DF93282F30E0F901E85FFE4F8491F901F4
:10069000E25BFE4FD491F901EC56FE4FC491CC239E
:1006A00089F081112BDFEC2FF0E0EE0FFF1FE652F7
:1006B000FE4FA591B4912C912D2381E090E021F47F
:1006C00080E002C080E090E0DF91CF91089508952E
:1006D000B3DEFDDFC9DDC0E0D0E0DEDD2097E9F369
:1006E0000E940000FACF0895EE0FFF1F0590F491CD
:0806F000E02D1994F894FFCFEE
:1006F80026002700280029002B002C002D002E00A2
:00000001FF
