:1000000009C1000037C1000035C1000033C1000044
:1000100031C100002FC100002DC100002BC1000024
:1000200029C1000027C1000025C1000023C1000034
:1000300021C100001FC100001DC100001BC1000044
:1000400019C1000017C1000015C1000013C1000054
:1000500011C100000FC100000DC1000035C3000038
:1000600009C1000096C60000CAC6000003C1000016
:1000700001C10000FFC00000FDC00000FBC0000087
:10008000F9C00000F7C00000F5C00000F3C0000098
:10009000F1C00000EFC00000EDC00000EBC00000A8
:1000A000E9C00000E7C00000E5C00000E3C00000B8
:1000B000E1C00000DFC00000DDC00000DBC00000C8
:1000C000D9C00000D7C00000D5C00000D3C00000D8
:1000D000D1C00000CFC0000007C700003BC7000030
:1000E000C9C00000B204B504A404A804AE04EC0422
:1000F000B904BD04C304C704CB04D104D504D90496
:10010000EC04DF04E304E70400000A0B02090C0D11
:100110000E080703040100000000000000000000BA
:1001200000000000000000000000000000000000CF
:10013000000000001211100000000000000000008C
:1001400000000000000000000000000000000102AC
:1001500010202008081020401020408002010201D9
:100160000804020101020408102040808040201091
:1001700008040201800402018040201008040201EA
:100180000804020101020408102040800102040852
:10019000102040800505050507050808080802022B
:1001A00002020A0A08080404040401010101010111
:1001B00001010303030303030303040707070C0CF4
:1001C0000C0C0C0C0C0C02020202060606060606BB
:1001D00006060B0B0B0B0B0B0B0B00002200250074
:1001E00028002B002E003100340002010000050120
:1001F00008010B0100002100240027002A002D0027
:100200003000330001010000040107010A01170258
:100210003107DC0711241FBECFEFD1E2DEBFCDBF17
:1002200000E00CBF12E0A0E0B2E0E6ECF2E100E09A
:100230000BBF02C007900D92AE3AB107D9F724E088
:10024000AEEAB2E001C01D92AB30B207E1F712E0B6
:10025000C4E1D2E000E006C022970109FE010BBF15
:100260000E945D09CE30D10780E00807A9F7F2D7D8
:100270000C946109C5CE26E040E05BE460E070E0EC
:1002800081ED92E026D526E040E855E260E070E09E
:100290008EE693E01ED56BE072E081ED92E018D718
:1002A0006BE072E08EE693E013D720E042E060E17D
:1002B00080EB92E05FD161E272E080EB92E0FDC6FC
:1002C00020E042E060E180EB92E054D16CE272E029
:1002D00080EB92E0F2D68091080207D39093AF02B0
:1002E0008093AE0264E170E080E090E05AD264E373
:1002F00072E081ED92E0E1D66091AE027091AF02C2
:100300004AE050E081ED92E08ED764E372E08EE641
:1003100093E0D3D66091AE027091AF024AE050E014
:100320008EE693E080D780910602DFD29093AF02F1
:100330008093AE0264E170E080E090E032D264E449
:1003400072E081ED92E0B9D66091AE027091AF0299
:100350004AE050E081ED92E066D764E472E08EE618
:1003600093E0ABD66091AE027091AF024AE050E0EC
:100370008EE693E058D780910402B7D29093AF02F3
:100380008093AE0264E170E080E090E00AD264E520
:1003900072E081ED92E091D66091AE027091AF0271
:1003A0004AE050E081ED92E03ED7809102029DD27A
:1003B0009093AF028093AE0264E170E080E090E041
:1003C000F0D164E672E081ED92E077D66091AE0202
:1003D0007091AF024AE050E081ED92E024D7809125
:1003E000000283D29093AF028093AE0264E170E08A
:1003F00080E090E0D6D164E772E081ED92E05DD6D6
:100400006091AE027091AF024AE050E081ED92E05F
:100410000AD76091AE027091AF024AE050E080EBE3
:1004200092E0FAD664EF71E080E090E0BAC1CF923A
:10043000EF920F938DE1C82E9CE1E92E0BE12AE1AA
:1004400045E264E280EB92E01BD10F91EF90CF90F8
:100450000895CF93DF93EC0160E08E81F7D281E0C5
:1004600090E0D6D161E08E81F1D281E090E0D0D1F0
:1004700060E08E81EBD284E690E0DF91CF91C8C13D
:10048000EF92FF920F931F93CF93DF938C01C0E005
:10049000D0E0E62EF12CB7010C2E02C075956795C1
:1004A0000A94E2F76170F801EC0FFD1F8781CED24C
:1004B0002196C430D10579F7C801DF91CF911F9102
:1004C0000F91FF90EF90C5CFEF92FF920F931F9384
:1004D000CF93DF938C01C0E0D0E0E62EF12CB70182
:1004E0000C2E02C0759567950A94E2F76170F801C9
:1004F000EC0FFD1F8781AAD22196C830D10579F76C
:10050000C801DF91CF911F910F91FF90EF90A1CF84
:100510001F93CF93DF93EC01162F642F8C8196D21B
:100520008D818F3F11F060E091D28F85612F84FF24
:1005300005C0CE01DF91CF911F91C6CF70E084E05E
:10054000759567958A95E1F7CE019ADF612FCE0107
:10055000DF91CF911F9194CF40E0DACF61E0FCDFD3
:1005600080ED97E055C1FC016089262F2460208B27
:100570006C60F2CF0F931F93CF93DF93EC01423067
:1005800018F08F8588608F874B8B1C8A80E48D8B59
:100590006E8B70E0605C7F4F6F8B222329F04130BF
:1005A00019F48F8584608F8761E08C8116D28D81EC
:1005B0008F3F11F061E011D261E08E810ED200E038
:1005C00010E08F8584FF03C088E090E002C084E0E3
:1005D00090E0081719074CF4FE01E00FF11F61E0ED
:1005E0008781FBD10F5F1F4FECCF80E593EC10D1DB
:1005F00060E08C812BD260E08E8128D28D818F3F8C
:1006000011F060E023D26F8564FD16C063E0CE0177
:1006100037DF84E991E1FCD063E0CE0131DF84E98A
:1006200091E1F6D063E0CE012BDF86E990E0F0D0D7
:1006300062E0CE0125DF11C06062CE018DDF84E96A
:1006400091E1E6D06F856062CE0186DF86E990E0B9
:10065000DFD06F856062CE017FDF6F856062CE0183
:100660007BDF84E0888BCE017EDFCE0177DF82E006
:10067000898B66E0CE01DF91CF911F910F916CCFF6
:10068000CF92EF920F93FC011382128288E892E0DE
:100690009183808364838FEF8583468327830087DC
:1006A000E186C2861386148615861686178620E094
:1006B00041E060E1CF010F91EF90CF905BCF41E03F
:1006C00027DF81E090E008951F920F920FB60F92FE
:1006D00011242F933F938F939F93AF93BF93809158
:1006E000C9029091CA02A091CB02B091CC02309184
:1006F000C80223E0230F2D3720F40196A11DB11D60
:1007000005C026E8230F0296A11DB11D2093C80243
:100710008093C9029093CA02A093CB02B093CC02FB
:100720008091CD029091CE02A091CF02B091D002E3
:100730000196A11DB11D8093CD029093CE02A0938E
:10074000CF02B093D002BF91AF919F918F913F9113
:100750002F910F900FBE0F901F9018953FB7F894F0
:100760008091CD029091CE02A091CF02B091D002A3
:1007700026B5A89B05C02F3F19F00196A11DB11DFC
:100780003FBF6627782F892F9A2F620F711D811D19
:10079000911D42E0660F771F881F991F4A95D1F778
:1007A00008958F929F92AF92BF92CF92DF92EF9275
:1007B000FF926B017C01D2DF4B015C01C114D104BB
:1007C000E104F104E1F050D5C9DF681979098A091B
:1007D0009B09683E73408105910580F321E0C21AB0
:1007E000D108E108F10888EE880E83E0981EA11C6C
:1007F000B11CC114D104E104F10431F7DFCFFF9043
:10080000EF90DF90CF90BF90AF909F908F90089522
:100810008230910538F0880F991F880F991F05972E
:100820000197F1F70895789484B5826084BD84B50A
:10083000816084BD85B5826085BD85B5816085BDDB
:10084000EEE6F0E0808181608083E1E8F0E01082F4
:10085000808182608083808181608083E0E8F0E035
:10086000808181608083E1EBF0E08081846080831F
:10087000E0EBF0E0808181608083E1E9F0E080815D
:1008800082608083808181608083E0E9F0E0808104
:1008900081608083E1EAF0E08081826080838081F2
:1008A00081608083E0EAF0E0808181608083E1E222
:1008B000F1E0808182608083808181608083E0E2DA
:1008C000F1E0808181608083EAE7F0E080818460EC
:1008D0008083808182608083808181608083808149
:1008E000806880831092C1000895863308F0865393
:1008F00020917B00982F9870277F922B90937B00FC
:10090000877020910A0290E4299F90011124822B84
:1009100080937C0080917A00806480937A0080913B
:100920007A0086FDFCCF809178002091790090E0DC
:10093000922B089590E0FC013197E231F10508F027
:100940004BC0EE58FF4FB3C4809180008F7703C037
:10095000809180008F7D8093800008958091800039
:10096000877FF9CF84B58F7702C084B58F7D84BD32
:1009700008958091B0008F7703C08091B0008F7D83
:100980008093B0000895809190008F7707C0809188
:1009900090008F7D03C080919000877F80939000AE
:1009A00008958091A0008F7707C08091A0008F7D6F
:1009B00003C08091A000877F8093A000089580915C
:1009C00020018F7707C0809120018F7D03C0809127
:1009D0002001877F809320010895CF93DF9390E0DB
:1009E000FC01E25BFE4F2491FC01EC56FE4F84912A
:1009F000882349F190E0880F991FFC01EC50FE4FCD
:100A0000A591B49186529E4FFC01C591D4919FB798
:100A1000611108C0F8948C91209582238C93888171
:100A200082230AC0623051F4F8948C91322F3095B1
:100A300083238C938881822B888304C0F8948C91C3
:100A4000822B8C939FBFDF91CF9108950F931F93BB
:100A5000CF93DF931F92CDB7DEB7282F30E0F90197
:100A6000E85FFE4F8491F901E25BFE4F1491F901BA
:100A7000EC56FE4F04910023C1F0882319F06983DE
:100A800059DF6981E02FF0E0EE0FFF1FE652FE4FC5
:100A9000A591B4919FB7F8948C91611103C0109502
:100AA000812301C0812B8C939FBF0F90DF91CF9149
:100AB0001F910F910895FC01818D228D90E0805C43
:100AC0009F4F821B91098F7399270895FC01918D87
:100AD000828D981731F0828DE80FF11D858D90E0A1
:100AE00008958FEF9FEF0895FC01918D828D9817E7
:100AF00061F0828DDF01A80FB11D5D968C91928D02
:100B00009F5F9F73928F90E008958FEF9FEF0895FE
:100B100088E297E0892B39F080E090E0892B19F08A
:100B200097D1811124C080E090E0892B41F080E0D2
:100B300090E0892B21F00E94000081111BC080E011
:100B400090E0892B41F080E090E0892B21F00E9419
:100B50000000811112C083ED97E0892B99F080E0AD
:100B600090E0892B79F01FD281110AC008950E946C
:100B70000000D9CF0E940000E2CF0E940000EBCF1E
:100B80000C9400000895FC01848DDF01A80FB11DB5
:100B9000A35ABF4F2C91848D90E001968F739927B3
:100BA000848FA689B7892C93A089B1898C918064A0
:100BB0008C93938D848D981306C00288F389E02D61
:100BC00080818F7D80830895CF93DF93EC01888DA2
:100BD0008823C1F0EA89FB89808185FD05C0A88949
:100BE000B9898C9186FD0EC00FB607FCF5CF8081C8
:100BF00085FFF2CFA889B9898C9185FFEDCFCE0111
:100C0000C2DFE8CFDF91CF910895CF92DF92FF92BC
:100C10000F931F93CF93DF931F92CDB7DEB76C0175
:100C200081E0D60158968C9358975B969C915B9780
:100C30005C968C915C97981307C05096ED91FC914F
:100C40005197808185FD2DC0F601038D10E00F5F67
:100C50001F4F0F731127F02EF601848DF81210C06C
:100C60000FB607FCF9CFD6015096ED91FC91519744
:100C7000808185FFF1CFC601698385DF6981ECCF73
:100C8000838DE80FF11DE35AFF4F6083D6015B9619
:100C90000C935B975296ED91FC9153978081806203
:100CA0000CC0D6015696ED91FC91579760835096F3
:100CB000ED91FC91519780818064808381E090E088
:100CC0000F90DF91CF911F910F91FF90DF90CF9008
:100CD0000895BF92CF92DF92EF92FF92CF93DF936E
:100CE000EC016A017B01B22EE889F98982E08083F8
:100CF000411581EE58076105710599F060E079E0D2
:100D00008DE390E0A7019601B0D22150310941094D
:100D100051095695479537952795211580E1380754
:100D200090F0E889F989108260E874E88EE190E03B
:100D3000A70196019AD221503109410951095695CE
:100D4000479537952795EC85FD853083EE85FF85A2
:100D50002083188EEC89FD89B082EA89FB89808125
:100D600080618083EA89FB89808188608083EA8949
:100D7000FB89808180688083EA89FB8980818F7DFF
:100D80008083DF91CF91FF90EF90DF90CF90BF9065
:100D900008951F920F920FB60F9211240BB60F9267
:100DA0002F938F939F93EF93FF93E091E102F09144
:100DB000E2028081E091E702F091E80282FD12C038
:100DC00090818091EA028F5F8F732091EB028217EE
:100DD00051F0E091EA02F0E0EF52FD4F958F8093E1
:100DE000EA0201C08081FF91EF919F918F912F9135
:100DF0000F900BBE0F900FBE0F901F9018951F9273
:100E00000F920FB60F9211240BB60F922F933F93B0
:100E10004F935F936F937F938F939F93AF93BF9302
:100E2000EF93FF9381ED92E0AEDEFF91EF91BF91E2
:100E3000AF919F918F917F916F915F914F913F9172
:100E40002F910F900BBE0F900FBE0F901F90189513
:100E500081ED92E030DE21E0892B09F420E0822F41
:100E600008951092D4021092D30288EE93E0A0E08D
:100E7000B0E08093D5029093D602A093D702B093AE
:100E8000D80280E992E09093D2028093D10285EC5F
:100E900090E09093DE028093DD0284EC90E09093EA
:100EA000E0028093DF0280EC90E09093E202809376
:100EB000E10281EC90E09093E4028093E30282EC03
:100EC00090E09093E6028093E50286EC90E09093A8
:100ED000E8028093E7021092EA021092EB0210926D
:100EE000EC021092ED0208951F920F920FB60F922E
:100EF00011240BB60F922F938F939F93EF93FF9331
:100F0000E0917E03F0917F038081E0918403F09172
:100F1000850382FD12C09081809187038F5F8F735C
:100F200020918803821751F0E0918703F0E0E259A5
:100F3000FC4F958F8093870301C08081FF91EF91D3
:100F40009F918F912F910F900BBE0F900FBE0F901E
:100F50001F9018951F920F920FB60F9211240BB687
:100F60000F922F933F934F935F936F937F938F9342
:100F70009F93AF93BF93EF93FF938EE693E003DECF
:100F8000FF91EF91BF91AF919F918F917F916F9161
:100F90005F914F913F912F910F900BBE0F900FBE1D
:100FA0000F901F9018958EE693E085DD21E0892B48
:100FB00009F420E0822F08951092710310927003BB
:100FC00088EE93E0A0E0B0E0809372039093730307
:100FD000A0937403B093750380E992E090936F033C
:100FE00080936E0385E391E090937B0380937A0373
:100FF00084E391E090937D0380937C0380E391E010
:1010000090937F0380937E0381E391E0909381032B
:101010008093800382E391E0909383038093820323
:1010200086E391E090938503809384031092870375
:10103000109288031092890310928A030895CF9228
:10104000DF92EF92FF920F931F93CF93DF937C0178
:101050006A01EB0100E010E00C151D0571F06991CB
:10106000D701ED91FC910190F081E02DC701199518
:10107000892B19F00F5F1F4FEFCFC801DF91CF9180
:101080001F910F91FF90EF90DF90CF900895611521
:10109000710581F0DB010D900020E9F7AD014150B1
:1010A0005109461B570BDC01ED91FC910280F38145
:1010B000E02D199480E090E00895E9CFDC01ED91F6
:1010C000FC910190F081E02D19946CE972E0DFCF82
:1010D0000F931F93CF93DF93EC01D9DF8C01CE01E7
:1010E000F4DF800F911FDF91CF911F910F91089531
:1010F0008F929F92AF92BF92DF92EF92FF920F93E7
:101100001F93CF93DF93CDB7DEB7A1970FB6F894B7
:10111000DEBF0FBECDBF7C01F42FD52ECB0119A2AF
:10112000223008F42AE08E010F5D1F4F822E912C91
:10113000A12CB12C6F2F7D2DA501940196D0F22FFB
:10114000D32ECA01015011096A3014F4E0E301C042
:10115000E7E3E60FD801EC93232B242B252B51F743
:10116000B801C70194DFA1960FB6F894DEBF0FBE99
:10117000CDBFDF91CF911F910F91FF90EF90DF9046
:10118000BF90AF909F908F900895CF92DF92EF9293
:10119000FF920F931F93CF93DF93EC016A017B01C2
:1011A0002115310579F4E881F9810190F081E02D74
:1011B000642FDF91CF911F910F91FF90EF90DF90FF
:1011C000CF9019942A303105D9F477FF18C06DE219
:1011D00075DF8C0144275527BA014C195D096E094A
:1011E0007F092AE0CE0184DF800F911FDF91CF912C
:1011F0001F910F91FF90EF90DF90CF9008952AE01C
:10120000B701A601CE01DF91CF911F910F91FF9001
:10121000EF90DF90CF906CCF9A01AB01662757FD1E
:101220006095762FB2CF0F931F93CF93DF93EC018E
:101230009A01AB01662757FD6095762FA6DF8C01DA
:10124000CE0143DF800F911FDF91CF911F910F914E
:1012500008950895E8DAFDDF0ED8C8E8D5E030D863
:101260002097E9F355DCFBCF0895A1E21A2EAA1BC3
:10127000BB1BFD010DC0AA1FBB1FEE1FFF1FA21746
:10128000B307E407F50720F0A21BB30BE40BF50B43
:10129000661F771F881F991F1A9469F760957095CC
:1012A000809590959B01AC01BD01CF010895EE0F93
:1012B000FF1F0590F491E02D19940790F691E02D11
:0612C0001994F894FFCF21
:1012C600410040003F003A003E000144454E45596A
:1012D60031382D414E414C4F472053454E534F52C6
:1012E60000202020474E444B49545300444547456F
:1012F600523D2000504F54414E5349594F4D45548D
:1013060052453D004C4D3335202020202020202002
:1013160020203D0050544320202020202020202043
:1013260020203D004E544320202020202020202035
:1013360020203D004C445220202020202020202028
:1013460020203D00000000005F031F080000000091
:1013560005061F085B0574056605E4050D0A006EA3
:0E136600616E00696E66006F7666002E0000F4
:00000001FF
