:1000000077C00000A6C00000A4C00000A2C000008D
:10001000A0C000009EC000009CC000009AC000006C
:1000200098C0000096C0000094C0000092C000007C
:1000300090C000008EC000008CC000008AC000008C
:1000400088C0000086C0000084C0000082C000009C
:1000500080C000007EC000007CC00000B2C500006F
:1000600078C000000C944F080C94850872C0000002
:1000700070C000006EC000006CC000006AC00000CC
:1000800068C0000066C0000064C0000062C00000DC
:100090000C94FA080C9430095CC000005AC00000AF
:1000A00058C0000056C0000054C0000052C00000FC
:1000B00050C000004EC000004CC000004AC000000C
:1000C00048C0000046C0000044C000000C94A509D0
:1000D0000C94DB093EC000000C94500A0C94860A74
:1000E00038C00000F801B70862090D0AB80A4002DA
:1000F00011241FBECFEFD1E2DEBFCDBF00E00CBFA9
:1001000012E0A0E0B2E0E4E5FEE100E00BBF02C0D7
:1001100007900D92AC3FB107D9F725E0ACEFB2E004
:1001200001C01D92A13EB207E1F710E0CEEED0E093
:1001300000E006C022970109FE010BBF0E94E00CFF
:10014000C43ED10780E00807A9F70E94B10C0C94C7
:10015000190F56CFDC01ED91FC910190F081E02D5B
:10016000199426E040E05BE460E070E089E693E00B
:1001700036D726E040E05BE460E070E086E094E0A3
:100180002ED726E040E052EC61E070E083EA94E094
:1001900026D726E040E855E260E070E080E495E094
:1001A0001ED76FEF70E08AE593E00E94A00B6FEF1F
:1001B00070E083E593E00E94A00B6FEF70E08CE4A9
:1001C00093E00E94A00B6AE071E085E493E00E9456
:1001D000A00B6AE071E08EE393E00E94A00B6AE05E
:1001E00071E088E393E00E94A00B64EF71E080E08F
:1001F00090E054C54091490350914A03509337030E
:1002000040933603BA016150710985E493E00E947E
:10021000830C65E473E08EE393E00E94EE0B409163
:100220003603509137036AE070E08EE393E00E945A
:10023000830C65E473E088E393E00E94EE0B4AE0F0
:1002400050E060E070E088E393E00E94830C6EE38E
:1002500073E089E693E00E94520B68E373E089E65D
:1002600093E00E94520B66E072E089E693E00E9400
:10027000620B66E172E086E094E00E94470B64E660
:1002800070E080E090E00AD561E272E086E094E000
:100290000E94470B6EE373E086E094E00E94390B06
:1002A00060E372E086E094E00E94620B64E670E036
:1002B00080E090E0F3D468E373E086E094E00E948D
:1002C000520B64E670E080E090E0E8D46AE186E0FA
:1002D00094E00E94480B64E670E080E090E0DED499
:1002E00086E094E00E944F0B62E372E089E693E0BF
:1002F0000E94620B61E272E089E693E00E94470B84
:100300006EE373E089E693E00E94390B60E372E0EC
:1003100089E693E00E94620B64E670E080E090E082
:10032000BDD468E373E089E693E00E94520B64E673
:1003300070E080E090E0B2D46AE189E693E00E9448
:10034000480B64E670E080E090E0A8D489E693E092
:100350000E944F0B62E372E089E693E00E94620B19
:10036000109235031092340308954091490350913F
:100370004A035093370340933603BA016150710921
:1003800085E493E00E94830C6DE372E085E493E0E2
:100390000E94430C6FE372E086E094E00E94470BFA
:1003A00065E473E086E094E00E94390B86E094E017
:1003B0000E944F0B64E670E080E090E06FD486E02E
:1003C00094E00E944F0B6FE372E089E693E00E9495
:1003D000470B65E473E089E693E00E94390B89E6F8
:1003E00093E00E944F0B109235031092340308954E
:1003F0006FEE72E08AE593E00E94D90B6FEE72E037
:1004000083E593E00E94D90B6FEE72E08CE493E0F9
:100410000E94D90B6FEE72E085E493E00E94D90B45
:100420006FEE72E08EE393E00E94D90B6FEE72E004
:1004300088E393E00E94D90B6FEE72E08EE293E0C6
:100440000E94D90B6FEE72E088E293E00E94D90B14
:100450006FEE72E082E293E00E94D90B6FEE72E0E1
:100460008CE193E00E94D90B6FEE72E086E193E09D
:100470000E94D90B6FEE72E080E193E00C94D90BEF
:1004800080E193E00E94720B86E193E00E94720B80
:100490008CE193E00E94720B82E293E00E94720B67
:1004A00088E293E00E94720B8EE293E00E94720B4E
:1004B00088E393E00E94720B8EE393E00E94720B3C
:1004C00085E493E00E94720B8CE493E00E94720B2F
:1004D00083E593E00E94720B8AE593E00C94720B23
:1004E000CF93C1E089E693E072D4892B89F089E645
:1004F00093E086D48A3011F4C09359039091590344
:100500009111F0CF682F8AE593E00E94520CEACF58
:10051000CF910895CF93DF93D1E086E094E057D454
:10052000892B71F086E094E06BD4C82F682F83E5A7
:1005300093E00E94520CCD3081F7D0935203EDCF5F
:10054000DF91CF910895CF93DF93C1E083EA94E0E8
:100550003ED4892B09F440C183EA94E051D4D82FCA
:10056000682F8CE493E00E94520CDA3079F763E450
:100570008CE493E00E94800C90930F0380930E0311
:10058000AC014E5F5F4F60E070E08CE493E00E944E
:10059000830C809150039091510390930D038093AD
:1005A0000C036EE28CE493E00E94800C90930B03AA
:1005B00080930A036CE473E08EE293E00E94EE0BFA
:1005C00040910C0350910D0360910A0370910B034D
:1005D0008EE293E00E94830C61E48CE493E00E943D
:1005E000800C9093090380930803AC014E5F5F4F2A
:1005F00060E070E08CE493E00E94830C80915003F3
:100600009091510390930D0380930C036EE48CE45E
:1006100093E00E94800C90930703809306036CE4A0
:1006200073E088E293E00E94EE0B40910C0350913E
:100630000D03609106037091070388E293E00E9426
:10064000830C40910603509107034E5F5F4F60E0BB
:1006500070E08CE493E00E94830C809150039091B1
:10066000510390930D0380930C0365E48CE493E0B5
:100670000E94800C90930503809304036CE473E064
:1006800082E293E00E94EE0B40910C0350910D0327
:10069000609104037091050382E293E00E94830C51
:1006A00040910403509105034E5F5F4F60E070E09E
:1006B0008CE493E00E94830C80915003909151034D
:1006C00090930D0380930C036CE28CE493E00E9402
:1006D000800C90930303809302036CE473E08CE13D
:1006E00093E00E94EE0B40910C0350910D0360913A
:1006F0000203709103038CE193E00E94830C40910C
:100700000203509103034F5F5F4F60E070E08CE4A1
:1007100093E00E94830C8091500390915103909339
:100720000D0380930C036CE28CE493E00E94800C38
:1007300090930103809300036CE473E086E193E0FF
:100740000E94EE0B40910C0350910D036091000349
:100750007091010386E193E00E94830C40910003B5
:10076000509101034F5F5F4F60E070E08CE493E0D5
:100770000E94830C809150039091510390930D033C
:1007800080930C036CE28CE493E00E94800C9093C5
:10079000FF028093FE026CE473E080E193E00E942C
:1007A000EE0B40910C0350910D036091FE0270918D
:1007B000FF0280E193E00E94830C4091FE02509181
:1007C000FF024F5F5F4F60E070E08CE493E00E94B7
:1007D000830CC0934B03BACEDF91CF910895CF9392
:1007E000DF93D1E080E495E0F2D2892B81F180E4BF
:1007F00095E006D3C82F8D3031F4D0934403109286
:10080000370310923603809144038111EBCF6C2F94
:1008100085E493E00E94520C209136033091370317
:100820002F5F3F4F3093370320933603213031053C
:10083000C9F68C2F992787FD909590933503809367
:1008400034036FEE72E085E493E0DDD7CBCFDF9128
:10085000CF91089545DE809159038823B1F16AE56F
:1008600073E089E693E005D789E693E018D74091D5
:100870005E0350915F035093370340933603BA01F0
:10088000615071098AE593E00E94830C6AE573E088
:1008900080E495E0EED66FEF70E080E495E05ADCFE
:1008A0006FEF70E080E495E055DC6FEF70E080E47E
:1008B00095E050DC6FEE72E08AE593E0A4D71092E9
:1008C0005903109237031092360324DE80915203AD
:1008D000882309F49CC063E573E089E693E0E2D6DF
:1008E00064E670E080E090E0D9D166E472E080E4F4
:1008F00095E0CDD66FEF70E080E495E02BDC6FEFF4
:1009000070E080E495E026DC6FEF70E080E495E035
:1009100021DC64E670E080E090E0C0D140915703B4
:10092000509158035093370340933603BA016150F6
:10093000710983E593E0E7D763E572E080E495E031
:10094000A6D662E270E080E495E004DC63E573E043
:1009500080E495E08ED662E270E080E495E0FADB18
:100960006FEF70E080E495E0F5DB6FEF70E080E41E
:1009700095E0F0DB6FEF70E080E495E0EBDB64E6A0
:1009800070E080E090E08AD166E472E086E094E076
:100990007ED66FEF70E086E094E0DCDB6FEF70E016
:1009A00086E094E0D7DB6FEF70E086E094E0D2DB86
:1009B00064E670E080E090E071D163E572E089E682
:1009C00093E065D662E270E089E693E0C3DB63E51D
:1009D00073E089E693E04DD662E270E089E693E049
:1009E000B9DB6FEF70E089E693E0B4DB6FEF70E0A6
:1009F00089E693E0AFDB6FEF70E089E693E0AADB76
:100A00006FEE72E083E593E0FED6109252039BDD19
:100A100080914B03882309F48AC08091FC02909155
:100A2000FD02019709F083C061E672E089E693E078
:100A30002ED66EE273E089E693E034D66BE672E080
:100A400089E693E024D668E273E089E693E02AD64B
:100A500065E772E089E693E01AD662E273E089E620
:100A600093E020D66FE772E089E693E010D66CE160
:100A700073E089E693E016D669E872E089E693E0D0
:100A800006D666E173E089E693E00CD663E972E08E
:100A900089E693E0FCD560E173E089E693E002D655
:100AA0006DE972E080E495E0F2D562E270E080E406
:100AB00095E050DB6EE273E080E495E0DAD568E221
:100AC00073E080E495E0D5D562E273E080E495E0E0
:100AD000D0D56CE173E080E495E0CBD566E173E0BE
:100AE00080E495E0C6D560E173E080E495E0C1D58F
:100AF00062E270E080E495E02DDB6FEF70E080E46F
:100B000095E028DB6FEF70E080E495E023DB6FEF8A
:100B100070E080E495E01EDB6FEE72E08CE493E021
:100B200072D610924B031092FD021092FC0257DE17
:100B300080914403882309F443C080913403909149
:100B4000350387369105F1F08D36910579F08136C0
:100B5000910579F50ADC69EB72E089E693E0B2D59C
:100B600065E473E089E693E09DD51CC06AEA72E013
:100B700089E693E0A7D565E473E089E693E092D532
:100B800039DB10C069EC72E089E693E09BD565E43F
:100B900073E089E693E086D581E090E09093FD02D2
:100BA0008093FC026FEE72E085E493E02CD6109205
:100BB00044036FEE72E085E493E025D6109244037F
:100BC00008951F920F920FB60F9211242F933F9307
:100BD0008F939F93AF93BF93809161039091620332
:100BE000A0916303B09164033091600323E0230F6D
:100BF0002D3720F40196A11DB11D05C026E8230F55
:100C00000296A11DB11D2093600380936103909310
:100C10006203A0936303B093640380916503909192
:100C20006603A0916703B09168030196A11DB11DF1
:100C30008093650390936603A0936703B093680362
:100C4000BF91AF919F918F913F912F910F900FBEC8
:100C50000F901F9018953FB7F8948091650390917D
:100C60006603A0916703B091680326B5A89B05C0F1
:100C70002F3F19F00196A11DB11D3FBF6627782FA8
:100C8000892F9A2F620F711D811D911D42E0660F01
:100C9000771F881F991F4A95D1F708958F929F92C9
:100CA000AF92BF92CF92DF92EF92FF926B017C01E5
:100CB000D2DF4B015C01C114D104E104F104E1F085
:100CC0005CD6C9DF681979098A099B09683E7340B7
:100CD0008105910580F321E0C21AD108E108F108ED
:100CE00088EE880E83E0981EA11CB11CC114D104AB
:100CF000E104F10431F7DFCFFF90EF90DF90CF9068
:100D0000BF90AF909F908F900895789484B5826043
:100D100084BD84B5816084BD85B5826085BD85B59F
:100D2000816085BDEEE6F0E0808181608083E1E84E
:100D3000F0E0108280818260808380818160808386
:100D4000E0E8F0E0808181608083E1EBF0E0808189
:100D500084608083E0EBF0E0808181608083E1E962
:100D6000F0E0808182608083808181608083E0E91F
:100D7000F0E0808181608083E1EAF0E08081826040
:100D80008083808181608083E0EAF0E080818160FF
:100D90008083E1E2F1E080818260808380818160F4
:100DA0008083E0E2F1E0808181608083EAE7F0E027
:100DB0008081846080838081826080838081816083
:100DC00080838081806880831092C1000895FC0137
:100DD000818D228D90E0805C9F4F821B91098F73E3
:100DE00099270895FC01918D828D981731F0828D9D
:100DF000E80FF11D858D90E008958FEF9FEF089526
:100E0000FC01918D828D981761F0828DDF01A80F12
:100E1000B11D5D968C91928D9F5F9F73928F90E034
:100E200008958FEF9FEF08958EEA98E0892B39F0AF
:100E300080E792E0892B19F091D1811122C089E5D8
:100E400099E0892B39F08AE892E0892B19F031D2A8
:100E5000811119C084E09AE0892B39F083EA92E08D
:100E6000892B19F0D1D2811110C08FEA9AE0892B19
:100E700079F08FEE93E0892B59F071D3811107C07F
:100E800008952EDBDCCF46DBE5CF5DDBEECFA7CCD4
:100E90000895FC01848DDF01A80FB11DA35ABF4F37
:100EA0002C91848D90E001968F739927848FA68969
:100EB000B7892C93A089B1898C9180648C93938D90
:100EC000848D981306C00288F389E02D80818F7D80
:100ED00080830895CF93DF93EC01888D8823C1F040
:100EE000EA89FB89808185FD05C0A889B9898C9133
:100EF00086FD0EC00FB607FCF5CF808185FFF2CFCF
:100F0000A889B9898C9185FFEDCFCE01C2DFE8CFEA
:100F1000DF91CF910895CF92DF92FF920F931F93AD
:100F2000CF93DF931F92CDB7DEB76C0181E0D6017E
:100F300058968C9358975B969C915B975C968C9196
:100F40005C97981307C05096ED91FC915197808162
:100F500085FD2DC0F601038D10E00F5F1F4F0F734D
:100F60001127F02EF601848DF81210C00FB607FC81
:100F7000F9CFD6015096ED91FC915197808185FF74
:100F8000F1CFC601698385DF6981ECCF838DE80FDE
:100F9000F11DE35AFF4F6083D6015B960C935B977C
:100FA0005296ED91FC915397808180620CC0D601DE
:100FB0005696ED91FC91579760835096ED91FC9178
:100FC000519780818064808381E090E00F90DF9171
:100FD000CF911F910F91FF90DF90CF900895BF9216
:100FE000CF92DF92EF92FF92CF93DF93EC016A01F1
:100FF0007B01B22EE889F98982E08083411581EE78
:1010000058076105710599F060E079E08DE390E0A3
:10101000A7019601B3D421503109410951095695D0
:10102000479537952795211580E1380790F0E88995
:10103000F989108260E874E88EE190E0A7019601DA
:101040009DD421503109410951095695479537954D
:101050002795EC85FD853083EE85FF852083188EEE
:10106000EC89FD89B082EA89FB8980818061808377
:10107000EA89FB89808188608083EA89FB89808195
:1010800080688083EA89FB8980818F7D8083DF91FE
:10109000CF91FF90EF90DF90CF90BF9008951F9277
:1010A0000F920FB60F9211240BB60F922F938F93BE
:1010B0009F93EF93FF93E0917903F0917A038081FE
:1010C000E0917F03F091800382FD12C090818091B6
:1010D00082038F5F8F7320918303821751F0E09119
:1010E0008203F0E0E759FC4F958F8093820301C0A3
:1010F0008081FF91EF919F918F912F910F900BBE67
:101100000F900FBE0F901F9018951F920F920FB661
:101110000F9211240BB60F922F933F934F935F932F
:101120006F937F938F939F93AF93BF93EF93FF93AF
:1011300089E693E0AEDEFF91EF91BF91AF919F9171
:101140008F917F916F915F914F913F912F910F9070
:101150000BBE0F900FBE0F901F90189589E693E07D
:1011600036DE21E0892B09F420E0822F08951092C9
:101170006C0310926B0388EE93E0A0E0B0E08093E4
:101180006D0390936E03A0936F03B093700381EE91
:1011900092E090936A038093690385EC90E09093CA
:1011A00076038093750384EC90E0909378038093AA
:1011B000770380EC90E090937A038093790381EC3D
:1011C00090E090937C0380937B0382EC90E090937B
:1011D0007E0380937D0386EC90E090938003809360
:1011E0007F03109282031092830310928403109263
:1011F000850308951F920F920FB60F9211240BB61C
:101200000F922F938F939F93EF93FF93E091160488
:10121000F09117048081E0911C04F0911D0482FD7F
:1012200012C0908180911F048F5F8F7320912004E2
:10123000821751F0E0911F04F0E0EA5FFB4F958FB9
:1012400080931F0401C08081FF91EF919F918F9146
:101250002F910F900BBE0F900FBE0F901F901895FF
:101260001F920F920FB60F9211240BB60F922F936D
:101270003F934F935F936F937F938F939F93AF931E
:10128000BF93EF93FF9386E094E003DEFF91EF912D
:10129000BF91AF919F918F917F916F915F914F918E
:1012A0003F912F910F900BBE0F900FBE0F901F908C
:1012B000189586E094E08BDD21E0892B09F420E08D
:1012C000822F0895109209041092080488EE93E08A
:1012D000A0E0B0E080930A0490930B04A0930C0468
:1012E000B0930D0481EE92E090930704809306047E
:1012F0008DEC90E090931304809312048CEC90E0BA
:10130000909315048093140488EC90E09093170454
:101310008093160489EC90E090931904809318044C
:101320008AEC90E090931B0480931A048EEC90E07A
:1013300090931D0480931C0410921F0410922004AB
:10134000109221041092220408951F920F920FB65A
:101350000F9211240BB60F922F938F939F93EF93BD
:10136000FF93E091B304F091B4048081E091B9045B
:10137000F091BA0482FD12C090818091BC048F5F0D
:101380008F732091BD04821751F0E091BC04F0E00E
:10139000ED55FB4F958F8093BC0401C08081FF9178
:1013A000EF919F918F912F910F900BBE0F900FBED9
:1013B0000F901F9018951F920F920FB60F92112445
:1013C0000BB60F922F933F934F935F936F937F933F
:1013D0008F939F93AF93BF93EF93FF9383EA94E030
:1013E00058DDFF91EF91BF91AF919F918F917F91C8
:1013F0006F915F914F913F912F910F900BBE0F9086
:101400000FBE0F901F90189583EA94E0E0DC21E076
:10141000892B09F420E0822F08951092A6041092DF
:10142000A50488EE93E0A0E0B0E08093A704909339
:10143000A804A093A904B093AA0481EE92E090932B
:10144000A4048093A30485ED90E09093B00480936E
:10145000AF0484ED90E09093B2048093B10480EDEA
:1014600090E09093B4048093B30481ED90E0909366
:10147000B6048093B50482ED90E09093B804809315
:10148000B70486ED90E09093BA048093B90410926B
:10149000BC041092BD041092BE041092BF040895C3
:1014A0001F920F920FB60F9211240BB60F922F932B
:1014B0008F939F93EF93FF93E0915005F091510527
:1014C0008081E0915605F091570582FD12C0908110
:1014D000809159058F5F8F7320915A05821751F0C3
:1014E000E0915905F0E0E05CFA4F958F8093590543
:1014F00001C08081FF91EF919F918F912F910F906B
:101500000BBE0F900FBE0F901F9018951F920F9259
:101510000FB60F9211240BB60F922F933F934F9358
:101520005F936F937F938F939F93AF93BF93EF934B
:10153000FF9380E495E0ADDCFF91EF91BF91AF9117
:101540009F918F917F916F915F914F913F912F91DB
:101550000F900BBE0F900FBE0F901F90189580E458
:1015600095E035DC21E0892B09F420E0822F0895F5
:10157000109243051092420588EE93E0A0E0B0E09F
:101580008093440590934505A0934605B093470585
:1015900081EE92E0909341058093400585E391E0D0
:1015A00090934D0580934C0584E391E090934F0513
:1015B00080934E0580E391E0909351058093500510
:1015C00081E391E0909353058093520582E391E08B
:1015D000909355058093540586E391E090935705C9
:1015E000809356051092590510925A0510925B058A
:1015F00010925C050895CF92DF92EF92FF920F93C5
:101600001F93CF93DF937C016A01EB0100E010E0B0
:101610000C151D0571F06991D701ED91FC910190B8
:10162000F081E02DC7011995892B19F00F5F1F4F2D
:10163000EFCFC801DF91CF911F910F91FF90EF90F5
:10164000DF90CF9008956115710581F0DB010D9059
:101650000020E9F7AD0141505109461B570BDC0151
:10166000ED91FC910280F381E02D199480E090E0EF
:101670000895DC01ED91FC91DB0114964D915C9194
:1016800015976D917C910280F381E02D1994DBCF49
:10169000DC01ED91FC910190F081E02D19946DEE4B
:1016A00072E0D1CF0F931F93CF93DF93EC01E1DF73
:1016B0008C01CE01F4DF800F911FDF91CF911F913C
:1016C0000F9108950F931F93CF93DF93EC01BBDF2E
:1016D0008C01CE01E4DF800F911FDF91CF911F912C
:1016E0000F910895FC018081918106C2CF93DF9311
:1016F000EC0188819981009709F0FED11982188246
:101700001D821C821B821A82DF91CF9108950F9354
:101710001F93CF93DF93EC018B016F5F7F4F888125
:10172000998179D2009731F0998388831B830A834A
:1017300081E001C080E0DF91CF911F910F9108956A
:10174000CF93DF93EC0188819981892B29F08A81DD
:101750009B818617970758F4CE01D9DF882341F083
:101760008C819D81892B19F4E881F981108281E0B7
:10177000DF91CF910895EF92FF920F931F93CF9334
:10178000DF93EC017B018A01BA01DADF811103C02A
:10179000CE01ACDF06C01D830C83B701888199811F
:1017A00032D3CE01DF91CF911F910F91FF90EF9037
:1017B0000895FC0111821082138212821582148214
:1017C0006115710551F0FB0101900020E9F7AF01AF
:1017D00041505109461B570BCECF0895CF93DF934D
:1017E000EC01FB018617970751F06081718161154B
:1017F000710521F044815581BEDF01C077DFCE0144
:10180000DF91CF910895CF93DF93EC0161157105BE
:1018100059F0FB0101900020E9F7AF014150510957
:10182000461B570BA8DF01C061DFCE01DF91CF91CE
:101830000895EF92FF920F931F93CF93DF93EC01E4
:101840007B010C811D816115710511F480E014C0CC
:101850004115510581F0040F151FB80171DF882370
:10186000A9F3288139818C819D81B701820F931F53
:10187000CAD21D830C8381E0DF91CF911F910F911C
:10188000FF90EF9008956115710551F0FB010190F3
:101890000020E9F7AF0141505109461B570BC9CF52
:1018A00080E00895CF93DF931F921F92CDB7DEB7EC
:1018B00069831A8241E050E0BE016F5F7F4FB9DF5C
:1018C0000F900F90DF91CF910895CF93DF93FC019C
:1018D000848195814817590770F4C081D181772799
:1018E00067FD7095CE01840F951F82D2009719F085
:1018F0008C1B9D0B02C08FEF9FEFDF91CF9108955E
:1019000040E050E0E2CFCF93DF93EC01CB012C819C
:101910003D816217730708F541155105F1F0B901D2
:10192000681B790B4617570708F4BA01E881F9815B
:10193000261B370B3D832C83A901481B590B680FCD
:10194000791F6E0F7F1F8E0F9F1F64D2E881F98170
:101950008C819D81E80FF91F1082DF91CF9108954E
:101960000895D3D9FDDF0E94B100C4E1D7E00E9401
:101970002A042097E1F358DAFACF0895A1E21A2E4B
:10198000AA1BBB1BFD010DC0AA1FBB1FEE1FFF1F23
:10199000A217B307E407F50720F0A21BB30BE40B73
:1019A000F50B661F771F881F991F1A9469F76095BA
:1019B0007095809590959B01AC01BD01CF01089574
:1019C0000790F691E02D1994CF93DF938230910523
:1019D00010F482E090E0E091DF05F091E00520E076
:1019E00030E0A0E0B0E0309739F1408151814817F4
:1019F0005907B8F04817590771F4828193811097FD
:101A000029F013969C938E9312972CC09093E00527
:101A10008093DF0527C02115310531F042175307A8
:101A200018F0A901DB0101C0EF019A01BD01DF013E
:101A30000280F381E02DD7CF21153105F9F0281B65
:101A4000390B2430310580F48A819B816115710541
:101A500021F0FB019383828304C09093E00580937F
:101A6000DF05FE01329644C0FE01E20FF31F8193B1
:101A7000919322503109398328833AC02091DD05A2
:101A80003091DE05232B41F42091020230910302B4
:101A90003093DE052093DD05209100023091010294
:101AA0002115310541F42DB73EB740910402509104
:101AB0000502241B350BE091DD05F091DE05E217F0
:101AC000F307A0F42E1B3F0B2817390778F0AC0161
:101AD0004E5F5F4F2417350748F04E0F5F1F50933E
:101AE000DE054093DD058193919302C0E0E0F0E0D4
:101AF000CF01DF91CF910895CF93DF93009709F441
:101B000087C0FC01329713821282C091DF05D09109
:101B1000E005209781F420813181280F391F8091C1
:101B2000DD059091DE058217930779F5F093DE05C8
:101B3000E093DD056DC0DE0120E030E0AE17BF07A9
:101B400050F412964D915C9113979D0141155105EA
:101B500009F1DA01F3CFB383A28340815181840F6D
:101B6000951F8A179B0771F48D919C911197840F93
:101B7000951F02969183808312968D919C91139765
:101B8000938382832115310529F4F093E005E093D6
:101B9000DF053EC0D9011396FC93EE9312974D9149
:101BA0005D91A40FB51FEA17FB0779F4808191813D
:101BB000840F951F0296D90111969C938E93828172
:101BC000938113969C938E931297E0E0F0E08A81C4
:101BD0009B81009719F0FE01EC01F9CFCE0102962E
:101BE00028813981820F931F2091DD053091DE0518
:101BF0002817390769F4309729F41092E0051092FC
:101C0000DF0502C013821282D093DE05C093DD058A
:101C1000DF91CF9108956F927F928F929F92AF92B2
:101C2000BF92CF92DF92EF92FF920F931F93CF93C9
:101C3000DF93EC01CB01209779F4DF91CF911F91D5
:101C40000F91FF90EF90DF90CF90BF90AF909F905B
:101C50008F907F906F90B8CEFE01E60FF71F9E0128
:101C600022503109E217F30708F4A8C0D9010D91F9
:101C70001C91119706171707B0F00530110508F4ED
:101C80009BC0A801445051094617570708F494C057
:101C900002501109061B170B019311936D937C934E
:101CA000CF012ADF89C05B01A01AB10A4E01800E64
:101CB000911EA091DF05B091E005612C712C60E0D0
:101CC00070E0109709F449C0A815B905C9F5ED9061
:101CD000FC901197670142E0C40ED11CCA14DB04CA
:101CE00078F147018A189B08640142E0C40ED11CB8
:101CF0001296BC9012971396AC91B5E0CB16D10416
:101D000040F0B282A38391828082D9018D939C930B
:101D100009C00E5F1F4F0E0D1F1DF90111830083B7
:101D2000EB2DFA2F6115710531F0DB011396FC9351
:101D3000EE93129741C0F093E005E093DF053CC0BD
:101D40006D917C9111976616770608F43B01BD01F1
:101D500012960D90BC91A02DB4CF6091DD057091CD
:101D6000DE0568157905E9F468167906D0F4409126
:101D70000002509101024115510541F44DB75EB783
:101D80006091040270910502461B570BE417F5079A
:101D9000A8F4F093DE05E093DD05F90191838083DB
:101DA0000BC012DE7C01009749F0A801BE0117D0DC
:101DB000CE01A2DEC70104C0CE0102C080E090E0E7
:101DC000DF91CF911F910F91FF90EF90DF90CF9017
:101DD000BF90AF909F908F907F906F900895FB0180
:101DE000DC0102C001900D9241505040D8F7089597
:101DF000FC018191861721F08823D9F7992708954E
:101E00003197CF010895FB01DC0101900D92002074
:101E1000E1F70895FB01DC014150504048F001908A
:101E20000D920020C9F701C01D9241505040E0F7CB
:101E3000089510E0CEEED0E000E005C02297010941
:101E4000FE010BBFBDDDC03FD10780E00807B1F741
:041E5000F894FFCF34
:101E54000000E105800053656E64696E6720546577
:101E640078742E2E2E0041542B434D47463D310DA0
:101E74000041542B434D4753203D20222B39300041
:101E84002200546578742053656E742E003B004123
:101E940054442B393000706167652062696C646951
:101EA40072690062696C64697269312E7478743D78
:101EB4000055544320534141543A00454E4C454D3E
:101EC4002020203A00424F594C414D20203A0048EE
:101ED400495A20202020203A004143492020202034
:101EE400203A0054415249482020203A0067707338
:101EF400766572692E7478743D004D4553414A20CD
:101F04004154494C49594F52004152414D41205985
:101F14004150494C49594F5200475053205645525D
:101F240049534920414C494E49594F520000000041
:101F3400008B07FB0AE7060007F2066A070D0A0092
:0C1F44006E616E00696E66006F766600CC
:00000001FF
