:1000000013C1000023C1000021C100001FC1000076
:100010001DC100001BC1000019C1000017C1000074
:1000200015C1000013C1000011C100000FC1000084
:100030000DC100000BC1000009C1000007C1000094
:1000400005C1000003C1000001C10000FFC00000A5
:10005000FDC00000FBC00000F9C0000048C1000066
:10006000F5C00000F3C00000F1C00000EFC00000C8
:10007000EDC00000EBC00000E9C00000E7C00000D8
:10008000E5C00000E3C00000E1C00000DFC00000E8
:10009000DDC00000DBC00000D9C00000D7C00000F8
:1000A000D5C00000D3C00000D1C00000CFC0000008
:1000B000CDC00000CBC00000C9C00000C7C0000018
:1000C000C5C00000C3C00000C1C00000BFC0000028
:1000D000BDC00000BBC00000B9C00000B7C0000038
:1000E000B5C0000083028602750279027F02BD025C
:1000F0008A028E02940298029C02A202A602AA021E
:10010000BD02B002B402B80200000A0B02090C0DD5
:100110000E080703040100000000000000000000BA
:1001200000000000000000000000000000000000CF
:10013000000000001211100000000000000000008C
:1001400000000000000000000000000000000102AC
:1001500010202008081020401020408002010201D9
:100160000804020101020408102040808040201091
:1001700008040201800402018040201008040201EA
:100180000804020101020408102040800102040852
:10019000102040800505050507050808080802022B
:1001A00002020A0A08080404040401010101010111
:1001B00001010303030303030303040707070C0CF4
:1001C0000C0C0C0C0C0C02020202060606060606BB
:1001D00006060B0B0B0B0B0B0B0B00002000230078
:1001E000260029002C002F0032000001000003012E
:1001F0000601090100002200250028002B002E0026
:100200003100340002010000050108010B0100006B
:100210002100240027002A002D00300033000101B6
:100220000000040107010A0111241FBECFEFD1E233
:10023000DEBFCDBF00E00CBF22E0A0E0B2E001C015
:100240001D92A930B207E1F730D241C2D9CE60E0A9
:1002500086E294D160E087E291D160E088E28ED1BD
:1002600060E089E28BD161E08BE288D161E08CE2D1
:1002700085D161E08DE282D161E08EE27FC186E2CC
:10028000EBD1892B39F064E170E080E090E09CD004
:1002900061E001C060E08BE2AAD187E2DDD1892B69
:1002A00039F064E170E080E090E08ED061E001C060
:1002B00060E08CE29CD188E2CFD1892B39F064E1F7
:1002C00070E080E090E080D061E001C060E08DE20D
:1002D0008ED189E2C1D1892B39F064E170E080E0F0
:1002E00090E072D061E001C060E08EE280C11F92B8
:1002F0000F920FB60F9211242F933F938F939F93DA
:10030000AF93BF938091010290910202A0910302EA
:10031000B09104023091000223E0230F2D3720F426
:100320000196A11DB11D05C026E8230F0296A11D4F
:10033000B11D209300028093010290930202A093CA
:100340000302B09304028091050290910602A091ED
:100350000702B09108020196A11DB11D809305020C
:1003600090930602A0930702B0930802BF91AF9149
:100370009F918F913F912F910F900FBE0F901F90E3
:1003800018953FB7F8948091050290910602A091CC
:100390000702B091080226B5A89B05C02F3F19F0AF
:1003A0000196A11DB11D3FBF6627782F892F9A2F77
:1003B000620F711D811D911D42E0660F771F881F1E
:1003C000991F4A95D1F70895CF92DF92EF92FF924D
:1003D000CF93DF936B017C01D4DFEB01C114D10417
:1003E000E104F10479F06CD1CCDF6C1B7D0B683E2D
:1003F0007340A0F381E0C81AD108E108F108C851A0
:10040000DC4FECCFDF91CF91FF90EF90DF90CF905A
:100410000895789484B5826084BD84B5816084BD7C
:1004200085B5826085BD85B5816085BDEEE6F0E06D
:10043000808181608083E1E8F0E0108280818260C9
:100440008083808181608083E0E8F0E0808181604A
:100450008083E1EBF0E0808184608083E0EBF0E07A
:10046000808181608083E1E9F0E080818260808327
:10047000808181608083E0E9F0E080818160808319
:10048000E1EAF0E080818260808380818160808306
:10049000E0EAF0E0808181608083E1E2F1E0808148
:1004A00082608083808181608083E0E2F1E08081EE
:1004B00081608083EAE7F0E08081846080838081CE
:1004C0008260808380818160808380818068808376
:1004D0001092C100089590E0FC013197E231F105DE
:1004E00008F04BC0EE58FF4FECC0809180008F7732
:1004F00003C0809180008F7D80938000089580915B
:100500008000877FF9CF84B58F7702C084B58F7D57
:1005100084BD08958091B0008F7703C08091B000B2
:100520008F7D8093B0000895809190008F7707C0F1
:10053000809190008F7D03C080919000877F809391
:10054000900008958091A0008F7707C08091A0004F
:100550008F7D03C08091A000877F8093A0000895C5
:10056000809120018F7707C0809120018F7D03C08B
:1005700080912001877F809320010895CF93DF939E
:1005800090E0FC01E25BFE4F2491FC01EC56FE4F33
:100590008491882349F190E0880F991FFC01E25F64
:1005A000FD4FA591B4918C509E4FFC01C591D49103
:1005B0009FB7611108C0F8948C91209582238C9389
:1005C000888182230AC0623051F4F8948C91322FD2
:1005D000309583238C938881822B888304C0F89480
:1005E0008C91822B8C939FBFDF91CF9108950F93B5
:1005F0001F93CF93DF931F92CDB7DEB7282F30E044
:10060000F901E85FFE4F8491F901E25BFE4F14911E
:10061000F901EC56FE4F04910023C1F0882319F034
:10062000698359DF6981E02FF0E0EE0FFF1FEC5086
:10063000FE4FA591B4919FB7F8948C91611103C0BE
:100640001095812301C0812B8C939FBF0F90DF9168
:10065000CF911F910F910895CF93DF93282F30E012
:10066000F901E85FFE4F8491F901E25BFE4FD491FE
:10067000F901EC56FE4FC491CC2389F081112BDF98
:10068000EC2FF0E0EE0FFF1FE652FE4FA591B49164
:100690002C912D2381E090E021F480E002C080E0E5
:1006A00090E0DF91CF9108950895B3DEFDDFCFDDB7
:1006B000C0E0D0E0E4DD2097E9F30E940000FACF2B
:1006C0000895EE0FFF1F0590F491E02D1994F89412
:0206D000FFCF5A
:00000001FF
