:1000000007C1000033C1000031C100002FC1000052
:100010002DC100002BC1000029C1000027C1000034
:1000200025C1000023C1000021C100001FC1000044
:100030001DC100001BC1000019C1000017C1000054
:1000400015C1000013C1000011C100000FC1000064
:100050000DC100000BC1000009C1000085C20000F5
:1000600005C1000003C1000001C10000FFC0000085
:10007000FDC00000FBC00000F9C00000F7C0000098
:10008000F5C00000F3C00000F1C00000EFC00000A8
:10009000EDC00000EBC00000E9C00000E7C00000B8
:1000A000E5C00000E3C00000E1C00000DFC00000C8
:1000B000DDC00000DBC00000D9C00000D7C00000D8
:1000C000D5C00000D3C00000D1C00000CFC00000E8
:1000D000CDC00000CBC00000C9C00000C7C00000F8
:1000E000C5C00000CB03CE03BD03C103C703050495
:1000F000D203D603DC03E003E403EA03EE03F203D6
:100100000504F803FC03000400000A0B02090C0DAF
:100110000E080703040100000000000000000000BA
:1001200000000000000000000000000000000000CF
:10013000000000001211100000000000000000008C
:1001400000000000000000000000000000000102AC
:1001500010202008081020401020408002010201D9
:100160000804020101020408102040808040201091
:1001700008040201800402018040201008040201EA
:100180000804020101020408102040800102040852
:10019000102040800505050507050808080802022B
:1001A00002020A0A08080404040401010101010111
:1001B00001010303030303030303040707070C0CF4
:1001C0000C0C0C0C0C0C02020202060606060606BB
:1001D00006060B0B0B0B0B0B0B0B00002200250074
:1001E00028002B002E003100340002010000050120
:1001F00008010B0100002100240027002A002D0027
:100200003000330001010000040107010A0161010F
:1002100011241FBECFEFD1E2DEBFCDBF00E00CBF87
:1002200012E0A0E0B2E0E8E9F9E000E00BBF02C0B4
:1002300007900D92A631B107D9F722E0A6E1B2E00E
:1002400001C01D92A733B207E1F712E0C0E1D2E08E
:1002500000E005C022970109FE010BBF97D3CE3005
:10026000D10780E00807B1F77FD394C3C9CE61E01E
:100270008FE1CCD261E083E2C9D220E042E060E1CC
:1002800086E192E0C7D060E072E086E192E06AC366
:1002900060E08FE1F4D260E083E2F1D286E192E0A7
:1002A000ACD06CED75E080E090E0CBD186E192E0DF
:1002B000AAD061E08FE1E3D26CED75E080E090E0E0
:1002C000C0C1CF92EF920F938DE1C82E9CE1E92E31
:1002D0000BE12AE145E264E286E192E021D10F914F
:1002E000EF90CF900895CF93DF93EC0160E08E8183
:1002F000C6D281E090E0CAD161E08E81C0D281E0B7
:1003000090E0C4D160E08E81BAD284E690E0DF91C3
:10031000CF91BCC1EF92FF920F931F93CF93DF93C6
:100320008C01C0E0D0E0E62EF12CB7010C2E02C00B
:10033000759567950A94E2F76170F801EC0FFD1F5F
:1003400087819DD22196C430D10579F7C801DF910C
:10035000CF911F910F91FF90EF90C5CFEF92FF9239
:100360000F931F93CF93DF938C01C0E0D0E0E62E74
:10037000F12CB7010C2E02C0759567950A94E2F72F
:100380006170F801EC0FFD1F878179D22196C8308A
:10039000D10579F7C801DF91CF911F910F91FF909F
:1003A000EF90A1CF1F93CF93DF93EC01162F642F13
:1003B0008C8165D28D818F3F11F060E060D28F8596
:1003C000612F84FF05C0CE01DF91CF911F91C6CF71
:1003D00070E084E0759567958A95E1F7CE019ADF24
:1003E000612FCE01DF91CF911F9194CF40E0DACF02
:1003F00061E0FCDF80ED97E049C1FC0160896B7F23
:10040000608B6860F3CFFC016089262F2460208B0D
:100410006C60ECCF0F931F93CF93DF93EC014230CE
:1004200018F08F8588608F874B8B1C8A80E48D8BBA
:100430006E8B70E0605C7F4F6F8B222329F0413020
:1004400019F48F8584608F8761E08C81DFD18D8185
:100450008F3F11F061E0DAD161E08E81D7D100E009
:1004600010E08F8584FF03C088E090E002C084E044
:1004700090E0081719074CF4FE01E00FF11F61E04E
:100480008781C4D10F5F1F4FECCF80E593ECFED086
:1004900060E08C81F4D160E08E81F1D18D818F3F5D
:1004A00011F060E0ECD16F8564FD16C063E0CE0111
:1004B00031DF84E991E1EAD063E0CE012BDF84E90A
:1004C00091E1E4D063E0CE0125DF86E990E0DED063
:1004D00062E0CE011FDF11C06062CE0187DF84E9D8
:1004E00091E1D4D06F856062CE0180DF86E990E033
:1004F000CDD06F856062CE0179DF6F856062CE01FD
:1005000075DF84E0888BCE017EDFCE0171DF82E073
:10051000898B66E0CE01DF91CF911F910F9166CF5D
:10052000CF92EF920F93FC011382128282E192E04C
:100530009183808364838FEF85834683278300873D
:10054000E186C2861386148615861686178620E0F5
:1005500041E060E1CF010F91EF90CF905BCF41E0A0
:1005600021DF81E090E008951F920F920FB60F9265
:1005700011242F933F938F939F93AF93BF938091B9
:100580002F0290913002A0913102B091320230914D
:100590002E0223E0230F2D3720F40196A11DB11D5B
:1005A00005C026E8230F0296A11DB11D20932E023F
:1005B00080932F0290933002A0933102B0933202C5
:1005C0008091330290913402A0913502B0913602AD
:1005D0000196A11DB11D8093330290933402A09324
:1005E0003502B0933602BF91AF919F918F913F91A9
:1005F0002F910F900FBE0F901F9018953FB7F89452
:100600008091330290913402A0913502B09136026C
:1006100026B5A89B05C02F3F19F00196A11DB11D5D
:100620003FBF6627782F892F9A2F620F711D811D7A
:10063000911D42E0660F771F881F991F4A95D1F7D9
:100640000895CF92DF92EF92FF92CF93DF936B01E9
:100650007C01D4DFEB01C114D104E104F10479F091
:100660008ED1CCDF6C1B7D0B683E7340A0F381E024
:10067000C81AD108E108F108C851DC4FECCFDF916E
:10068000CF91FF90EF90DF90CF9008958230910549
:1006900038F0880F991F880F991F05970197F1F778
:1006A0000895789484B5826084BD84B5816084BDEA
:1006B00085B5826085BD85B5816085BDEEE6F0E0DB
:1006C000808181608083E1E8F0E010828081826037
:1006D0008083808181608083E0E8F0E080818160B8
:1006E0008083E1EBF0E0808184608083E0EBF0E0E8
:1006F000808181608083E1E9F0E080818260808395
:10070000808181608083E0E9F0E080818160808386
:10071000E1EAF0E080818260808380818160808373
:10072000E0EAF0E0808181608083E1E2F1E08081B5
:1007300082608083808181608083E0E2F1E080815B
:1007400081608083EAE7F0E080818460808380813B
:1007500082608083808181608083808180688083E3
:100760001092C100089590E0FC013197E231F1054B
:1007700008F04BC0EE58FF4F03C1809180008F7787
:1007800003C0809180008F7D8093800008958091C8
:100790008000877FF9CF84B58F7702C084B58F7DC5
:1007A00084BD08958091B0008F7703C08091B00020
:1007B0008F7D8093B0000895809190008F7707C05F
:1007C000809190008F7D03C080919000877F8093FF
:1007D000900008958091A0008F7707C08091A000BD
:1007E0008F7D03C08091A000877F8093A000089533
:1007F000809120018F7707C0809120018F7D03C0F9
:1008000080912001877F809320010895CF93DF930B
:1008100090E0FC01E25BFE4F2491FC01EC56FE4FA0
:100820008491882349F190E0880F991FFC01EC50D6
:10083000FE4FA591B49186529E4FFC01C591D49173
:100840009FB7611108C0F8948C91209582238C93F6
:10085000888182230AC0623051F4F8948C91322F3F
:10086000309583238C938881822B888304C0F894ED
:100870008C91822B8C939FBFDF91CF9108950F9322
:100880001F93CF93DF931F92CDB7DEB7282F30E0B1
:10089000F901E85FFE4F8491F901E25BFE4F14918C
:1008A000F901EC56FE4F04910023C1F0882319F0A2
:1008B000698359DF6981E02FF0E0EE0FFF1FE652F8
:1008C000FE4FA591B4919FB7F8948C91611103C02C
:1008D0001095812301C0812B8C939FBF0F90DF91D6
:1008E000CF911F910F910895CF92DF92EF92FF92D7
:1008F0000F931F93CF93DF937C016A01EB0100E01C
:1009000010E00C151D0571F06991D701ED91FC9176
:100910000190F081E02DC7011995892B19F00F5F27
:100920001F4FEFCFC801DF91CF911F910F91FF9023
:10093000EF90DF90CF9008956115710581F0DB0194
:100940000D900020E9F7AD0141505109461B570BAE
:10095000DC01ED91FC910280F381E02D199480E09F
:1009600090E00895E9CF08959CDEFDDF80DCC0E0D3
:10097000D0E08EDC2097E9F30E940000FACF0895C2
:10098000EE0FFF1F0590F491E02D19940790F6915A
:08099000E02D1994F894FFCF4B
:100998002020202020474E44204B4954530000007B
:0609A8000000AF02740420
:00000001FF
