:1000000060C100008FC100008DC100008BC10000E5
:1000100089C1000087C1000085C1000083C10000C4
:1000200081C100007FC100007DC100007BC10000D4
:1000300079C1000077C1000075C1000073C10000E4
:1000400071C100006FC100006DC100006BC10000F4
:1000500069C1000067C1000065C1000036C700002B
:1000600061C100000C942A0A0C94600A5BC1000074
:1000700059C1000057C1000055C1000053C1000024
:1000800051C100004FC100004DC100004BC1000034
:1000900049C1000047C1000045C1000043C1000044
:1000A00041C100003FC100003DC100003BC1000054
:1000B00039C1000037C1000035C1000033C1000064
:1000C00031C100002FC100002DC100002BC1000074
:1000D00029C1000027C1000025C1000023C1000084
:1000E00021C10000005EBCE2613FDD83C29C7E2036
:1000F000A3FD1F419DC3217FFCA2401E5F01E3BD04
:100100003E6082DC237D9FC1421CFEA0E1BF5D03F7
:1001100080DE3C62BEE0025CDF81633D7C22C09EEB
:100120001D43A1FF4618FAA427799BC584DA3866D7
:10013000E5BB5907DB856739BAE406581947A5FBC3
:100140007826C49A653BD987045AB8E6A7F91B45B7
:10015000C6987A24F8A6441A99C7257B3A6486D8AB
:100160005B05E7B98CD2306EEDB3510F4E10F2AC97
:100170002F7193CD114FADF3702ECC92D38D6F3183
:10018000B2EC0E50AFF1134DCE90722C6D33D18F77
:100190000C52B0EE326C8ED0530DEFB1F0AE4C126B
:1001A00091CF2D73CA947628ABF517490856B4EA57
:1001B0006937D58B5709EBB536688AD495CB297743
:1001C000F4AA4816E9B7550B88D6346A2B7597C937
:1001D0004A14F6A8742AC896154BA9F7B6E80A542B
:1001E000D7896B350102102020080810204010200C
:1001F00040800201020108040201010204081020EB
:1002000040808040201008040201800402018040E8
:100210002010080402010804020101020408102051
:1002200040800102040810204080050505050705EF
:1002300008080808020202020A0A08080404040462
:10024000010101010101010103030303030303038E
:10025000040707070C0C0C0C0C0C0C0C020202021D
:1002600006060606060606060B0B0B0B0B0B0B0B06
:10027000000020002300260029002C002F0032005F
:100280000001000003010601090100002200250011
:1002900028002B002E00310034000201000005016F
:1002A00008010B0100002100240027002A002D0076
:1002B0003000330001010000040107010A0171024E
:1002C000920A11241FBECFEFD1E2DEBFCDBF00E006
:1002D0000CBF13E0A0E0B2E0E0E7FEE100E00BBFFE
:1002E00002C007900D92A031B107D9F723E0A0E139
:1002F000B3E001C01D92AF3DB207E1F712E0C2ECDE
:10030000D2E000E006C022970109FE010BBF0E9467
:100310001E0FCE3BD10780E00807A9F70E94BD0C55
:100320000C94360F6DCECF92DF92EF92FF92BC010C
:1003300088E193E0C8D56B017C0160E072E082E463
:1003400093E00E94130B22E030E0B701A60182E4A3
:1003500093E00E94AB0C69E072E082E493E00E94BB
:10036000130BC701B60191D5AB01BC0122E030E00F
:1003700082E493E0FF90EF90DF90CF900C94AC0C70
:1003800063E172E082E493E00E94130B88E193E062
:1003900006D56EE272E082E493E00E941E0B80E1DB
:1003A00093E0C1CFFF920F931F93CF93DF93EC01A4
:1003B00088E0F82E8E018881803130F460EC72E0A4
:1003C00082E493E00E94130B219640E150E0F80193
:1003D000608182E493E00E94CE0BFA9459F768EEB4
:1003E00073E080E090E0DF91CF911F910F91FF903B
:1003F000E5C526E040E05BE460E070E082E493E085
:10040000C9D763E372E082E493E00E941E0B6EE5BD
:1004100072E082E493E00E94130B88E193E0E7D35B
:1004200062E772E082E493E00E94130B88E193E0BC
:1004300060D24AE050E0682F82E493E00E94CE0B45
:1004400069E772E082E493E00E941E0B63E872E0C9
:1004500082E493E00E94130B88E193E013D5882394
:1004600019F067E972E002C06AE972E082E493E0A1
:100470000E941E0B40E060E173E088E193E04AD205
:10048000811106C06EE972E082E493E00E941E0BC7
:1004900062EC72E082E493E00E94130B80E193E04F
:1004A00081DF82E493E00E941B0B49E060E173E08E
:1004B00088E193E029D365ED72E082E493E00E9445
:1004C000130B60E173E088E193E060D34AE050E011
:1004D000682F82E493E00E94CE0B82E493E00C94B8
:1004E0001B0B6EE18BE293E02FD16BE273E088E1AE
:1004F00093E0F0C1FF920F931F93CF93DF93FC0122
:100500000081C181D281F8948981F02EF0948F21ED
:10051000898378941DE7115009F182E090E085D538
:1005200088818023C1F3F8948A818F218A8389810D
:10053000802B8983789480EE91E077D5F894898137
:100540008F21898386E490E070D58881802311E033
:1005500009F010E078948AE991E067D5812FDF9166
:10056000CF911F910F91FF9008951F93CF93DF9329
:10057000FC011081C181D281912F909560FF11C043
:10058000F8948A8189238A838981812B89838AE0EF
:1005900090E04BD58A81812B8A83789487E390E021
:1005A00010C0F8948A8189238A838981812B898369
:1005B00081E490E03AD58A81812B8A83789485E022
:1005C00090E0DF91CF911F9130C50F931F93CF9390
:1005D000DF93FC011081C181D281F8948981812B44
:1005E00089838A81012F009580238A8383E090E0AC
:1005F0001CD58981802389838AE090E016D5C88143
:10060000789485E390E011D51C2381E009F480E023
:10061000DF91CF911F910F910895CF92DF92EF92CA
:10062000FF920F931F93CF93DF931F92CDB7DEB747
:100630006C01E62E08E010E0FF24F39461E09F2DAA
:100640009E2109F460E0C60149838FDFFF0C015051
:10065000110949810115110589F7411115C0F89457
:10066000D6011196ED91FC91129791818C91809514
:10067000892381831196ED91FC91129792818C913F
:1006800080958923828378940F90DF91CF911F9179
:100690000F91FF90EF90DF90CF900895EF92FF922F
:1006A0000F931F93CF93DF938C01C8E0D0E0F12C20
:1006B000EE24E394C80189DF8111FE28EE0C219716
:1006C000C9F78F2DDF91CF911F910F91FF90EF9080
:1006D0000895CF92DF92FF920F931F93CF93DF93F2
:1006E0001F92CDB7DEB78C01F62E40E065E5798329
:1006F00094DFCF2C7981D72E88E0F82EF601619116
:100700006F0140E0C80189DFFA94C1F70F90DF91D3
:10071000CF911F910F91FF90DF90CF90089540E00F
:100720006CEC7BCFFC0113861586148627E030E045
:10073000DF01A20FB31F13961C922115310519F08A
:1007400021503109F5CF08951F93CF93DF93EC012A
:10075000162F60E0812FD6D4612F70E0FB01EC51A1
:10076000FE4FE491E883FB01E65DFD4FE491F0E08C
:10077000EE0FFF1FE059FD4F859194919A83898375
:10078000CE01DF91CF911F91CDCFAF92BF92CF928B
:10079000DF92EF92FF920F931F93CF93DF931F92FD
:1007A000CDB7DEB75C01D62EE72EFC018585811121
:1007B0005FC0C50149839EDE4981811105C0F501F5
:1007C0001386158614866DC0442319F040E060EF4F
:1007D00002C040E06CEEC50120DF01E0F12CC12C2D
:1007E00011E0C501F2DE682FC5016983EEDE698183
:1007F000613019F48130B9F432C02F2D30E0681324
:100800001BC0F5018385181730F4E20FF31F8381B5
:10081000802349F402C0181731F060E0193058F411
:10082000F501148708C0F501EF0DF11D8381802BC0
:10083000838361E009C0C12EF501E20FF31F8381BC
:10084000902F909589238383C5018FDE1F5F000F52
:1008500011F4F39401E0F7E0FF1508F0C2CF113472
:1008600038F0F501C386C11009C081E0858706C054
:10087000F50113861586148680E013C0F501838187
:100880008823B1F3ED2DFE2D80E090E0D501A80F77
:10089000B91F13962C912193019688309105B1F7D9
:1008A00081E00F90DF91CF911F910F91FF90EF901A
:1008B000DF90CF90BF90AF900895DC0180E0615051
:1008C00038F0ED91E827F0E0EC51FF4F8491F7CF3D
:1008D00008950895FC0189E694E0928B818B7683DC
:1008E00065831482108289E0818381E0828383831F
:1008F0000895FC0184810895CF93DF93EB0167E0B5
:10090000CE01DBDF91E02F81821390E0892FDF9110
:10091000CF910895EF92FF920F931F93CF93DF93A0
:10092000EC018B01E42E8D819E81FCDEF12C41E0F7
:10093000B8018D819E8129DF882351F0FE1005C00A
:10094000B801CE01D9DF811104C0F394EF1478F718
:1009500080E0DF91CF911F910F91FF90EF9008956C
:10096000CF92DF92EF92FF920F931F93CF93DF937B
:100970001F921F92CDB7DEB76C01F42EE52EFC015D
:100980008581968169837A83B5DD69817A8188233F
:10099000F1F0F601858196819CDE40E06EEBF60178
:1009A000858196813ADE0F2D1E2D89E0F82EF60105
:1009B0008581968173DEF80181938F01FA94B9F7EE
:1009C000F6018581968196DD91E0813009F090E015
:1009D000892F0F900F90DF91CF911F910F91FF9072
:1009E000EF90DF90CF900895CF93DF93EA01B8DFC7
:1009F000882349F068E0CE0160DF91E0288582130A
:100A000090E0892F01C080E0DF91CF910895EF92AF
:100A1000FF920F931F93CF93DF93EC018B017A0129
:100A20008D819E8167DDB8018D819E8152DE40E01F
:100A30006EE48D819E81F1DD40E0F70162818D8160
:100A40009E81EBDD40E0F70163818D819E81E5DDD4
:100A5000F8018081803131F040E0F70164818D81BF
:100A60009E81DBDD8D819E8145DDB8018D819E817A
:100A700030DE488168E48D819E81CFDD64E170E0E5
:100A800080E090E09BD28881882329F06AE070E0C2
:100A900080E090E093D28D819E81DF91CF911F9174
:100AA0000F91FF90EF9026CDEF92FF921F93CF937F
:100AB000DF931F921F92CDB7DEB77C01FC018581C9
:100AC000968169837A8316DD69817A81F701858150
:100AD0009681FFDD40E064EBF701858196819DDD25
:100AE000F7018581968171DD182FF7018581968147
:100AF00001DD81E0111180E00F900F90DF91CF9127
:100B00001F91FF90EF900895EF92FF920F931F9324
:100B1000CF93DF93CDB7DEB72A970FB6F894DEBF39
:100B20000FBECDBF7C018B01242FAE014F5F5F4F05
:100B30002A875ADF2A858823C9F0F801808180310D
:100B4000B9F02B3041F02C3021F02A3031F48FE312
:100B500005C08FE703C08FE501C08FE18D83AE0133
:100B60004F5F5F4FB801C70152DF02C080E001C094
:100B700081E02A960FB6F894DEBF0FBECDBFDF919D
:100B8000CF911F910F91FF90EF900895CF93DF9336
:100B9000CDB7DEB729970FB6F894DEBF0FBECDBF35
:100BA000FB0120812031C9F0AE014F5F5F4F1CDF98
:100BB000882379F08D818F3351F020F48F3149F4FF
:100BC00089E00CC08F3539F08F3739F002C08AE0E8
:100BD00005C080E003C08BE001C08CE029960FB611
:100BE000F894DEBF0FBECDBFDF91CF910895FF9285
:100BF0000F931F93CF93DF93CDB7DEB761970FB6F7
:100C0000F894DEBF0FBECDBF8C01FC0185819681BB
:100C100089DDF801148241E0BE01665F7F4FF80173
:100C200085819681B2DD8823A9F1BE01665F7F4F81
:100C3000C80162DE882379F3F8018081811107C041
:100C4000BE01665F7F4FC8012FDF81111FC0AE015B
:100C50004F5F5F4FBE01665F7F4FC80181DEF801C5
:100C6000F180BE01665F7F4FC80190DF8F1518F4D9
:100C7000F801818105C0BE01665F7F4FC80186DF34
:100C8000F801818384818F5F8483C5CF81E0F8017F
:100C90008083DDCF61960FB6F894DEBF0FBECDBF67
:100CA000DF91CF911F910F91FF900895CF93DF9324
:100CB000CDB7DEB729970FB6F894DEBF0FBECDBF14
:100CC000AE014F5F5F4F4CDE81E09981911101C011
:100CD00080E029960FB6F894DEBF0FBECDBFDF913E
:100CE000CF9108958F929F92AF92BF92CF92DF9251
:100CF000EF92FF920F931F93CF93DF93EC018A0142
:100D00006950633048F4E62FF0E0EE0FFF1FE55125
:100D1000FD4F8080918004C09EEE892E92E0992E36
:100D200001151105E9F08B818823D1F088818111AB
:100D300017C015D16B017C01AA2497FCA094BA2C92
:100D4000B801CE01B3DF81111DC009D1681979093D
:100D50008A099B096C157D058E059F0598F4F0CFD7
:100D6000B401882777FD8095982FDF91CF911F914F
:100D70000F91FF90EF90DF90CF90BF90AF909F903A
:100D80008F901CC1DF91CF911F910F91FF90EF9039
:100D9000DF90CF90BF90AF909F908F900895CF93AA
:100DA000DF93EC018D819E81A5DB8D819E81B7DC77
:100DB000488164E48D819E8130DC8A81882339F00A
:100DC00040E050E06981CE01DF91CF918BCFDF9180
:100DD000CF910895FA01208148E0249F90011124C9
:100DE000818190E0982F8827990F990F990F282BD0
:100DF000392BDB018C918031B9F4678170E08681F9
:100E0000AB01481B5109CA019695982F88279795E1
:100E10008795DFD760517109207F53E0220F331F80
:100E20005A95E1F7260F371FC9010895EF92FF92F7
:100E30000F931F93CF93DF93CDB7DEB729970FB6EC
:100E4000F894DEBF0FBECDBF8C017B01AE014F5FBA
:100E50005F4FCADD882339F0AE014F5F5F4FB701A6
:100E6000C801B8DF02C080E894EE29960FB6F89466
:100E7000DEBF0FBECDBFDF91CF911F910F91FF90CD
:100E8000EF900895FC018081089526E636E646EE4F
:100E90005FE338D720E030E040E052E47CC58138A1
:100EA00024EE92075CF0BC01882777FD8095982F8F
:100EB00075D620E030E040E05CE324C760E070E0FD
:100EC0008EEF92EC0895B2DFEACF1F920F920FB629
:100ED0000F9211242F933F938F939F93AF93BF93C0
:100EE00080913A0390913B03A0913C03B0913D0364
:100EF0003091390323E0230F2D3720F40196A11DF3
:100F0000B11D05C026E8230F0296A11DB11D209337
:100F1000390380933A0390933B03A0933C03B0932F
:100F20003D0380913E0390913F03A0914003B09117
:100F300041030196A11DB11D80933E0390933F0391
:100F4000A0934003B0934103BF91AF919F918F91C4
:100F50003F912F910F900FBE0F901F9018952FB7B4
:100F6000F89460913A0370913B0380913C03909117
:100F70003D032FBF08953FB7F89480913E039091B1
:100F80003F03A0914003B091410326B5A89B05C043
:100F90002F3F19F00196A11DB11D3FBF6627782F85
:100FA000892F9A2F620F711D811D911D42E0660FDE
:100FB000771F881F991F4A95D1F708958F929F92A6
:100FC000AF92BF92CF92DF92EF92FF926B017C01C2
:100FD000D2DF4B015C01C114D104E104F104E1F062
:100FE000D8D4C9DF681979098A099B09683E73401A
:100FF0008105910580F321E0C21AD108E108F108CA
:1010000088EE880E83E0981EA11CB11CC114D10487
:10101000E104F10431F7DFCFFF90EF90DF90CF9044
:10102000BF90AF909F908F9008958230910538F0D7
:10103000880F991F880F991F05970197F1F7089559
:10104000789484B5826084BD84B5816084BD85B5A3
:10105000826085BD85B5816085BDEEE6F0E080816A
:1010600081608083E1E8F0E010828081826080838B
:10107000808181608083E0E8F0E08081816080830E
:10108000E1EBF0E0808184608083E0EBF0E0808140
:1010900081608083E1E9F0E08081826080838081EB
:1010A00081608083E0E9F0E0808181608083E1EA13
:1010B000F0E0808182608083808181608083E0EACB
:1010C000F0E0808181608083E1E2F1E080818260F4
:1010D0008083808181608083E0E2F1E080818160B3
:1010E0008083EAE7F0E08081846080838081826091
:1010F000808380818160808380818068808310927A
:10110000C1000895CF93DF9390E0FC01EC51FE4FB6
:101110002491FC01E65DFD4F8491882349F190E024
:10112000880F991FFC01EC55FD4FA591B49186578E
:101130009D4FFC01C591D4919FB7611108C0F894EF
:101140008C91209582238C93888182230AC06230FF
:1011500051F4F8948C91322F309583238C938881AD
:10116000822B888304C0F8948C91822B8C939FBF30
:10117000DF91CF910895FC01818D228D90E0805CFC
:101180009F4F821B91098F7399270895FC01918DC0
:10119000828D981731F0828DE80FF11D858D90E0DA
:1011A00008958FEF9FEF0895FC01918D828D981720
:1011B00061F0828DDF01A80FB11D5D968C91928D3B
:1011C0009F5F9F73928F90E008958FEF9FEF089538
:1011D00089E89AE0892B39F080E090E0892B19F0BA
:1011E00098D1811125C080E090E0892B41F080E00A
:1011F00090E0892B21F00E94000081111CC080E04A
:1012000090E0892B41F080E090E0892B21F00E9452
:101210000000811113C080E090E0892BA1F080E0F4
:1012200090E0892B81F00E94000081110AC008958E
:101230000E940000D8CF0E940000E1CF0E94000071
:10124000EACF0C9400000895FC01848DDF01A80F03
:10125000B11DA35ABF4F2C91848D90E001968F73DE
:101260009927848FA689B7892C93A089B1898C91FD
:1012700080648C93938D848D981306C00288F389C3
:10128000E02D80818F7D80830895CF93DF93EC01E3
:10129000888D8823C1F0EA89FB89808185FD05C09E
:1012A000A889B9898C9186FD0EC00FB607FCF5CFD1
:1012B000808185FFF2CFA889B9898C9185FFEDCF18
:1012C000CE01C2DFE8CFDF91CF910895CF92DF92B8
:1012D000FF920F931F93CF93DF931F92CDB7DEB78B
:1012E0006C0181E0D60158968C9358975B969C913F
:1012F0005B975C968C915C97981307C05096ED9124
:10130000FC915197808185FD2DC0F601038D10E081
:101310000F5F1F4F0F731127F02EF601848DF81207
:1013200010C00FB607FCF9CFD6015096ED91FC9195
:101330005197808185FFF1CFC601698385DF69817F
:10134000ECCF838DE80FF11DE35AFF4F6083D60188
:101350005B960C935B975296ED91FC91539780812D
:1013600080620CC0D6015696ED91FC915797608330
:101370005096ED91FC91519780818064808381E04B
:1013800090E00F90DF91CF911F910F91FF90DF9030
:10139000CF900895BF92CF92DF92EF92FF92CF93BA
:1013A000DF93EC016A017B01B22EE889F98982E0C2
:1013B0008083411581EE58076105710599F060E061
:1013C00079E08DE390E0A701960116D5215031090F
:1013D000410951095695479537952795211580E183
:1013E000380790F0E889F989108260E874E88EE1A6
:1013F00090E0A701960100D521503109410951091A
:101400005695479537952795EC85FD853083EE8574
:10141000FF852083188EEC89FD89B082EA89FB89DB
:10142000808180618083EA89FB89808188608083F4
:10143000EA89FB89808180688083EA89FB898081D1
:101440008F7D8083DF91CF91FF90EF90DF90CF90E1
:10145000BF9008951F920F920FB60F9211240BB6F2
:101460000F922F938F939F93EF93FF93E0915203EB
:10147000F09153038081E0915803F091590382FD6C
:1014800012C0908180915B038F5F8F7320915C030A
:10149000821751F0E0915B03F0E0EE5BFC4F958F1B
:1014A00080935B0301C08081FF91EF919F918F91A9
:1014B0002F910F900BBE0F900FBE0F901F9018959D
:1014C0001F920F920FB60F9211240BB60F922F930B
:1014D0003F934F935F936F937F938F939F93AF93BC
:1014E000BF93EF93FF9382E493E0AEDEFF91EF9121
:1014F000BF91AF919F918F917F916F915F914F912C
:101500003F912F910F900BBE0F900FBE0F901F9029
:10151000189582E493E02FDE21E0892B09F420E086
:10152000822F0895109245031092440388EE93E0B1
:10153000A0E0B0E08093460390934703A093480354
:10154000B093490385EF92E0909343038093420365
:1015500085EC90E090934F0380934E0384EC90E0F1
:10156000909351038093500380EC90E09093530349
:101570008093520381EC90E0909355038093540341
:1015800082EC90E0909357038093560386EC90E0B2
:10159000909359038093580310925B0310925C035D
:1015A00010925D0310925E030895CF92DF92EF9246
:1015B000FF920F931F93CF93DF937C016A01EB019E
:1015C00000E010E00C151D0571F06991D701ED9157
:1015D000FC910190F081E02DC7011995892B19F03C
:1015E0000F5F1F4FEFCFC801DF91CF911F910F9178
:1015F000FF90EF90DF90CF9008956115710581F015
:10160000DB010D900020E9F7AD0141505109461B67
:10161000570BDC01ED91FC910280F381E02D1994D0
:1016200080E090E00895E9CFDC01ED91FC9101901C
:10163000F081E02D199461E073E0DFCF0F931F93E9
:10164000CF93DF93EC01D9DF8C01CE01F4DF800F63
:10165000911FDF91CF911F910F9108958F929F92CB
:10166000AF92BF92DF92EF92FF920F931F93CF93AF
:10167000DF93CDB7DEB7A1970FB6F894DEBF0FBEEC
:10168000CDBF7C01F42FD52ECB0119A2223008F456
:101690002AE08E010F5D1F4F822E912CA12CB12CC0
:1016A0006F2F7D2DA5019401A7D3F22FD32ECA0150
:1016B000015011096A3014F4E0E301C0E7E3E60FDA
:1016C000D801EC93232B242B252B51F7B801C7010C
:1016D00094DFA1960FB6F894DEBF0FBECDBFDF91A9
:1016E000CF911F910F91FF90EF90DF90BF90AF903F
:1016F0009F908F900895CF92DF92EF92FF920F9379
:101700001F93CF93DF93EC016A017B012115310513
:1017100079F4E881F9810190F081E02D642FDF9167
:10172000CF911F910F91FF90EF90DF90CF90199480
:101730002A303105D9F477FF18C06DE275DF8C01CE
:1017400044275527BA014C195D096E097F092AE023
:10175000CE0184DF800F911FDF91CF911F910F91F8
:10176000FF90EF90DF90CF9008952AE0B701A60197
:10177000CE01DF91CF911F910F91FF90EF90DF90FD
:10178000CF906CCF2115310541F4DC01ED91FC9136
:101790000190F081E02D642F199460CF9A01462FBB
:1017A00050E060E070E0EECF4F925F926F927F92D8
:1017B0008F929F92AF92BF92CF92DF92EF92FF9261
:1017C0000F931F93CF93DF93EC016A017B01B22E3D
:1017D0009A01AB01C701B601F8D2882319F064E081
:1017E00073E024C026013701E89477F82FEF3FEF2C
:1017F0004FE75FE7C301B201E8D281110CC02FEFC0
:101800003FEF4FE75FE7C301B20129D118161CF47F
:1018100068E073E00BC02FEF3FEF4FE75FE4C701D5
:10182000B6016CD21816A4F46CE073E0CE01DF911F
:10183000CF911F910F91FF90EF90DF90CF90BF90CD
:10184000AF909F908F907F906F905F904F90D5CE8C
:101850002FEF3FEF4FE75FECC701B60100D187FDE7
:10186000E3CF20E030E0A901C701B601F8D087FF3F
:1018700009C06DE2CE01D8DE8C01F7FAF094F7F8DA
:10188000F09402C000E010E0A12C60E070E080E085
:101890009FE3AB1439F020E030E040E251E4E3D0C4
:1018A000A394F7CF9B01AC01C701B60174D06B01C3
:1018B0007C0146D12B013C016FD19B01AC01C701DA
:1018C000B60168D06B017C012AE0B301A201CE0110
:1018D000C5DE080F191FBB2031F060E772E0CE01B2
:1018E0008CDE080F191F7B2C772019F120E030E0E7
:1018F00040E251E4C701B60105D26B017C011BD166
:101900004B01AA2497FCA094BA2C2AE030E0B50140
:10191000A401CE01F0DE080F191FC501B4013ED1AC
:101920009B01AC01C701B60135D06B017C017A94F3
:10193000DBCFC801DF91CF911F910F91FF90EF9006
:10194000DF90CF90BF90AF909F908F907F906F90DF
:101950005F904F90089528CF0F931F93CF93DF93FD
:10196000EC0122DF8C01CE0166DE800F911FDF913A
:10197000CF911F910F910895089562DBFDDF0E94C2
:10198000F901C8EED8E00E94C0012097E1F320DC05
:10199000FACF08955058BB27AA270ED075C166D13B
:1019A00030F06BD120F031F49F3F11F41EF45BC195
:1019B0000EF4E095E7FB51C1E92F77D180F3BA1718
:1019C000620773078407950718F071F49EF58FC1BD
:1019D0000EF4E0950B2EBA2FA02D0B01B90190014A
:1019E0000C01CA01A0011124FF27591B99F0593F8E
:1019F00050F4503E68F11A16F040A22F232F342FD6
:101A00004427585FF3CF469537952795A795F04023
:101A10005395C9F77EF41F16BA0B620B730B840B38
:101A2000BAF09150A1F0FF0FBB1F661F771F881FF0
:101A3000C2F70EC0BA0F621F731F841F48F4879548
:101A400077956795B795F7959E3F08F0B3CF939537
:101A5000880F08F09927EE0F979587950895D9D0AC
:101A600008F481E008950CD00FC107D140F0FED0FA
:101A700030F021F45F3F19F0F0C0511139C1F3C0CB
:101A800014D198F39923C9F35523B1F3951B550B42
:101A9000BB27AA2762177307840738F09F5F5F4F41
:101AA000220F331F441FAA1FA9F333D00E2E3AF082
:101AB000E0E830D091505040E695001CCAF729D09C
:101AC000FE2F27D0660F771F881FBB1F26173707EB
:101AD0004807AB07B0E809F0BB0B802DBF01FF271B
:101AE00093585F4F2AF09E3F510568F0B6C000C181
:101AF0005F3FECF3983EDCF3869577956795B79555
:101B0000F7959F5FC9F7880F911D9695879597F96F
:101B10000895E1E0660F771F881FBB1F62177307E8
:101B20008407BA0720F0621B730B840BBA0BEE1FFD
:101B300088F7E095089504D06894B111D9C008954C
:101B4000BCD088F09F5790F0B92F9927B751A0F0DB
:101B5000D1F0660F771F881F991F1AF0BA95C9F741
:101B600012C0B13081F0C3D0B1E00895C0C0672F7A
:101B7000782F8827B85F39F0B93FCCF386957795F1
:101B80006795B395D9F73EF49095809570956195DA
:101B90007F4F8F4F9F4F0895E89409C097FB3EF405
:101BA00090958095709561957F4F8F4F9F4F9923AA
:101BB000A9F0F92F96E9BB279395F6958795779528
:101BC0006795B795F111F8CFFAF4BB0F11F460FFE8
:101BD0001BC06F5F7F4F8F4F9F4F16C0882311F040
:101BE00096E911C0772321F09EE8872F762F05C054
:101BF000662371F096E8862F70E060E02AF09A95EF
:101C0000660F771F881FDAF7880F9695879597F9E3
:101C10000895990F0008550FAA0BE0E8FEEF16167D
:101C20001706E807F907C0F012161306E407F507D0
:101C300098F0621B730B840B950B39F40A2661F044
:101C4000232B242B252B21F408950A2609F4A140E7
:101C5000A6958FEF811D811D089597F99F6780E8F4
:101C600070E060E008959FEF80EC089500240A94EE
:101C70001616170618060906089500240A94121667
:101C80001306140605060895092E0394000C11F49A
:101C9000882352F0BB0F40F4BF2B11F460FF04C047
:101CA0006F5F7F4F8F4F9F4F089557FD9058440FA0
:101CB000551F59F05F3F71F04795880F97FB991FAB
:101CC00061F09F3F79F08795089512161306140668
:101CD000551FF2CF4695F1DF08C0161617061806F5
:101CE000991FF1CF86957105610508940895E894D0
:101CF000BB2766277727CB0197F908958ADF08F479
:101D00008FEF08950BD0C0CFB1DF28F0B6DF18F009
:101D1000952309F0A2CFA7CF1124EACFC6DFA0F305
:101D2000959FD1F3950F50E0551F629FF001729F70
:101D3000BB27F00DB11D639FAA27F00DB11DAA1F8F
:101D4000649F6627B00DA11D661F829F2227B00DDC
:101D5000A11D621F739FB00DA11D621F839FA00D67
:101D6000611D221F749F3327A00D611D231F849FB7
:101D7000600D211D822F762F6A2F11249F5750400E
:101D80008AF0E1F088234AF0EE0FFF1FBB1F661FA9
:101D9000771F881F91505040A9F79E3F510570F062
:101DA0005CCFA6CF5F3FECF3983EDCF3869577954A
:101DB0006795B795F795E7959F5FC1F7FE2B880F5D
:101DC000911D9695879597F9089523DF880B990BB8
:101DD000089597FB072E16F4009406D077FD08D0DF
:101DE00031D007FC05D03EF4909581959F4F089522
:101DF000709561957F4F0895A1E21A2EAA1BBB1B17
:101E0000FD010DC0AA1FBB1FEE1FFF1FA217B307C6
:101E1000E407F50720F0A21BB30BE40BF50B661FDC
:101E2000771F881F991F1A9469F7609570958095A0
:101E300090959B01AC01BD01CF0108950790F691EB
:101E4000E02D1994AA1BBB1B51E107C0AA1FBB1FA1
:101E5000A617B70710F0A61BB70B881F991F5A9536
:101E6000A9F780959095BC01CD010895F894FFCF16
:101E700054656D7020433A20002054656D702046F3
:101E80003A200052657175657374696E67207465D8
:101E90006D7065726174757265732E2E2E00444FDD
:101EA0004E450044616C6C61732054656D706572C1
:101EB000617475726520494320436F6E74726F6C54
:101EC000204C6962726172792044656D6F004C6FBD
:101ED000636174696E6720646576696365732E2E2D
:101EE0002E00466F756E6420002064657669636518
:101EF000732E00506172617369746520706F77652D
:101F0000722069733A20004F4E004F464600556ECE
:101F100061626C6520746F2066696E642061646420
:101F20007265737320666F722044657669636520FD
:101F300030004465766963652030204164647265D1
:101F400073733A20004465766963652030205265DA
:101F5000736F6C7574696F6E3A20005E00BC007719
:101F600001000000006609D50ABB08D408C6084570
:101F7000090D0A006E616E00696E66006F7666007C
:00000001FF
