:1000000060C100008FC100008DC100008BC10000E5
:1000100089C1000087C1000085C1000083C10000C4
:1000200081C100007FC100007DC100007BC10000D4
:1000300079C1000077C1000075C1000073C10000E4
:1000400071C100006FC100006DC100006BC10000F4
:1000500069C1000067C1000065C1000036C700002B
:1000600061C100000C942A0A0C94600A5BC1000074
:1000700059C1000057C1000055C1000053C1000024
:1000800051C100004FC100004DC100004BC1000034
:1000900049C1000047C1000045C1000043C1000044
:1000A00041C100003FC100003DC100003BC1000054
:1000B00039C1000037C1000035C1000033C1000064
:1000C00031C100002FC100002DC100002BC1000074
:1000D00029C1000027C1000025C1000023C1000084
:1000E00021C10000005EBCE2613FDD83C29C7E2036
:1000F000A3FD1F419DC3217FFCA2401E5F01E3BD04
:100100003E6082DC237D9FC1421CFEA0E1BF5D03F7
:1001100080DE3C62BEE0025CDF81633D7C22C09EEB
:100120001D43A1FF4618FAA427799BC584DA3866D7
:10013000E5BB5907DB856739BAE406581947A5FBC3
:100140007826C49A653BD987045AB8E6A7F91B45B7
:10015000C6987A24F8A6441A99C7257B3A6486D8AB
:100160005B05E7B98CD2306EEDB3510F4E10F2AC97
:100170002F7193CD114FADF3702ECC92D38D6F3183
:10018000B2EC0E50AFF1134DCE90722C6D33D18F77
:100190000C52B0EE326C8ED0530DEFB1F0AE4C126B
:1001A00091CF2D73CA947628ABF517490856B4EA57
:1001B0006937D58B5709EBB536688AD495CB297743
:1001C000F4AA4816E9B7550B88D6346A2B7597C937
:1001D0004A14F6A8742AC896154BA9F7B6E80A542B
:1001E000D7896B350102102020080810204010200C
:1001F00040800201020108040201010204081020EB
:1002000040808040201008040201800402018040E8
:100210002010080402010804020101020408102051
:1002200040800102040810204080050505050705EF
:1002300008080808020202020A0A08080404040462
:10024000010101010101010103030303030303038E
:10025000040707070C0C0C0C0C0C0C0C020202021D
:1002600006060606060606060B0B0B0B0B0B0B0B06
:10027000000020002300260029002C002F0032005F
:100280000001000003010601090100002200250011
:1002900028002B002E00310034000201000005016F
:1002A00008010B0100002100240027002A002D0076
:1002B0003000330001010000040107010A0171024E
:1002C000920A11241FBECFEFD1E2DEBFCDBF00E006
:1002D0000CBF13E0A0E0B2E0E0E7FEE100E00BBFFE
:1002E00002C007900D92A031B107D9F723E0A0E139
:1002F000B3E001C01D92AF3DB207E1F712E0C2ECDE
:10030000D2E000E006C022970109FE010BBF0E9467
:100310001E0FCE3BD10780E00807A9F70E94BD0C55
:100320000C94360F6DCECF92DF92EF92FF92BC010C
:1003300088E193E0C8D56B017C0160E072E082E463
:1003400093E00E94130B22E030E0B701A60182E4A3
:1003500093E00E94AB0C69E072E082E493E00E94BB
:10036000130BC701B60191D5AB01BC0122E030E00F
:1003700082E493E0FF90EF90DF90CF900C94AC0C70
:1003800063E172E082E493E00E94130B88E193E062
:1003900006D56EE272E082E493E00E941E0B80E1DB
:1003A00093E0C1CFFF920F931F93CF93DF93EC01A4
:1003B00088E0F82E8E018881803130F460EC72E0A4
:1003C00082E493E00E94130B219640E150E0F80193
:1003D000608182E493E00E94CE0BFA9459F768EEB4
:1003E00073E080E090E0DF91CF911F910F91FF903B
:1003F000E5C526E040E05BE460E070E082E493E085
:10040000C9D763E372E082E493E00E941E0B6EE5BD
:1004100072E082E493E00E94130B88E193E0E7D35B
:1004200062E772E082E493E00E94130B88E193E0BC
:1004300060D24AE050E0682F82E493E00E94CE0B45
:1004400069E772E082E493E00E941E0B63E872E0C9
:1004500082E493E00E94130B88E193E013D5882394
:1004600019F067E972E002C06AE972E082E493E0A1
:100470000E941E0B40E060E173E088E193E04AD205
:10048000811106C06EE972E082E493E00E941E0BC7
:1004900062EC72E082E493E00E94130B80E193E04F
:1004A00081DF82E493E00E941B0B49E060E173E08E
:1004B00088E193E029D365ED72E082E493E00E9445
:1004C000130B60E173E088E193E060D34AE050E011
:1004D000682F82E493E00E94CE0B82E493E00C94B8
:1004E0001B0B6EE18BE293E02FD16BE273E088E1AE
:1004F00093E0F0C1FF920F931F93CF93DF93FC0122
:100500000081C181D281F8948981F02EF0948F21ED
:10051000898378941DE7115009F182E090E085D538
:1005200088818023C1F3F8948A818F218A8389810D
:10053000802B8983789480EE91E077D5F894898137
:100540008F21898386E490E070D58881802311E033
:1005500009F010E078948AE991E067D5812FDF9166
:10056000CF911F910F91FF9008951F93CF93DF9329
:10057000FC011081C181D281912F909560FF11C043
:10058000F8948A8189238A838981812B89838AE0EF
:1005900090E04BD58A81812B8A83789487E390E021
:1005A00010C0F8948A8189238A838981812B898369
:1005B00081E490E03AD58A81812B8A83789485E022
:1005C00090E0DF91CF911F9130C50F931F93CF9390
:1005D000DF93FC011081C181D281F8948981812B44
:1005E00089838A81012F009580238A8383E090E0AC
:1005F0001CD58981802389838AE090E016D5C88143
:10060000789485E390E011D51C2381E009F480E023
:10061000DF91CF911F910F910895CF92DF92EF92CA
:10062000FF920F931F93CF93DF931F92CDB7DEB747
:100630006C01E62E08E010E0FF24F39461E09F2DAA
:100640009E2109F460E0C60149838FDFFF0C015051
:10065000110949810115110589F7411115C0F89457
:10066000D6011196ED91FC91129791818C91809514
:10067000892381831196ED91FC91129792818C913F
:1006800080958923828378940F90DF91CF911F9179
:100690000F91FF90EF90DF90CF900895EF92FF922F
:1006A0000F931F93CF93DF938C01C8E0D0E0F12C20
:1006B000EE24E394C80189DF8111FE28EE0C219716
:1006C000C9F78F2DDF91CF911F910F91FF90EF9080
:1006D0000895CF92DF92FF920F931F93CF93DF93F2
:1006E0001F92CDB7DEB78C01F62E40E065E5798329
:1006F00094DFCF2C7981D72E88E0F82EF601619116
:100700006F0140E0C80189DFFA94C1F70F90DF91D3
:10071000CF911F910F91FF90DF90CF90089540E00F
:100720006CEC7BCFFC0113861586148627E030E045
:10073000DF01A20FB31F13961C922115310519F08A
:1007400021503109F5CF08951F93CF93DF93EC012A
:10075000162F60E0812FD6D4612F70E0FB01EC51A1
:10076000FE4FE491E883FB01E65DFD4FE491F0E08C
:10077000EE0FFF1FE059FD4F859194919A83898375
:10078000CE01DF91CF911F91CDCFAF92BF92CF928B
:10079000DF92EF92FF920F931F93CF93DF931F92FD
:1007A000CDB7DEB75C01D62EE72EFC018585811121
:1007B0005FC0C50149839EDE4981811105C0F501F5
:1007C0001386158614866DC0442319F040E060EF4F
:1007D00002C040E06CEEC50120DF01E0F12CC12C2D
:1007E00011E0C501F2DE682FC5016983EEDE698183
:1007F000613019F48130B9F432C02F2D30E0681324
:100800001BC0F5018385181730F4E20FF31F8381B5
:10081000802349F402C0181731F060E0193058F411
:10082000F501148708C0F501EF0DF11D8381802BC0
:10083000838361E009C0C12EF501E20FF31F8381BC
:10084000902F909589238383C5018FDE1F5F000F52
:1008500011F4F39401E0F7E0FF1508F0C2CF113472
:1008600038F0F501C386C11009C081E0858706C054
:10087000F50113861586148680E013C0F501838187
:100880008823B1F3ED2DFE2D80E090E0D501A80F77
:10089000B91F13962C912193019688309105B1F7D9
:1008A00081E00F90DF91CF911F910F91FF90EF901A
:1008B000DF90CF90BF90AF900895DC0180E0615051
:1008C00038F0ED91E827F0E0EC51FF4F8491F7CF3D
:1008D00008950895FC0189E694E0928B818B7683DC
:1008E00065831482108289E0818381E0828383831F
:1008F0000895FC0184810895CF93DF93EB0167E0B5
:10090000CE01DBDF91E02F81821390E0892FDF9110
:10091000CF910895EF92FF920F931F93CF93DF93A0
:10092000EC018B01E42E8D819E81FCDEF12C41E0F7
:10093000B8018D819E8129DF882351F0FE1005C00A
:10094000B801CE01D9DF811104C0F394EF1478F718
:1009500080E0DF91CF911F910F91FF90EF9008956C
:10096000CF92DF92EF92FF920F931F93CF93DF937B
:100970001F921F92CDB7DEB76C01F42EE52EFC015D
:100980008581968169837A83B5DD69817A8188233F
:10099000F1F0F601858196819CDE40E06EEBF60178
:1009A000858196813ADE0F2D1E2D89E0F82EF60105
:1009B0008581968173DEF80181938F01FA94B9F7EE
:1009C000F6018581968196DD91E0813009F090E015
:1009D000892F0F900F90DF91CF911F910F91FF9072
:1009E000EF90DF90CF900895CF93DF93EA01B8DFC7
:1009F000882349F068E0CE0160DF91E0288582130A
:100A000090E0892F01C080E0DF91CF910895EF92AF
:100A1000FF920F931F93CF93DF93EC018B017A0129
:100A20008D819E8167DDB8018D819E8152DE40E01F
:100A30006EE48D819E81F1DD40E0F70162818D8160
:100A40009E81EBDD40E0F70163818D819E81E5DDD4
:100A5000F8018081803131F040E0F70164818D81BF
:100A60009E81DBDD8D819E8145DDB8018D819E817A
:100A700030DE488168E48D819E81CFDD64E170E0E5
:100A800080E090E09BD28881882329F06AE070E0C2
:100A900080E090E093D28D819E81DF91CF911F9174
:100AA0000F91FF90EF9026CDEF92FF921F93CF937F
:100AB000DF931F921F92CDB7DEB77C01FC018581C9
:100AC000968169837A8316DD69817A81F701858150
:100AD0009681FFDD40E064EBF701858196819DDD25
:100AE000F7018581968171DD182FF7018581968147
:100AF00001DD81E0111180E00F900F90DF91CF9127
:100B00001F91FF90EF900895EF92FF920F931F9324
:100B1000CF93DF93CDB7DEB72A970FB6F894DEBF39
:100B20000FBECDBF7C018B01242FAE014F5F5F4F05
:100B30002A875ADF2A858823C9F0F801808180310D
:100B4000B9F02B3041F02C3021F02A3031F48FE312
:100B500005C08FE703C08FE501C08FE18D83AE0133
:100B60004F5F5F4FB801C70152DF02C080E001C094
:100B700081E02A960FB6F894DEBF0FBECDBFDF919D
:100B8000CF911F910F91FF90EF900895CF93DF9336
:100B9000CDB7DEB729970FB6F894DEBF0FBECDBF35
:100BA000FB0120812031C9F0AE014F5F5F4F1CDF98
:100BB000882379F08D818F3351F020F48F3149F4FF
:100BC00089E00CC08F3539F08F3739F002C08AE0E8
:100BD00005C080E003C08BE001C08CE029960FB611
:100BE000F894DEBF0FBECDBFDF91CF910895FF9285
:100BF0000F931F93CF93DF93CDB7DEB761970FB6F7
:100C0000F894DEBF0FBECDBF8C01FC0185819681BB
:100C100089DDF801148241E0BE01665F7F4FF80173
:100C200085819681B2DD8823A9F1BE01665F7F4F81
:100C3000C80162DE882379F3F8018081811107C041
:100C4000BE01665F7F4FC8012FDF81111FC0AE015B
:100C50004F5F5F4FBE01665F7F4FC80181DEF801C5
:100C6000F180BE01665F7F4FC80190DF8F1518F4D9
:100C7000F801818105C0BE01665F7F4FC80186DF34
:100C8000F801818384818F5F8483C5CF81E0F8017F
:100C90008083DDCF61960FB6F894DEBF0FBECDBF67
:100CA000DF91CF911F910F91FF900895CF93DF9324
:100CB000CDB7DEB729970FB6F894DEBF0FBECDBF14
:100CC000AE014F5F5F4F4CDE81E09981911101C011
:100CD00080E029960FB6F894DEBF0FBECDBFDF913E
:100CE000CF9108958F929F92AF92BF92CF92DF9251
:100CF000EF92FF920F931F93CF93DF93EC018A0142
:100D00006950633048F4E62FF0E0EE0FFF1FE55125
:100D1000FD4F8080918004C09EEE892E92E0992E36
:100D200001151105E9F08B818823D1F088818111AB
:100D300017C015D16B017C01AA2497FCA094BA2C92
:100D4000B801CE01B3DF81111DC009D1681979093D
:100D50008A099B096C157D058E059F0598F4F0CFD7
:100D6000B401882777FD8095982FDF91CF911F914F
:100D70000F91FF90EF90DF90CF90BF90AF909F903A
:100D80008F901CC1DF91CF911F910F91FF90EF9039
:100D9000DF90CF90BF90AF909F908F900895CF93AA
:100DA000DF93EC018D819E81A5DB8D819E81B7DC77
:100DB000488164E48D819E8130DC8A81882339F00A
:100DC00040E050E06981CE01DF91CF918BCFDF9180
:100DD000CF910895FA01208148E0249F90011124C9
:100DE000818190E0982F8827990F990F990F282BD0
:100DF000392BDB018C918031B9F4678170E08681F9
:100E0000AB01481B5109CA019695982F88279795E1
:100E10008795DFD760517109207F53E0220F331F80
:100E20005A95E1F7260F371FC9010895EF92FF92F7
:100E30000F931F93CF93DF93CDB7DEB729970FB6EC
:100E4000F894DEBF0FBECDBF8C017B01AE014F5FBA
:100E50005F4FCADD882339F0AE014F5F5F4FB701A6
:100E6000C801B8DF02C080E894EE29960FB6F89466
:100E7000DEBF0FBECDBFDF91CF911F910F91FF90CD
:100E8000EF900895FC018081089526E636E646EE4F
:100E90005FE338D720E030E040E052E47CC58138A1
:100EA00024EE92075CF0BC01882777FD8095982F8F
:100EB00075D620E030E040E05CE324C760E070E0FD
:100EC0008EEF92EC0895B2DFEACF1F920F920FB629
:100ED0000F9211242F933F938F939F93AF93BF93C0
:100EE00080913A0390913B03A0913C03B0913D0364
:100EF0003091390323E0230F2D3720F40196A11DF3
:100F0000B11D05C026E8230F0296A11DB11D209337
:100F1000390380933A0390933B03A0933C03B0932F
:100F20003D0380913E0390913F03A0914003B09117
:100F300041030196A11DB11D80933E0390933F0391
:100F4000A0934003B0934103BF91AF919F918F91C4
:100F50003F912F910F900FBE0F901F9018952FB7B4
:100F6000F89460913A0370913B0380913C03909117
:100F70003D032FBF08953FB7F89480913E039091B1
:100F80003F03A0914003B091410326B5A89B05C043
:100F90002F3F19F00196A11DB11D3FBF6627782F85
:100FA000892F9A2F620F711D811D911D42E0660FDE
:100FB000771F881F991F4A95D1F708958F929F92A6
:100FC000AF92BF92CF92DF92EF92FF926B017C01C2
:100FD000D2DF4B015C01C114D104E104F104E1F062
:100FE000D8D4C9DF681979098A099B09683E73401A
:100FF0008105910580F321E0C21AD108E108F108CA
:1010000088EE880E83E0981EA11CB11CC114D10487
:10101000E104F10431F7DFCFFF90EF90DF90CF9044
:10102000BF90AF909F908F9008958230910538F0D7
:10103000880F991F880F991F05970197F1F7089559
:10104000789484B5826084BD84B5816084BD85B5A3
:10105000826085BD85B5816085BDEEE6F0E080816A
:1010600081608083E1E8F0E010828081826080838B
:10107000808181608083E0E8F0E08081816080830E
:10108000E1EBF0E0808184608083E0EBF0E0808140
:1010900081608083E1E9F0E08081826080838081EB
:1010A00081608083E0E9F0E0808181608083E1EA13
:1010B000F0E0808182608083808181608083E0EACB
:1010C000F0E0808181608083E1E2F1E080818260F4
:1010D0008083808181608083E0E2F1E080818160B3
:1010E0008083EAE7F0E08081846080838081826091
:1010F000808380818160808380818068808310927A
:10110000C1000895CF93DF9390E0FC01EC51FE4FB6
:101110002491FC01E65DFD4F8491882349F190E024
:10112000880F991FFC01EC55FD4FA591B49186578E
:101130009D4FFC01C591D4919FB7611108C0F894EF
:101140008C91209582238C93888182230AC06230FF
:1011500051F4F8948C91322F309583238C938881AD
:10116000822B888304C0F8948C91822B8C939FBF30
:10117000DF91CF910895FC01818D228D90E0805CFC
:101180009F4F821B91098F7399270895FC01918DC0
:10119000828D981731F0828DE80FF11D858D90E0DA
:1011A00008958FEF9FEF0895FC01918D828D981720
:1011B00061F0828DDF01A80FB11D5D968C91928D3B
:1011C0009F5F9F73928F90E008958FEF9FEF089538
:1011D00089E89AE0892B39F080E090E0892B19F0BA
:1011E00098D1811125C080E090E0892B41F080E00A
:1011F00090E0892B21F00E94000081111CC080E04A
:1012000090E0892B41F080E090E0892B21F00E9452
:101210000000811113C080E090E0892BA1F080E0F4
:1012200090E0892B81F00E94000081110AC008958E
:101230000E940000D8CF0E940000E1CF0E94000071
:10124000EACF0C9400000895FC01848DDF01A80F03
:10125000B11DA35ABF4F2C91848D90E001968F73DE
:101260009927848FA689B7892C93A089B1898C91FD
:1012700080648C93938D848D981306C00288F389C3
:10128000E02D80818F7D80830895CF93DF93EC01E3
:10129000888D8823C1F0EA89FB89808185FD05C09E
:1012A000A889B9898C9186FD0EC00FB607FCF5CFD1
:1012B000808185FFF2CFA889B9898C9185FFEDCF18
:1012C000CE01C2DFE8CFDF91CF910895CF92DF92B8
:1012D000FF920F931F93CF93DF931F92CDB7DEB78B
:1012E0006C0181E0D60158968C9358975B969C913F
:1012F0005B975C968C915C97981307C05096ED9124
:10130000FC915197808185FD2DC0F601038D10E081
:101310000F5F1F4F0F731127F02EF601848DF81207
:1013200010C00FB607FCF9CFD6015096ED91FC9195
:101330005197808185FFF1CFC601698385DF69817F
:10134000ECCF838DE80FF11DE35AFF4F6083D60188
:101350005B960C935B975296ED91FC91539780812D
:1013600080620CC0D6015696ED91FC915797608330
:101370005096ED91FC91519780818064808381E04B
:1013800090E00F90DF91CF911F910F91FF90DF9030
:10139000CF900895BF92CF92DF92EF92FF92CF93BA
:1013A000DF93EC016A017B01B22EE889F98982E0C2
:1013B0008083411581EE58076105710599F060E061
:1013C00079E08DE390E0A701960116D5215031090F
:1013D000410951095695479537952795211580E183
:1013E000380790F0E889F989108260E874E88EE1A6
:1013F00090E0A701960100D521503109410951091A
:101400005695479537952795EC85FD853083EE8574
:10141000FF852083188EEC89FD89B082EA89FB89DB
:10142000808180618083EA89FB89808188608083F4
:10143000EA89FB89808180688083EA89FB898081D1
:101440008F7D8083DF91CF91FF90EF90DF90CF90E1
:10145000BF9008951F920F920FB60F9211240BB6F2
:101460000F922F938F939F93EF93FF93E0915203EB
:10147000F09153038081E0915803F091590382FD6C
:1014800012C0908180915B038F5F8F7320915C030A
:10149000821751F0E0915B03F0E0EE5BFC4F958F1B
:1014A00080935B0301C08081FF91EF919F918F91A9
:1014B0002F910F900BBE0F900FBE0F901F9018959D
:1014C0001F920F920FB60F9211240BB60F922F930B
:1014D0003F934F935F936F937F938F939F93AF93BC
:1014E000BF93EF93FF9382E493E0AEDEFF91EF9121
:1014F000BF91AF919F918F917F916F915F914F912C
:101500003F912F910F900BBE0F900FBE0F901F9029
:10151000189582E493E02FDE21E0892B09F420E086
:10152000822F0895109245031092440388EE93E0B1
:10153000A0E0B0E08093460390934703A093480354
:10154000B093490385EF92E0909343038093420365
:1015500085EC90E090934F0380934E0384EC90E0F1
:10156000909351038093500380EC90E09093530349
:101570008093520381EC90E0909355038093540341
:1015800082EC90E0909357038093560386EC90E0B2
:10159000909359038093580310925B0310925C035D
:1015A00010925D0310925E030895CF92DF92EF9246
:1015B000FF920F931F93CF93DF937C016A01EB019E
:1015C00000E010E00C151D0571F06991D701ED9157
:1015D000FC910190F081E02DC7011995892B19F03C
:1015E0000F5F1F4FEFCFC801DF91CF911F910F9178
:1015F000FF90EF90DF90CF9008956115710581F015
:10160000DB010D900020E9F7AD0141505109461B67
:10161000570BDC01ED91FC910280F381E02D1994D0
:1016200080E090E00895E9CFDC01ED91FC9101901C
:10163000F081E02D199461E073E0DFCF0F931F93E9
:10164000CF93DF93EC01D9DF8C01CE01F4DF800F63
:10165000911FDF91CF911F910F9108958F929F92CB
:10166000AF92BF92DF92EF92FF920F931F93CF93AF
:10167000DF93CDB7DEB7A1970FB6F894DEBF0FBEEC
:10168000CDBF7C01F42FD52ECB0119A2223008F456
:101690002AE08E010F5D1F4F822E912CA12CB12CC0
:1016A0006F2F7D2DA5019401A7D3F22FD32ECA0150
:1016B000015011096A3014F4E0E301C0E7E3E60FDA
:1016C000D801EC93232B242B252B51F7B801C7010C
:1016D00094DFA1960FB6F894DEBF0FBECDBFDF91A9
:1016E000CF911F910F91FF90EF90DF90BF90AF903F
:1016F0009F908F900895CF92DF92EF92FF920F9379
:101700001F93CF93DF93EC016A017B012115310513
:1017100079F4E881F9810190F081E02D642FDF9167
:10172000CF911F910F91FF90EF90DF90CF90199480
:101730002A303105D9F477FF18C06DE275DF8C01CE
:1017400044275527BA014C195D096E097F092AE023
:10175000CE0184DF800F911FDF91CF911F910F91F8
:10176000FF90EF90DF90CF9008952AE0B701A60197
:10177000CE01DF91CF911F910F91FF90EF90DF90FD
:10178000CF906CCF2115310541F4DC01ED91FC9136
:101790000190F081E02D642F199460CF9A01462FBB
:1017A00050E060E070E0EECF4F925F926F927F92D8
:1017B0008F929F92AF92BF92CF92DF92EF92FF9261
:1017C0000F931F93CF93DF93EC016A017B01B22E3D
:1017D0009A01AB01C701B601F8D2882319F064E081
:1017E00073E024C026013701E89477F82FEF3FEF2C
:1017F0004FE75FE7C301B201E8D281110CC02FEFC0
:101800003FEF4FE75FE7C301B20129D118161CF47F
:1018100068E073E00BC02FEF3FEF4FE75FE4C701D5
:10182000B6016CD21816A4F46CE073E0CE01DF911F
:10183000CF911F910F91FF90EF90DF90CF90BF90CD
:10184000AF909F908F907F906F905F904F90D5CE8C
:101850002FEF3FEF4FE75FECC701B60100D187FDE7
:10186000E3CF20E030E0A901C701B601F8D087FF3F
:1018700009C06DE2CE01D8DE8C01F7FAF094F7F8DA
:10188000F09402C000E010E0A12C60E070E080E085
:101890009FE3AB1439F020E030E040E251E4E3D0C4
:1018A000A394F7CF9B01AC01C701B60174D06B01C3
:1018B0007C0146D12B013C016FD19B01AC01C701DA
:1018C000B60168D06B017C012AE0B301A201CE0110
:1018D000C5DE080F191FBB2031F060E772E0CE01B2
:1018E0008CDE080F191F7B2C772019F120E030E0E7
:1018F00040E251E4C701B60105D26B017C011BD166
:101900004B01AA2497FCA094BA2C2AE030E0B50140
:10191000A401CE01F0DE080F191FC501B4013ED1AC
:101920009B01AC01C701B60135D06B017C017A94F3
:10193000DBCFC801DF91CF911F910F91FF90EF9006
:10194000DF90CF90BF90AF909F908F907F906F90DF
:101950005F904F90089528CF0F931F93CF93DF93FD
:10196000EC0122DF8C01CE0166DE800F911FDF913A
:10197000CF911F910F910895089562DBFDDF0E94C2
:10198000F901C8EED8E00E94C0012097E1F320DC05
:10199000FACF08955058BB27AA270ED075C166D13B
:1019A00030F06BD120F031F49F3F11F41EF45BC195
:1019B0000EF4E095E7FB51C1E92F77D180F3BA1718
:1019C000620773078407950718F071F49EF58FC1BD
:1019D0000EF4E0950B2EBA2FA02D0B01B90190014A
:1019E0000C01CA01A0011124FF27591B99F0593F8E
:1019F00050F4503E68F11A16F040A22F232F342FD6
:101A00004427585FF3CF469537952795A795F04023
:101A10005395C9F77EF41F16BA0B620B730B840B38
:101A2000BAF09150A1F0FF0FBB1F661F771F881FF0
:101A3000C2F70EC0BA0F621F731F841F48F4879548
:101A400077956795B795F7959E3F08F0B3CF939537
:101A5000880F08F09927EE0F979587950895D9D0AC
:101A600008F481E008950CD00FC107D140F0FED0FA
:101A700030F021F45F3F19F0F0C0511139C1F3C0CB
:101A800014D198F39923C9F35523B1F3951B550B42
:101A9000BB27AA2762177307840738F09F5F5F4F41
:101AA000220F331F441FAA1FA9F333D00E2E3AF082
:101AB000E0E830D091505040E695001CCAF729D09C
:101AC000FE2F27D0660F771F881FBB1F26173707EB
:101AD0004807AB07B0E809F0BB0B802DBF01FF271B
:101AE00093585F4F2AF09E3F510568F0B6C000C181
:101AF0005F3FECF3983EDCF3869577956795B79555
:101B0000F7959F5FC9F7880F911D9695879597F96F
:101B10000895E1E0660F771F881FBB1F62177307E8
:101B20008407BA0720F0621B730B840BBA0BEE1FFD
:101B300088F7E095089504D06894B111D9C008954C
:101B4000BCD088F09F5790F0B92F9927B751A0F0DB
:101B5000D1F0660F771F881F991F1AF0BA95C9F741
:101B600012C0B13081F0C3D0B1E00895C0C0672F7A
:101B7000782F8827B85F39F0B93FCCF386957795F1
:101B80006795B395D9F73EF49095809570956195DA
:101B90007F4F8F4F9F4F0895E89409C097FB3EF405
:101BA00090958095709561957F4F8F4F9F4F9923AA
:101BB000A9F0F92F96E9BB279395F6958795779528
:101BC0006795B795F111F8CFFAF4BB0F11F460FFE8
:101BD0001BC06F5F7F4F8F4F9F4F16C0882311F040
:101BE00096E911C0772321F09EE8872F762F05C054
:101BF000662371F096E8862F70E060E02AF09A95EF
:101C0000660F771F881FDAF7880F9695879597F9E3
:101C10000895990F0008550FAA0BE0E8FEEF16167D
:101C20001706E807F907C0F012161306E407F507D0
:101C300098F0621B730B840B950B39F40A2661F044
:101C4000232B242B252B21F408950A2609F4A140E7
:101C5000A6958FEF811D811D089597F99F6780E8F4
:101C600070E060E008959FEF80EC089500240A94EE
:101C70001616170618060906089500240A94121667
:101C80001306140605060895092E0394000C11F49A
:101C9000882352F0BB0F40F4BF2B11F460FF04C047
:101CA0006F5F7F4F8F4F9F4F089557FD9058440FA0
:101CB000551F59F05F3F71F04795880F97FB991FAB
:101CC00061F09F3F79F08795089512161306140668
:101CD000551FF2CF4695F1DF08C0161617061806F5
:101CE000991FF1CF86957105610508940895E894D0
:101CF000BB2766277727CB0197F908958ADF08F479
:101D00008FEF08950BD0C0CFB1DF28F0B6DF18F009
:101D1000952309F0A2CFA7CF1124EACFC6DFA0F305
:101D2000959FD1F3950F50E0551F629FF001729F70
:101D3000BB27F00DB11D639FAA27F00DB11DAA1F8F
:101D4000649F6627B00DA11D661F829F2227B00DDC
:101D5000A11D621F739FB00DA11D621F839FA00D67
:101D6000611D221F749F3327A00D611D231F849FB7
:101D7000600D211D822F762F6A2F11249F5750400E
:101D80008AF0E1F088234AF0EE0FFF1FBB1F661FA9
:101D9000771F881F91505040A9F79E3F510570F062
:101DA0005CCFA6CF5F3FECF3983EDCF3869577954A
:101DB0006795B795F795E7959F5FC1F7FE2B880F5D
:101DC000911D9695879597F9089523DF880B990BB8
:101DD000089597FB072E16F4009406D077FD08D0DF
:101DE00031D007FC05D03EF4909581959F4F089522
:101DF000709561957F4F0895A1E21A2EAA1BBB1B17
:101E0000FD010DC0AA1FBB1FEE1FFF1FA217B307C6
:101E1000E407F50720F0A21BB30BE40BF50B661FDC
:101E2000771F881F991F1A9469F7609570958095A0
:101E300090959B01AC01BD01CF0108950790F691EB
:101E4000E02D1994AA1BBB1B51E107C0AA1FBB1FA1
:101E5000A617B70710F0A61BB70B881F991F5A9536
:101E6000A9F780959095BC01CD010895F894FFCF16
:101E700054656D7020433A20002054656D702046F3
:101E80003A200052657175657374696E67207465D8
:101E90006D7065726174757265732E2E2E00444FDD
:101EA0004E450044616C6C61732054656D706572C1
:101EB000617475726520494320436F6E74726F6C54
:101EC000204C6962726172792044656D6F004C6FBD
:101ED000636174696E6720646576696365732E2E2D
:101EE0002E00466F756E6420002064657669636518
:101EF000732E00506172617369746520706F77652D
:101F0000722069733A20004F4E004F464600556ECE
:101F100061626C6520746F2066696E642061646420
:101F20007265737320666F722044657669636520FD
:101F300030004465766963652030204164647265D1
:101F400073733A20004465766963652030205265DA
:101F5000736F6C7574696F6E3A20005E00BC007719
:101F600001000000006609D50ABB08D408C6084570
:101F7000090D0A006E616E00696E66006F7666007C
:020000023000CC
:10E000000D9489F10D94B2F10D94B2F10D94B2F129
:10E010000D94B2F10D94B2F10D94B2F10D94B2F1F0
:10E020000D94B2F10D94B2F10D94B2F10D94B2F1E0
:10E030000D94B2F10D94B2F10D94B2F10D94B2F1D0
:10E040000D94B2F10D94B2F10D94B2F10D94B2F1C0
:10E050000D94B2F10D94B2F10D94B2F10D94B2F1B0
:10E060000D94B2F10D94B2F10D94B2F10D94B2F1A0
:10E070000D94B2F10D94B2F10D94B2F10D94B2F190
:10E080000D94B2F10D94B2F10D94B2F10D94B2F180
:10E090000D94B2F10D94B2F10D94B2F10D94B2F170
:10E0A0000D94B2F10D94B2F10D94B2F10D94B2F160
:10E0B0000D94B2F10D94B2F10D94B2F10D94B2F150
:10E0C0000D94B2F10D94B2F10D94B2F10D94B2F140
:10E0D0000D94B2F10D94B2F10D94B2F10D94B2F130
:10E0E0000D94B2F141546D656761323536300041AF
:10E0F000726475696E6F206578706C6F72657220DE
:10E1000073746B3530305632206279204D4C530099
:10E11000426F6F746C6F616465723E004875683F52
:10E1200000436F6D70696C6564206F6E203D200048
:10E130004350552054797065202020203D20005FF9
:10E140005F4156525F415243485F5F3D2000415658
:10E1500052204C696243205665723D20004743437C
:10E160002056657273696F6E203D20004350552024
:10E1700049442020202020203D20004C6F7720663D
:10E18000757365202020203D20004869676820665F
:10E190007573652020203D200045787420667573D6
:10E1A00065202020203D20004C6F636B2066757336
:10E1B000652020203D20004D617220203720323024
:10E1C000313300312E362E3800342E332E350056A2
:10E1D00023202020414444522020206F7020636F70
:10E1E00064652020202020696E73747275637469E1
:10E1F0006F6E2061646472202020496E74657272B3
:10E20000757074006E6F20766563746F7200726A49
:10E210006D702020006A6D70200057686174207056
:10E220006F72743A00506F7274206E6F7420737541
:10E2300070706F72746564004D7573742062652030
:10E2400061206C6574746572002000577269747483
:10E25000696E672045450052656164696E672045B7
:10E26000450045452065727220636E743D00504F35
:10E27000525400303D5A65726F2061646472003FF1
:10E280003D43505520737461747300403D454550C3
:10E29000524F4D207465737400423D426C696E6B41
:10E2A000204C454400453D44756D70204545505215
:10E2B0004F4D00463D44756D7020464C415348001B
:10E2C000483D48656C70004C3D4C69737420492F83
:10E2D0004F20506F72747300513D51756974005234
:10E2E0003D44756D702052414D00563D73686F7707
:10E2F00020696E7465727275707420566563746FF0
:10E30000727300593D506F727420626C696E6B00BD
:10E310002A0011241FBECFEFD1E2DEBFCDBF01E046
:10E320000CBF12E0A0E0B2E0EEE1FDEF03E00BBFB6
:10E3300002C007900D92A030B107D9F712E0A0E01B
:10E34000B2E001C01D92AE30B107E1F70F9460F367
:10E350000D948DFE01E20EBF0FEF0DBF11241FBE05
:10E360000D9460F30D9400F020E030E040ED57E0B4
:10E3700005C0FA013197F1F72F5F3F4F2817390792
:10E38000C0F308959C01260F311DC901A0E0B0E043
:10E390002F5F3F4FABBFFC018791882361F08093D3
:10E3A000C6008091C00086FFFCCF8091C0008064D1
:10E3B0008093C000EACF08958DE08093C6008091DD
:10E3C000C00086FFFCCF8091C00080648093C000B5
:10E3D0008AE08093C6008091C00086FFFCCF8091C8
:10E3E000C00080648093C00008950F94C2F10F9420
:10E3F000DCF10895FC019081992359F09093C600B7
:10E400008091C00086FFFCCF8091C0008064809323
:10E41000C0003196992379F70895282F982F929567
:10E420009F70892F805D8A3308F0895F8093C600D2
:10E430008091C00086FFFCCF8091C00080648093F3
:10E44000C000822F8F70982F905D9A3308F0995FEB
:10E450009093C6008091C00086FFFCCF8091C000E1
:10E4600080648093C00008959C01FB01853691056E
:10E470001CF46330710594F0C90164E670E00F94F8
:10E480002EFE605D7F4F6093C6008091C00086FFC6
:10E49000FCCF8091C00080648093C0002B30310598
:10E4A00014F43297B4F0C90164E670E00F942EFEC4
:10E4B0006AE070E00F942EFE605D7F4F6093C600AF
:10E4C0008091C00086FFFCCF8091C0008064809363
:10E4D000C000C9016AE070E00F942EFEC0968093E0
:10E4E000C6008091C00086FFFCCF8091C000806490
:10E4F0008093C00008951F93182F8EE692EE60E07F
:10E500000F94C2F11093C6008091C00086FFFCCF2B
:10E510008091C00080648093C0000F94DCF11F9153
:10E5200008952F923F924F925F926F927F928F92B7
:10E530009F92AF92BF92CF92DF92EF92FF920F9392
:10E540001F93DF93CF93CDB7DEB762970FB6F894E2
:10E55000DEBF0FBECDBF382E622ECA01DB015C01CB
:10E560006D01772420E2222E2E010894411C511CBB
:10E570008BC081E0A81680E0B80681E0C80680E084
:10E58000D80628F0C601AA27BB270F940DF2BB2797
:10E59000AD2D9C2D8B2D0F940DF28A2D0F940DF225
:10E5A0002092C6008091C00086FFFCCF8091C00001
:10E5B00080648093C0009DE29093C6008091C0006B
:10E5C00086FFFCCF8091C00080648093C0002092C1
:10E5D000C6008091C00086FFFCCF8091C00080649F
:10E5E0008093C00019828601750188249924A1E0D6
:10E5F0003A1651F03A1620F0B2E03B1661F409C029
:10E600000BBFF701779007C0C7010F9477FE782EF4
:10E6100002C0F7017080872D0F940DF22092C60082
:10E620008091C00086FFFCCF8091C0008064809301
:10E63000C000872D8052F401EF70F0708F3520F408
:10E64000E40DF51D708204C0E40DF51D8EE280839B
:10E650000894E11CF11C011D111D0894811C911CE2
:10E6600090E18916910409F0C2CF80E190E0A0E02A
:10E67000B0E0A80EB91ECA1EDB1E198AC2010F9493
:10E68000FAF10F94DCF16A94662009F072CF629679
:10E690000FB6F894DEBF0FBECDBFCF91DF911F91B3
:10E6A0000F91FF90EF90DF90CF90BF90AF909F9031
:10E6B0008F907F906F905F904F903F902F90089534
:10E6C0002F923F924F925F926F927F928F929F9282
:10E6D000AF92BF92CF92DF92EF92FF920F931F9370
:10E6E000DF93CF93CDB7DEB7CD53D1400FB6F894BB
:10E6F000DEBF0FBECDBF01E20EBF0FEF0DBF94B75F
:10E70000F894A89514BE80916000886180936000A1
:10E7100010926000789493FF05C0E0910002F091A0
:10E7200001021995279A2F9A8091C00082608093E8
:10E73000C00080E18093C40088E18093C1000000A4
:10E74000EE24FF24870144E0A42EB12CCC24DD2448
:10E7500024C0C5010197F1F70894E11CF11C011DCB
:10E76000111D21E2E2162EE4F20620E0020720E06D
:10E77000120718F031E0C32ED12CC801B70127ECE5
:10E780003BE140E050E00F9441FE611571058105C9
:10E79000910519F485B1805885B98091C00087FD35
:10E7A00003C0C114D104A9F2A6014F5F5F4FC25E3E
:10E7B000DE4F59834883CE51D140C25EDE4F8881FF
:10E7C0009981CE51D140019711F00D9410FEC05D9A
:10E7D000DE4F19821882C053D14060E0C15DDE4F28
:10E7E0001882CF52D14088249924C35DDE4F19820C
:10E7F0001882CD52D140C05EDE4F188219821A8233
:10E800001B82C052D140CE5CDE4F188219821A8220
:10E810001B82C253D140EE24FF2487010BBFF701B6
:10E8200007911691C45CDE4F19830883CC53D14005
:10E830000D940BFEC25EDE4F28813981CE51D1404E
:10E840002130310509F52091C600C25EDE4F1982E4
:10E850001882CE51D14022C02F5F3F4F4F4F5F4FA4
:10E86000213082E138078AE7480780E0580780F0C6
:10E87000C45CDE4FE881F981CC53D140EF5FFF4F9C
:10E8800019F0EE27FF27099420E030E040E050E047
:10E890008091C00087FFE0CF2091C600C35DDE4FAE
:10E8A00048815981CD52D1404F5F5F4FC35DDE4FEC
:10E8B00059834883CD52D140213209F063C64A3092
:10E8C000510508F05FC60894811C911C53E0851621
:10E8D000910409F059C600E010E018C081E280936D
:10E8E000C6008091C00086FFFCCF8091C00080648C
:10E8F0008093C0002F5F3F4F2931310579F70F9486
:10E90000DCF10F5F1F4F0530110519F020E030E0FA
:10E91000E5CF10920A0210920B0210920C02109294
:10E920000D02109206021092070210920802109235
:10E930000902109202021092030210920402109235
:10E9400005028FEE90EE60E00F94F5F180E191EE1C
:10E9500060E00F94C2F18091C00087FFFCCF9091DE
:10E96000C600903608F09F759032B8F09093C600BC
:10E970008091C00086FFFCCF8091C00080648093AE
:10E98000C000A0E2A093C6008091C00086FFFCCF2B
:10E990008091C00080648093C000983409F4D7C18E
:10E9A0009934B8F4923409F459C1933458F490333B
:10E9B00019F1903308F4E3C59F33A1F1903409F0C5
:10E9C000DEC5BDC0953409F470C1963409F0D7C5D1
:10E9D00098C1923509F42BC2933538F49C3409F46C
:10E9E000F5C1913509F0CBC518C2963509F445C279
:10E9F000993509F0C4C567C483E792EE62E00F94CD
:10EA0000F5F110920602109207021092080210927D
:10EA1000090210920A0210920B0210920C0210923C
:10EA20000D0213C18FE792EE62E00F94F5F18FEEC5
:10EA300090EE60E00F94F5F181E291EE60E00F94CA
:10EA4000C2F187EB91EE60E00F94F5F180E391EE77
:10EA500060E00F94C2F184EE90EE60E00F94F5F167
:10EA60008FE391EE60E00F94C2F186E090E061E008
:10EA700070E00F9434F20F94DCF18DE591EE60E0DC
:10EA80000F94C2F189EC91EE60E00F94F5F18EE401
:10EA900091EE60E00F94C2F183EC91EE60E00F9490
:10EAA000F5F18CE691EE60E00F94C2F18EE10F94E7
:10EAB0000DF288E90F940DF281E00F940DF20F949E
:10EAC000DCF18BE791EE60E00F94C2F119E0E0E039
:10EAD000F0E010935700E4918E2F0F940DF20F94F5
:10EAE000DCF18AE891EE60E00F94C2F1E3E0F0E03F
:10EAF00010935700E4918E2F0F940DF20F94DCF1D8
:10EB000089E991EE60E00F94C2F1E2E0F0E0109349
:10EB10005700E4918E2F0F940DF20F94DCF188EAE8
:10EB200091EE60E00F94C2F1E1E0F0E01093570045
:10EB30001491812F0F940DF20F94DCF107CF8BE825
:10EB400092EE62E00F94F5F18BE492EE60E00F94A8
:10EB5000F5F10F94DCF100E010E019C0C8016F2D51
:10EB60000F947FFEFF2031F489E492EE60E00F9471
:10EB7000C2F10BC0F092C6008091C00086FFFCCFAE
:10EB80008091C00080648093C0000F5F1F4FC80158
:10EB900081519F41A0E0B0E0ABBFFC01F790BAE229
:10EBA000FB1621F0E2E000301E07C1F60F94DCF105
:10EBB0000F94DCF187E592EE60E00F94F5F10F948D
:10EBC000DCF1CC24DD2400E010E01EC0C8010F946D
:10EBD00077FEF82E882331F489E492EE60E00F94FA
:10EBE000C2F10BC08093C6008091C00086FFFCCFAD
:10EBF0008091C00080648093C000FE1419F00894D6
:10EC0000C11CD11C0F5F1F4FC80181519F41A0E063
:10EC1000B0E0ABBFFC01E790FAE2EF1621F022E092
:10EC20000030120799F60F94DCF10F94DCF182E6C4
:10EC300092EE60E00F94C2F1C60161E070E00F94C3
:10EC400034F20F94DCF10F94DCF110920202109276
:10EC50000302109204021092050278CE89E992EE26
:10EC600062E00F94F5F1279A2F9A16C02F9880E052
:10EC700090E0E0EDF7E03197F1F7019684369105E9
:10EC8000C1F72F9A80E090E0E0EDF7E03197F1F7DF
:10EC9000019684369105C1F78091C00087FFE6CFC9
:10ECA0008091C00087FFFCCF64C485EA92EE62E0E9
:10ECB0000F94F5F140910202509103026091040219
:10ECC0007091050281E020E10F9491F2809102029F
:10ECD00090910302A0910402B091050280509F4FD1
:10ECE000AF4FBF4F8093020290930302A0930402A0
:10ECF000B093050280509041A040B04008F426CE69
:10ED0000A4CF83EB92EE62E00F94F5F140910602FE
:10ED100050910702609108027091090280E020E1A1
:10ED20000F9491F28091060290910702A09108023F
:10ED3000B091090280509F4FAF4FBF4F80930602A2
:10ED400090930702A0930802B0930902FFCD80ECD4
:10ED500092EE62E00F94F5F183E792EE60E00F949B
:10ED6000F5F18FE792EE60E00F94F5F18BE892EE0B
:10ED700060E00F94F5F189E992EE60E00F94F5F10F
:10ED800085EA92EE60E00F94F5F183EB92EE60E09D
:10ED90000F94F5F180EC92EE60E00F94F5F187ECC2
:10EDA00092EE60E00F94F5F188ED92EE60E00F9442
:10EDB000F5F18FED92EE60E00F94F5F18AEE92EEB0
:10EDC00060E00F94F5F183E093EEBDCD87EC92EE19
:10EDD00062E00F94F5F181E40F947BF282E40F94EA
:10EDE0007BF283E40F947BF284E40F947BF285E45E
:10EDF0000F947BF286E40F947BF287E40F947BF20E
:10EE000088E40F947BF28AE40F947BF28BE40F94F6
:10EE10007BF28CE40F947BF299CD88ED92EE62E068
:10EE20000F94F5F1772473948824992409C48FED05
:10EE300092EE62E00F94F5F140910A0250910B02BC
:10EE400060910C0270910D0282E020E10F9491F22A
:10EE500080910A0290910B02A0910C02B0910D02D8
:10EE600080509F4FAF4FBF4F80930A0290930B0289
:10EE7000A0930C02B0930D0269CD8AEE92EE62E08F
:10EE80000F94F5F184EE90EE60E00F94F5F18FECC5
:10EE900091EE60E00F94F5F1662477244301CC5D98
:10EEA000DE4F19821882C452D140D401C301B695F5
:10EEB000A79597958795CA5DDE4F88839983AA8326
:10EEC000BB83C652D140CC5DDE4FA881B981C4520C
:10EED000D1401196CC5DDE4FB983A883C452D14096
:10EEE000CD0162E070E00F9434F2B0E2B093C6005E
:10EEF0008091C00086FFFCCF8091C0008064809329
:10EF0000C000EDE2E093C6008091C00086FFFCCF18
:10EF10008091C00080648093C000F0E2F093C6004E
:10EF20008091C00086FFFCCF8091C00080648093F8
:10EF3000C000CA5DDE4FE880F9800A811B81C6529D
:10EF4000D140BB27A12F902F8F2D0F940DF2CA5DBA
:10EF5000DE4F8881C652D1400F940DF2B0E2FB2EF5
:10EF6000F092C6008091C00086FFFCCF8091C00067
:10EF700080648093C0000DE30093C6008091C000C0
:10EF800086FFFCCF8091C00080648093C00010E2B7
:10EF90001093C6008091C00086FFFCCF8091C00016
:10EFA00080648093C0008BBEF3012791C65DDE4F65
:10EFB0002883CA52D140A22EBB24CC24DD2408943D
:10EFC000611C711C811C911C8BBEF3018791282E42
:10EFD0003324442455240894611C711C811C911C09
:10EFE0008BBEF3013791C55DDE4F3883CB52D140E4
:10EFF0000894611C711C811C911C8BBEF30147910C
:10F00000C45DDE4F4883CC52D140ADEFEA2EAFEF66
:10F01000FA2EAFEF0A2FAFEF1A2F6E0C7F1C801E57
:10F02000911E142D032DF22CEE24EA0CFB1C0C1D5A
:10F030001D1D0F940DF220E22093C6008091C000A8
:10F0400086FFFCCF8091C00080648093C000C65DC5
:10F05000DE4F8881CA52D1400F940DF230E23093D6
:10F06000C6008091C00086FFFCCF8091C000806404
:10F070008093C000C45DDE4F8881CC52D1400F9494
:10F080000DF240E24093C6008091C00086FFFCCFA5
:10F090008091C00080648093C000C55DDE4F888190
:10F0A000CB52D1400F940DF250E25093C6008091A4
:10F0B000C00086FFFCCF8091C00080648093C000B8
:10F0C0008FEFE8168FEFF80680E0080780E018075A
:10F0D00031F484E092EE60E00F94C2F1DFC0D80119
:10F0E000C7018070907CA070B0708050904CA040A0
:10F0F000B040D1F52FEF3FE340E050E0E222F322B1
:10F1000004231523CA5DDE4FA880B980CA80DB8046
:10F11000C652D140AE0CBF1CC01ED11EAA0CBB1CD7
:10F12000CC1CDD1C8EE092EE60E00F94C2F1BB2798
:10F13000A12F902F8F2D0F940DF28E2D0F940DF285
:10F1400030E23093C6008091C00086FFFCCF8091F2
:10F15000C00080648093C0004EE34093C60080915D
:10F16000C00086FFFCCF87C08EE09EEFA0E0B0E03D
:10F17000E822F9220A231B239CE0E91694E9F90608
:10F1800090E0090790E0190709F088C0C45DDE4FE0
:10F19000A881CC52D140EA2EFF2400E010E0102FCD
:10F1A0000F2DFE2CEE24C55DDE4FB881CB52D14031
:10F1B000EB0EF11C011D111DD601C501817090706F
:10F1C000A070B070DC0199278827E80EF91E0A1F8D
:10F1D0001B1F20EF30E040E050E0A222B322C42207
:10F1E000D52241E1AA0CBB1CCC1CDD1C4A95D1F7F1
:10F1F000EA0CFB1C0C1D1D1D81E090E0A0E0B0E0BE
:10F20000282239224A225B2235E1220C331C441C7D
:10F21000551C3A95D1F7E20CF31C041D151D57013E
:10F220006801AA0CBB1CCC1CDD1C85E192EE60E0E1
:10F230000F94C2F1C801AA27BB270F940DF2BB2778
:10F24000A12F902F8F2D0F940DF28E2D0F940DF274
:10F2500090E29093C6008091C00086FFFCCF809121
:10F26000C00080648093C000AEE3A093C60080918C
:10F27000C00086FFFCCF8091C00080648093C000F6
:10F28000C601AA27BB270F940DF2BB27AD2D9C2DDD
:10F290008B2D0F940DF28A2D0F940DF20F94DCF14B
:10F2A000CC5DDE4FE881F981C452D140F99709F471
:10F2B0004DCBF4E0EF2EF12C012D112D6E0C7F1CA7
:10F2C000801E911EF2CD83E093EE62E00F94F5F183
:10F2D0008AE192EE60E00F94C2F18091C00087FF56
:10F2E000FCCF1091C6001F751093C6008091C0001E
:10F2F00086FFFCCF8091C00080648093C0000F9493
:10F30000DCF1812F81548A3108F036C1163409F4BA
:10F3100095C0173490F4133409F44EC0143430F40B
:10F320001134F1F0123409F01DC130C0143409F465
:10F3300059C0153409F016C16BC01A3409F4C4C0A1
:10F340001B3438F4173409F48FC0183409F00AC19B
:10F35000A1C01B3409F4D2C01C3409F003C1E8C0B9
:10F360008FEF81B90DC082B1809582B980E090E0C5
:10F37000E0EDF7E03197F1F70196883C9105C1F790
:10F380008091C00087FFEFCF12B8EFC08FEF84B934
:10F390000DC085B1809585B980E090E0E0EDF7E0A3
:10F3A0003197F1F70196883C9105C1F78091C00033
:10F3B00087FFEFCF15B8D9C08FEF87B90DC088B1DF
:10F3C000809588B980E090E0E0EDF7E03197F1F7C3
:10F3D0000196883C9105C1F78091C00087FFEFCF6F
:10F3E00018B8C3C08FEF8AB90DC08BB180958BB9A7
:10F3F00080E090E0E0EDF7E03197F1F70196883C8E
:10F400009105C1F78091C00087FFEFCF1BB8ADC059
:10F410008FEF8DB90DC08EB180958EB980E090E0F0
:10F42000E0EDF7E03197F1F70196883C9105C1F7DF
:10F430008091C00087FFEFCF1EB897C08FEF80BBD1
:10F440000DC081B3809581BB80E090E0E0EDF7E0F6
:10F450003197F1F70196883C9105C1F78091C00082
:10F4600087FFEFCF11BA81C08FEF83BB0DC084B38C
:10F47000809584BB80E090E0E0EDF7E03197F1F714
:10F480000196883C9105C1F78091C00087FFEFCFBE
:10F4900014BA6BC08FEF809301010FC080910201FD
:10F4A00080958093020180E090E0E0EDF7E03197F5
:10F4B000F1F70196883C9105C1F78091C00087FF64
:10F4C000EDCF1092020151C08FEF809304010FC065
:10F4D0008091050180958093050180E090E0E0ED4A
:10F4E000F7E03197F1F70196883C9105C1F78091DB
:10F4F000C00087FFEDCF1092050137C08FEF8093DA
:10F5000007010FC08091080180958093080180E079
:10F5100090E0E0EDF7E03197F1F70196883C910536
:10F52000C1F78091C00087FFEDCF109208011DC088
:10F530008FEF80930A010FC080910B01809580931B
:10F540000B0180E090E0E0EDF7E03197F1F70196F4
:10F55000883C9105C1F78091C00087FFEDCF1092E4
:10F560000B0103C085E292EEEEC98091C00087FFD7
:10F57000FCCF8091C600EAC988E392EEE4C98CE131
:10F5800091EEE1C988249924933011F1943028F444
:10F59000913089F09230B8F408C0953061F195301F
:10F5A000F0F0963009F048C043C02B3109F042C951
:10F5B00091E06BE13FC96227C15DDE4F2883CF52E6
:10F5C000D14092E037C9B22FA0E0622793E032C960
:10F5D000822F90E0A82BB92B622794E02BC92E3004
:10F5E00009F039C3622795E0C05DDE4F19821882A9
:10F5F000C053D1401FC9E1E0F0E0EC0FFD1FC05D3A
:10F60000DE4F08811981C053D140E00FF11F2083E4
:10F610000F5F1F4FC05DDE4F19830883C053D14079
:10F6200062270A171B0709F005C9D80196E002C92D
:10F63000261709F010C303C0973009F0FBC87724E0
:10F640009981933109F412C19431C8F4963009F4C8
:10F65000D8C0973050F4923009F406C1933009F4C1
:10F660006DC0913009F059C253C0913109F477C08F
:10F67000923108F0BBC0903109F04FC2F5C098310B
:10F6800009F487C0993150F4953109F4EFC09531F0
:10F6900008F4C6C1963109F040C2C2C19A3109F4DA
:10F6A0006CC09A3108F491C09B3109F45BC09D3164
:10F6B00009F033C29D81903359F48F81882311F46E
:10F6C0009EE11CC0813011F091E018C098E916C08D
:10F6D000892F807591F0903539F4E0E0F0E089E011
:10F6E0008093570094910AC0983539F4E3E0F0E034
:10F6F00089E080935700949101C090E01A821B82A8
:10F700008D818C831D829E831F8227E030E009C299
:10F710001A8288E08B8381E48C8386E58D8382E581
:10F720008E8389E48F8383E5888780E589878FE5E9
:10F730008A8782E38B872BE030E0F3C18A818139AD
:10F7400041F0823941F0803911F48FE005C080E04A
:10F7500003C082E001C08AE01A828B8344C0772410
:10F76000739482C08D81882311F48EE12CC0813086
:10F7700011F081E028C088E926C01A82E1E0F0E0BB
:10F7800089E08093570084918B831C8224E030E0D1
:10F79000C8C18B81803589F48C81883039F4E2E0EE
:10F7A000F0E089E08093570084910DC0E0E0F0E044
:10F7B00089E080935700849106C0E3E0F0E089E09F
:10F7C0008093570084911A82DFCF8D81836C99E0FA
:10F7D000E1E0F0E0082E90935700E89507B600FCB2
:10F7E000FDCF1A821B8223E030E09BC180EC8A832C
:10F7F000CE5CDE4F188219821A821B82C253D1401E
:10F800008EC18A8190E0A0E0B0E0582F44273327D2
:10F8100022278B8190E0A0E0B0E0DC0199278827C7
:10F82000282B392B4A2B5B2B8D8190E0A0E0B0E098
:10F83000282B392B4A2B5B2B8C8190E0A0E0B0E089
:10F84000BA2FA92F982F8827282B392B4A2B5B2BCF
:10F85000220F331F441F551FC05EDE4F288339839C
:10F860004A835B83C052D1401A8259C13A81C95C34
:10F87000DE4F3883C753D140CA5CDE4F1882C6536F
:10F88000D1408B81C82EDD24CA5CDE4F488159816E
:10F89000C653D140C42AD52A933109F082C0CE5C28
:10F8A000DE4F88819981AA81BB81C253D1408050AB
:10F8B000904CA340B04030F583E0CE5CDE4FE88052
:10F8C000F9800A811B81C253D140F70100935B008C
:10F8D00080935700E89507B600FCFDCFCE5CDE4F65
:10F8E000088119812A813B81C253D14000501F4FAA
:10F8F0002F4F3F4FCE5CDE4F088319832A833B8313
:10F90000C253D140C05EDE4F488159816A817B81FC
:10F91000C052D140DE011B9631E08C9111962C91A2
:10F9200011971296C75CDE4F2883C953D140C85C3B
:10F93000DE4F1882C853D14090E0C85CDE4FE881AA
:10F94000F981C853D1408E2B9F2B0C01FA01609393
:10F950005B0030935700E89511244E5F5F4F6F4F67
:10F960007F4F0EEFE02E0FEFF02ECE0CDF1CC114F8
:10F97000D10499F685E0C05EDE4F088119812A81A5
:10F980003B81C052D140F80120935B008093570027
:10F99000E89507B600FCFDCF81E180935700E8951C
:10F9A00035C0C05EDE4F88819981AA81BB81C0527B
:10F9B000D140B695A795979587957C018601ABE0D8
:10F9C000AA2EB12CAC0EBD1E0BC0D5016D915D01F0
:10F9D000C7010F947FFE0894E11CF11C01501040F8
:10F9E0000115110591F7A60160E070E0440F551F65
:10F9F000661F771FC05EDE4FE880F9800A811B8199
:10FA0000C052D1404E0D5F1D601F711F1A82C05E33
:10FA1000DE4F488359836A837B83C052D1407FC0C5
:10FA2000FA80C55CDE4FF882CB53D140C65CDE4F16
:10FA30001882CA53D1408B81C82EDD24C65CDE4FAC
:10FA400008811981CA53D140C02AD12A1A828981DA
:10FA5000BE016D5F7F4F843121F59601C05EDE4FA0
:10FA6000E880F9800A811B81C052D1400BBFF701A9
:10FA700087919691DB018C9311969C936E5F7F4FDB
:10FA8000D801C7010296A11DB11DC05EDE4F88835B
:10FA90009983AA83BB83C052D14022503040F1F6F3
:10FAA00036C0C05EDE4F288139814A815B81C052F9
:10FAB000D1400894C108D108760100E010E0089414
:10FAC000C11CD11C0894E11CF11C011D111DE20E8A
:10FAD000F31E041F151F21BDBB27A52F942F832FB5
:10FAE00082BD2F5F3F4F4F4F5F4FF89A80B5DB01CC
:10FAF0008D93BD012E153F054007510761F7C05E8C
:10FB0000DE4F288339834A835B83C052D1409601FC
:10FB10002D5F3F4FFB01108204C080EC8A8322E0FE
:10FB200030E08BE18093C6008091C00086FFFCCF5F
:10FB30008091C00080648093C000C15DDE4FF88179
:10FB4000CF52D140F093C6008091C00086FFFCCF19
:10FB50008091C00080648093C000432F3093C60022
:10FB60008091C00086FFFCCF8091C00080648093AC
:10FB7000C000922F2093C6008091C00086FFFCCF6A
:10FB80008091C00080648093C0008EE08093C600A6
:10FB90008091C00086FFFCCF8091C000806480937C
:10FBA000C00065E1C15DDE4FE880CF52D1406E25D7
:10FBB00069276427FE01319610C090819093C6009A
:10FBC0008091C00086FFFCCF31968091C000806498
:10FBD0008093C0006927215030402115310569F715
:10FBE0006093C6008091C00086FFFCCF8091C0006A
:10FBF00080648093C00085B1805885B9772081F4F6
:10FC0000C15DDE4F0881CF52D1400F5FC15DDE4F35
:10FC10000883CF52D14090E0A0E0B0E00D941AF4F8
:10FC200027982F9880E090E020ED37E0F901319798
:10FC3000F1F7019684369105C9F700008091C00064
:10FC40008D7F8093C00081E180935700E895EE2777
:10FC5000FF270994FFCF90E00D941AF497FB092E2B
:10FC600007260AD077FD04D02ED006D000201AF443
:10FC7000709561957F4F0895F6F7909581959F4F08
:10FC80000895A1E21A2EAA1BBB1BFD010DC0AA1FDD
:10FC9000BB1FEE1FFF1FA217B307E407F50720F0F5
:10FCA000A21BB30BE40BF50B661F771F881F991F70
:10FCB0001A9469F760957095809590959B01AC01B9
:10FCC000BD01CF010895AA1BBB1B51E107C0AA1FAC
:10FCD000BB1FA617B70710F0A61BB70B881F991FED
:10FCE0005A95A9F780959095BC01CD010895F99991
:10FCF000FECF92BD81BDF89A992780B50895262F31
:10FD0000F999FECF1FBA92BD81BD20BD0FB6F89400
:0EFD1000FA9AF99A0FBE01960895F894FFCF63
:040000033000E000E9
:00000001FF
