:100000001CC1000039C1000037C1000035C100002B
:1000100033C1000031C100002FC100002DC100001C
:100020002BC1000029C1000027C1000025C100002C
:1000300023C1000021C100001FC100001DC100003C
:100040001BC1000019C1000017C1000015C100004C
:1000500013C1000011C100000FC10000AEC30000B9
:100060000BC1000009C1000007C1000005C100006C
:1000700003C1000001C10000FFC00000FDC000007E
:10008000FBC00000F9C00000F7C00000F5C0000090
:10009000F3C00000F1C00000EFC00000EDC00000A0
:1000A000EBC00000E9C00000E7C00000E5C00000B0
:1000B000E3C00000E1C00000DFC00000DDC00000C0
:1000C000DBC00000D9C00000D7C00000D5C00000D0
:1000D000D3C00000D1C00000CFC00000CDC00000E0
:1000E000CBC0000091029202930294029502960204
:1000F000970298029902E904EC04DB04DF04E504AA
:100100002305F004F404FA04FE04020508050C05B6
:100110001005230516051A051E0500000A0B020925
:100120000C0D0E0807030401000000000000000091
:1001300000000000000000000000000000000000BF
:10014000000000000000121110000000000000007C
:10015000000000000000000000000000000000009F
:1001600001021020200808102040102040800201C9
:1001700002010804020101020408102040808040AE
:1001800020100804020180040201804020100804AD
:10019000020108040201010204081020408001024B
:1001A0000408102040800505050507050808080813
:1001B000020202020A0A08080404040401010101FF
:1001C00001010101030303030303030304070707FA
:1001D0000C0C0C0C0C0C0C0C02020202060606069F
:1001E000060606060B0B0B0B0B0B0B0B000020007F
:1001F0002300260029002C002F00320000010000FF
:1002000003010601090100002200250028002B003F
:100210002E003100340002010000050108010B012D
:1002200000002100240027002A002D0030003300A8
:1002300001010000040107010A0111241FBECFEFD4
:10024000D1E2DEBFCDBF00E00CBF12E0A0E0B2E023
:10025000EEE9FBE000E00BBF02C007900D92AC316D
:10026000B107D9F722E0ACE1B2E001C01D92A133A1
:10027000B207E1F780D491C4C3CE61E080911A0245
:10028000E3D361E080911802DFD361E08091160230
:10029000DBD361E080911402D7D361E08091120238
:1002A000D3D361E080911002CFD361E080910E0240
:1002B000CBD361E080910C02C7D361E080910A0248
:1002C000C3D361E080910802BFD361E08091060250
:1002D000BBD360E080910202B7D360E0809100025E
:1002E000B3C360E080911A02E8D361E08091180204
:1002F000E4D361E080911602E0D360E080911402C3
:10030000DCD360E080911202D8D360E080911002CB
:10031000D4D360E080910E02D0C361E080911A02D4
:10032000CCD361E080911802C8D360E080911602BE
:10033000C4D361E080911402C0D361E080911202C5
:10034000BCD360E080911002B8D361E080910E02CE
:10035000B4C361E080911A02B0D361E080911802C9
:10036000ACD361E080911602A8D361E080911402C1
:10037000A4D360E080911202A0D360E080911002CB
:100380009CD361E080910E0298C360E080911A02D4
:1003900094D361E08091180290D361E080911602BD
:1003A0008CD360E08091140288D360E080911202C7
:1003B00084D361E08091100280D361E080910E02CD
:1003C0007CC361E080911A0278D360E080911802CA
:1003D00074D361E08091160270D361E080911402C1
:1003E0006CD360E08091120268D361E080911002CA
:1003F00064D361E080910E0260C361E080911A02D3
:100400005CD360E08091180258D361E080911602BD
:1004100054D361E08091140250D361E080911202C4
:100420004CD361E08091100248D361E080910E02CC
:1004300044C361E080911A0240D361E080911802C8
:100440003CD361E08091160238D360E080911402C1
:1004500034D360E08091120230D360E080911002CA
:100460002CD360E080910E0228C361E080911A02D3
:1004700024D361E08091180220D361E080911602BC
:100480001CD361E08091140218D361E080911202C4
:1004900014D361E08091100210D361E080910E02CC
:1004A0000CC361E080911A0208D361E080911802C8
:1004B00004D361E08091160200D361E080911402C0
:1004C000FCD260E080911202F8D261E080911002CB
:1004D000F4D261E080910E02F0C261E080911A02D4
:1004E000ECD261E080911802E8D261E080911602BE
:1004F000E4D261E080911402E0D261E080911202C6
:10050000DCD261E080911002D8D260E080910E02CE
:10051000D4C201978930910568F48E589F4FFC0131
:1005200036C3DFCEFACE15CF30CF4BCF66CF81CFDB
:100530009CCFB7CFD2CF80910202F4D2019709F0BD
:1005400062C080911E0290911F02019709F05BC06A
:1005500064E170E080E090E09DD18091260290916E
:10056000270201968A3091050CF41DC110922702D2
:100570001092260280912402909125020196909378
:1005800025028093240280912402909125020A97EB
:100590006CF0109225021092240280912202909118
:1005A00023020196909323028093220280912202DB
:1005B000909123020A976CF010922302109222026B
:1005C00080912002909121020196909321028093C4
:1005D000200280912002909121020A9784F01092CB
:1005E00027021092260210922502109224021092E5
:1005F00023021092220210922102109220021092E5
:100600001F0210921E02809102028CD2892B31F4BB
:1006100081E090E090931F0280931E02809100027F
:1006200081D2019709F05CC080911C0290911D025B
:10063000019709F055C064E170E080E090E02AD1B4
:100640008091260290912702019708F0B1C089E0BD
:1006500090E090932702809326028091240290914B
:100660002502019790932502809324028091240211
:1006700090912502019679F489E090E0909325020B
:1006800080932402809122029091230201979093FB
:1006900023028093220280912202909123020196EC
:1006A00079F489E090E09093230280932202809174
:1006B00020029091210201979093210280932002C1
:1006C0008091200290912102019631F489E090E01E
:1006D000909321028093200210921D0210921C021E
:1006E000809100021FD2892B31F481E090E0909339
:1006F0001D0280931C0261E080910602DED1809190
:1007000020029091210205DF6091040270910502A0
:10071000882777FD8095982FBDD060E080910602F4
:10072000CCD161E080910802C8D1809122029091E1
:100730002302EFDE6091040270910502882777FDA5
:100740008095982FA7D060E080910802B6D161E033
:1007500080910A02B2D18091240290912502D9DEC3
:100760006091040270910502882777FD8095982F8B
:1007700091D060E080910A02A0D161E080910C02EA
:100780009CD18091260290912702C3DE60910402E1
:1007900070910502882777FD8095982F7BD060E0C7
:1007A00080910C028AC19093270280932602EBCE9F
:1007B000909327028093260259CF1F920F920FB673
:1007C0000F9211242F933F938F939F93AF93BF93D7
:1007D0008091290290912A02A0912B02B0912C02C3
:1007E0003091280223E0230F2D3720F40196A11D1C
:1007F000B11D05C026E8230F0296A11DB11D20934F
:1008000028028093290290932A02A0932B02B0938E
:100810002C0280912D0290912E02A0912F02B09176
:1008200030020196A11DB11D80932D0290932E02DE
:10083000A0932F02B0933002BF91AF919F918F91FF
:100840003F912F910F900FBE0F901F9018953FB7BB
:10085000F89480912D0290912E02A0912F02B091D8
:10086000300226B5A89B05C02F3F19F00196A11DA7
:10087000B11D3FBF6627782F892F9A2F620F711DF8
:10088000811D911D42E0660F771F881F991F4A95B1
:10089000D1F70895CF92DF92EF92FF92CF93DF933B
:1008A0006B017C01D4DFEB01C114D104E104F1043C
:1008B00079F06CD1CCDF6C1B7D0B683E7340A0F3EC
:1008C00081E0C81AD108E108F108C851DC4FECCF2B
:1008D000DF91CF91FF90EF90DF90CF9008957894C3
:1008E00084B5826084BD84B5816084BD85B5826035
:1008F00085BD85B5816085BDEEE6F0E080818160D3
:100900008083E1E8F0E010828081826080838081D2
:1009100081608083E0E8F0E0808181608083E1EBAA
:10092000F0E0808184608083E0EBF0E08081816092
:100930008083E1E9F0E08081826080838081816052
:100940008083E0E9F0E0808181608083E1EAF0E08B
:10095000808182608083808181608083E0EAF0E032
:10096000808181608083E1E2F1E080818260808328
:10097000808181608083E0E2F1E08081816080831A
:10098000EAE7F0E0808184608083808182608083F8
:100990008081816080838081806880831092C10023
:1009A000089590E0FC013197E231F10508F04BC069
:1009B000E558FF4FECC0809180008F7703C0809195
:1009C00080008F7D80938000089580918000877FD4
:1009D000F9CF84B58F7702C084B58F7D84BD08952B
:1009E0008091B0008F7703C08091B0008F7D80939D
:1009F000B0000895809190008F7707C0809190009B
:100A00008F7D03C080919000877F80939000089530
:100A10008091A0008F7707C08091A0008F7D03C0D8
:100A20008091A000877F8093A0000895809120018D
:100A30008F7707C0809120018F7D03C080912001B6
:100A4000877F809320010895CF93DF9390E0FC018E
:100A5000E05AFE4F2491FC01EA55FE4F8491882311
:100A600049F190E0880F991FFC01E05EFD4FA591D0
:100A7000B4918A5F9D4FFC01C591D4919FB76111DC
:100A800008C0F8948C91209582238C9388818223CE
:100A90000AC0623051F4F8948C91322F3095832340
:100AA0008C938881822B888304C0F8948C91822B4C
:100AB0008C939FBFDF91CF9108950F931F93CF9396
:100AC000DF931F92CDB7DEB7282F30E0F901E65E45
:100AD000FE4F8491F901E05AFE4F1491F901EA5555
:100AE000FE4F04910023C1F0882319F0698359DF78
:100AF0006981E02FF0E0EE0FFF1FEA5FFD4FA59147
:100B0000B4919FB7F8948C91611103C01095812323
:100B100001C0812B8C939FBF0F90DF91CF911F91CC
:100B20000F910895CF93DF93282F30E0F901E65E0F
:100B3000FE4F8491F901E05AFE4FD491F901EA5534
:100B4000FE4FC491CC2389F081112BDFEC2FF0E014
:100B5000EE0FFF1FE451FE4FA591B4912C912D2370
:100B600081E090E021F480E002C080E090E0DF913D
:100B7000CF9108950895B3DEFDDF7FDBC0E0D0E0C4
:100B8000DADC2097E9F30E940000FACF0895EE0F17
:0E0B9000FF1F0590F491E02D1994F894FFCF0B
:100B9E0027002600040024002300220021001C0050
:0C0BAE001B001A001900180017001600A8
:00000001FF
